{"contracts/MentorshipNFT.sol":{"MentorshipNFT":{"abi":[{"inputs":[],"stateMutability":"nonpayable","type":"constructor"},{"anonymous":false,"inputs":[{"indexed":true,"internalType":"address","name":"owner","type":"address"},{"indexed":true,"internalType":"address","name":"approved","type":"address"},{"indexed":true,"internalType":"uint256","name":"tokenId","type":"uint256"}],"name":"Approval","type":"event"},{"anonymous":false,"inputs":[{"indexed":true,"internalType":"address","name":"owner","type":"address"},{"indexed":true,"internalType":"address","name":"operator","type":"address"},{"indexed":false,"internalType":"bool","name":"approved","type":"bool"}],"name":"ApprovalForAll","type":"event"},{"anonymous":false,"inputs":[{"indexed":true,"internalType":"bytes32","name":"role","type":"bytes32"},{"indexed":true,"internalType":"bytes32","name":"previousAdminRole","type":"bytes32"},{"indexed":true,"internalType":"bytes32","name":"newAdminRole","type":"bytes32"}],"name":"RoleAdminChanged","type":"event"},{"anonymous":false,"inputs":[{"indexed":true,"internalType":"bytes32","name":"role","type":"bytes32"},{"indexed":true,"internalType":"address","name":"account","type":"address"},{"indexed":true,"internalType":"address","name":"sender","type":"address"}],"name":"RoleGranted","type":"event"},{"anonymous":false,"inputs":[{"indexed":true,"internalType":"bytes32","name":"role","type":"bytes32"},{"indexed":true,"internalType":"address","name":"account","type":"address"},{"indexed":true,"internalType":"address","name":"sender","type":"address"}],"name":"RoleRevoked","type":"event"},{"anonymous":false,"inputs":[{"indexed":true,"internalType":"address","name":"from","type":"address"},{"indexed":true,"internalType":"address","name":"to","type":"address"},{"indexed":true,"internalType":"uint256","name":"tokenId","type":"uint256"}],"name":"Transfer","type":"event"},{"inputs":[],"name":"DEFAULT_ADMIN_ROLE","outputs":[{"internalType":"bytes32","name":"","type":"bytes32"}],"stateMutability":"view","type":"function"},{"inputs":[],"name":"MINTER_ROLE","outputs":[{"internalType":"bytes32","name":"","type":"bytes32"}],"stateMutability":"view","type":"function"},{"inputs":[{"internalType":"address","name":"to","type":"address"},{"internalType":"uint256","name":"tokenId","type":"uint256"}],"name":"approve","outputs":[],"stateMutability":"nonpayable","type":"function"},{"inputs":[{"internalType":"address","name":"owner","type":"address"}],"name":"balanceOf","outputs":[{"internalType":"uint256","name":"","type":"uint256"}],"stateMutability":"view","type":"function"},{"inputs":[{"internalType":"uint256","name":"tokenId","type":"uint256"}],"name":"burn","outputs":[],"stateMutability":"nonpayable","type":"function"},{"inputs":[{"internalType":"uint256","name":"tokenId","type":"uint256"}],"name":"getApproved","outputs":[{"internalType":"address","name":"","type":"address"}],"stateMutability":"view","type":"function"},{"inputs":[{"internalType":"bytes32","name":"role","type":"bytes32"}],"name":"getRoleAdmin","outputs":[{"internalType":"bytes32","name":"","type":"bytes32"}],"stateMutability":"view","type":"function"},{"inputs":[{"internalType":"bytes32","name":"role","type":"bytes32"},{"internalType":"address","name":"account","type":"address"}],"name":"grantRole","outputs":[],"stateMutability":"nonpayable","type":"function"},{"inputs":[{"internalType":"uint256","name":"","type":"uint256"}],"name":"handle","outputs":[{"internalType":"string","name":"","type":"string"}],"stateMutability":"view","type":"function"},{"inputs":[{"internalType":"bytes32","name":"role","type":"bytes32"},{"internalType":"address","name":"account","type":"address"}],"name":"hasRole","outputs":[{"internalType":"bool","name":"","type":"bool"}],"stateMutability":"view","type":"function"},{"inputs":[{"internalType":"uint256","name":"","type":"uint256"}],"name":"imageDescriptor","outputs":[{"internalType":"address","name":"","type":"address"}],"stateMutability":"view","type":"function"},{"inputs":[{"internalType":"address","name":"owner","type":"address"},{"internalType":"address","name":"operator","type":"address"}],"name":"isApprovedForAll","outputs":[{"internalType":"bool","name":"","type":"bool"}],"stateMutability":"view","type":"function"},{"inputs":[{"internalType":"address","name":"_to","type":"address"},{"internalType":"uint256","name":"_imageDescriptor","type":"uint256"},{"internalType":"uint256","name":"_year","type":"uint256"},{"internalType":"uint256","name":"_season","type":"uint256"},{"internalType":"uint256","name":"_role","type":"uint256"},{"internalType":"string","name":"_handle","type":"string"},{"internalType":"string","name":"_other","type":"string"}],"name":"mint","outputs":[],"stateMutability":"nonpayable","type":"function"},{"inputs":[],"name":"name","outputs":[{"internalType":"string","name":"","type":"string"}],"stateMutability":"view","type":"function"},{"inputs":[{"internalType":"uint256","name":"","type":"uint256"}],"name":"other","outputs":[{"internalType":"string","name":"","type":"string"}],"stateMutability":"view","type":"function"},{"inputs":[{"internalType":"uint256","name":"tokenId","type":"uint256"}],"name":"ownerOf","outputs":[{"internalType":"address","name":"","type":"address"}],"stateMutability":"view","type":"function"},{"inputs":[{"internalType":"bytes32","name":"role","type":"bytes32"},{"internalType":"address","name":"account","type":"address"}],"name":"renounceRole","outputs":[],"stateMutability":"nonpayable","type":"function"},{"inputs":[{"internalType":"bytes32","name":"role","type":"bytes32"},{"internalType":"address","name":"account","type":"address"}],"name":"revokeRole","outputs":[],"stateMutability":"nonpayable","type":"function"},{"inputs":[{"internalType":"uint256","name":"","type":"uint256"}],"name":"role","outputs":[{"internalType":"uint256","name":"","type":"uint256"}],"stateMutability":"view","type":"function"},{"inputs":[{"internalType":"uint256","name":"","type":"uint256"}],"name":"roles","outputs":[{"internalType":"string","name":"","type":"string"}],"stateMutability":"view","type":"function"},{"inputs":[{"internalType":"address","name":"from","type":"address"},{"internalType":"address","name":"to","type":"address"},{"internalType":"uint256","name":"tokenId","type":"uint256"}],"name":"safeTransferFrom","outputs":[],"stateMutability":"nonpayable","type":"function"},{"inputs":[{"internalType":"address","name":"from","type":"address"},{"internalType":"address","name":"to","type":"address"},{"internalType":"uint256","name":"tokenId","type":"uint256"},{"internalType":"bytes","name":"_data","type":"bytes"}],"name":"safeTransferFrom","outputs":[],"stateMutability":"nonpayable","type":"function"},{"inputs":[{"internalType":"uint256","name":"","type":"uint256"}],"name":"season","outputs":[{"internalType":"uint256","name":"","type":"uint256"}],"stateMutability":"view","type":"function"},{"inputs":[{"internalType":"address","name":"operator","type":"address"},{"internalType":"bool","name":"approved","type":"bool"}],"name":"setApprovalForAll","outputs":[],"stateMutability":"nonpayable","type":"function"},{"inputs":[{"internalType":"uint256","name":"_imageDescriptor","type":"uint256"},{"internalType":"address","name":"_imageDescriptorAddr","type":"address"}],"name":"setImageDescriptor","outputs":[],"stateMutability":"nonpayable","type":"function"},{"inputs":[{"internalType":"uint256","name":"_roleId","type":"uint256"},{"internalType":"string","name":"_roleName","type":"string"}],"name":"setRoles","outputs":[],"stateMutability":"nonpayable","type":"function"},{"inputs":[{"internalType":"bytes4","name":"interfaceId","type":"bytes4"}],"name":"supportsInterface","outputs":[{"internalType":"bool","name":"","type":"bool"}],"stateMutability":"view","type":"function"},{"inputs":[],"name":"symbol","outputs":[{"internalType":"string","name":"","type":"string"}],"stateMutability":"view","type":"function"},{"inputs":[{"internalType":"uint256","name":"","type":"uint256"}],"name":"tokenImageDescriptor","outputs":[{"internalType":"uint256","name":"","type":"uint256"}],"stateMutability":"view","type":"function"},{"inputs":[{"internalType":"uint256","name":"tokenId","type":"uint256"}],"name":"tokenURI","outputs":[{"internalType":"string","name":"","type":"string"}],"stateMutability":"view","type":"function"},{"inputs":[],"name":"totalSupply","outputs":[{"internalType":"uint256","name":"","type":"uint256"}],"stateMutability":"view","type":"function"},{"inputs":[{"internalType":"address","name":"from","type":"address"},{"internalType":"address","name":"to","type":"address"},{"internalType":"uint256","name":"tokenId","type":"uint256"}],"name":"transferFrom","outputs":[],"stateMutability":"nonpayable","type":"function"},{"inputs":[{"internalType":"uint256","name":"","type":"uint256"}],"name":"year","outputs":[{"internalType":"uint256","name":"","type":"uint256"}],"stateMutability":"view","type":"function"}],"evm":{"bytecode":{"linkReferences":{},"object":"608060405260006007553480156200001657600080fd5b506040518060400160405280601481526020017f4d656e746f72736869702050726f6772616d6d650000000000000000000000008152506040518060400160405280600481526020017f4d454e540000000000000000000000000000000000000000000000000000000081525081600090805190602001906200009b92919062000388565b508060019080519060200190620000b492919062000388565b505050620000cc6000801b336200022360201b60201c565b620000fe7f9f2df0fed2c77648de5860a4cc508cd0818c85b8b8a1ab4ceeef8d981c8956a6336200022360201b60201c565b6040518060400160405280600681526020017f6d656e74656500000000000000000000000000000000000000000000000000008152506008600080815260200190815260200160002090805190602001906200015c92919062000388565b506040518060400160405280600681526020017f6d656e746f72000000000000000000000000000000000000000000000000000081525060086000600181526020019081526020016000209080519060200190620001bc92919062000388565b506040518060400160405280600481526020017f7465616d00000000000000000000000000000000000000000000000000000000815250600860006002815260200190815260200160002090805190602001906200021c92919062000388565b506200049d565b6200023582826200031560201b60201c565b620003115760016006600084815260200190815260200160002060000160008373ffffffffffffffffffffffffffffffffffffffff1673ffffffffffffffffffffffffffffffffffffffff16815260200190815260200160002060006101000a81548160ff021916908315150217905550620002b66200038060201b60201c565b73ffffffffffffffffffffffffffffffffffffffff168173ffffffffffffffffffffffffffffffffffffffff16837f2f8788117e7eff1d82e926ec794901d17c78024a50270940304540a733656f0d60405160405180910390a45b5050565b60006006600084815260200190815260200160002060000160008373ffffffffffffffffffffffffffffffffffffffff1673ffffffffffffffffffffffffffffffffffffffff16815260200190815260200160002060009054906101000a900460ff16905092915050565b600033905090565b828054620003969062000467565b90600052602060002090601f016020900481019282620003ba576000855562000406565b82601f10620003d557805160ff191683800117855562000406565b8280016001018555821562000406579182015b8281111562000405578251825591602001919060010190620003e8565b5b50905062000415919062000419565b5090565b5b80821115620004345760008160009055506001016200041a565b5090565b7f4e487b7100000000000000000000000000000000000000000000000000000000600052602260045260246000fd5b600060028204905060018216806200048057607f821691505b6020821081141562000497576200049662000438565b5b50919050565b614e3b80620004ad6000396000f3fe608060405234801561001057600080fd5b50600436106101fb5760003560e01c80636352211e1161011a578063a22cb465116100ad578063c87b56dd1161007c578063c87b56dd1461061c578063d53913931461064c578063d547741f1461066a578063e985e9c514610686578063eb50637a146106b6576101fb565b8063a22cb46514610584578063b88d4fde146105a0578063bfda4a49146105bc578063c2459c89146105ec576101fb565b80638371b1c5116100e95780638371b1c5146104e857806391d148541461051857806395d89b4114610548578063a217fddf14610566576101fb565b80636352211e1461043c5780636b2f8bfa1461046c57806370a082311461049c578063790494be146104cc576101fb565b8063248a9ca31161019257806342842e0e1161016157806342842e0e146103b857806342966c68146103d457806354d840b4146103f057806357af7c4514610420576101fb565b8063248a9ca3146103205780632f2ff15d1461035057806336568abe1461036c578063369984d614610388576101fb565b8063173f1e36116101ce578063173f1e361461029a57806318160ddd146102b657806321d0a2a0146102d457806323b872dd14610304576101fb565b806301ffc9a71461020057806306fdde0314610230578063081812fc1461024e578063095ea7b31461027e575b600080fd5b61021a60048036038101906102159190613289565b6106e6565b60405161022791906132d1565b60405180910390f35b6102386106f8565b6040516102459190613385565b60405180910390f35b610268600480360381019061026391906133dd565b61078a565b604051610275919061344b565b60405180910390f35b61029860048036038101906102939190613492565b61080f565b005b6102b460048036038101906102af91906134d2565b610927565b005b6102be6109b0565b6040516102cb9190613521565b60405180910390f35b6102ee60048036038101906102e991906133dd565b6109b6565b6040516102fb9190613521565b60405180910390f35b61031e6004803603810190610319919061353c565b6109ce565b005b61033a600480360381019061033591906135c5565b610a2e565b6040516103479190613601565b60405180910390f35b61036a6004803603810190610365919061361c565b610a4e565b005b6103866004803603810190610381919061361c565b610a77565b005b6103a2600480360381019061039d91906133dd565b610afa565b6040516103af9190613385565b60405180910390f35b6103d260048036038101906103cd919061353c565b610b9a565b005b6103ee60048036038101906103e991906133dd565b610bba565b005b61040a600480360381019061040591906133dd565b610bf9565b6040516104179190613385565b60405180910390f35b61043a600480360381019061043591906136c1565b610c99565b005b610456600480360381019061045191906133dd565b610cf4565b604051610463919061344b565b60405180910390f35b610486600480360381019061048191906133dd565b610da6565b604051610493919061344b565b60405180910390f35b6104b660048036038101906104b19190613721565b610dd9565b6040516104c39190613521565b60405180910390f35b6104e660048036038101906104e1919061374e565b610e91565b005b61050260048036038101906104fd91906133dd565b6110c8565b60405161050f9190613521565b60405180910390f35b610532600480360381019061052d919061361c565b6110e0565b60405161053f91906132d1565b60405180910390f35b61055061114b565b60405161055d9190613385565b60405180910390f35b61056e6111dd565b60405161057b9190613601565b60405180910390f35b61059e6004803603810190610599919061385c565b6111e4565b005b6105ba60048036038101906105b591906139cc565b6111fa565b005b6105d660048036038101906105d191906133dd565b61125c565b6040516105e39190613385565b60405180910390f35b610606600480360381019061060191906133dd565b6112fc565b6040516106139190613521565b60405180910390f35b610636600480360381019061063191906133dd565b611314565b6040516106439190613385565b60405180910390f35b610654611b98565b6040516106619190613601565b60405180910390f35b610684600480360381019061067f919061361c565b611bbc565b005b6106a0600480360381019061069b9190613a4f565b611be5565b6040516106ad91906132d1565b60405180910390f35b6106d060048036038101906106cb91906133dd565b611c79565b6040516106dd9190613521565b60405180910390f35b60006106f182611c91565b9050919050565b60606000805461070790613abe565b80601f016020809104026020016040519081016040528092919081815260200182805461073390613abe565b80156107805780601f1061075557610100808354040283529160200191610780565b820191906000526020600020905b81548152906001019060200180831161076357829003601f168201915b5050505050905090565b600061079582611d0b565b6107d4576040517f08c379a00000000000000000000000000000000000000000000000000000000081526004016107cb90613b62565b60405180910390fd5b6004600083815260200190815260200160002060009054906101000a900473ffffffffffffffffffffffffffffffffffffffff169050919050565b600061081a82610cf4565b90508073ffffffffffffffffffffffffffffffffffffffff168373ffffffffffffffffffffffffffffffffffffffff16141561088b576040517f08c379a000000000000000000000000000000000000000000000000000000000815260040161088290613bf4565b60405180910390fd5b8073ffffffffffffffffffffffffffffffffffffffff166108aa611d77565b73ffffffffffffffffffffffffffffffffffffffff1614806108d957506108d8816108d3611d77565b611be5565b5b610918576040517f08c379a000000000000000000000000000000000000000000000000000000000815260040161090f90613c86565b60405180910390fd5b6109228383611d7f565b505050565b7f9f2df0fed2c77648de5860a4cc508cd0818c85b8b8a1ab4ceeef8d981c8956a661095981610954611d77565b611e38565b816009600085815260200190815260200160002060006101000a81548173ffffffffffffffffffffffffffffffffffffffff021916908373ffffffffffffffffffffffffffffffffffffffff160217905550505050565b60075481565b600d6020528060005260406000206000915090505481565b6109df6109d9611d77565b82611ed5565b610a1e576040517f08c379a0000000000000000000000000000000000000000000000000000000008152600401610a1590613d18565b60405180910390fd5b610a29838383611fb3565b505050565b600060066000838152602001908152602001600020600101549050919050565b610a5782610a2e565b610a6881610a63611d77565b611e38565b610a72838361221a565b505050565b610a7f611d77565b73ffffffffffffffffffffffffffffffffffffffff168173ffffffffffffffffffffffffffffffffffffffff1614610aec576040517f08c379a0000000000000000000000000000000000000000000000000000000008152600401610ae390613daa565b60405180910390fd5b610af682826122fb565b5050565b600f6020528060005260406000206000915090508054610b1990613abe565b80601f0160208091040260200160405190810160405280929190818152602001828054610b4590613abe565b8015610b925780601f10610b6757610100808354040283529160200191610b92565b820191906000526020600020905b815481529060010190602001808311610b7557829003601f168201915b505050505081565b610bb5838383604051806020016040528060008152506111fa565b505050565b7f9f2df0fed2c77648de5860a4cc508cd0818c85b8b8a1ab4ceeef8d981c8956a6610bec81610be7611d77565b611e38565b610bf5826123dd565b5050565b600e6020528060005260406000206000915090508054610c1890613abe565b80601f0160208091040260200160405190810160405280929190818152602001828054610c4490613abe565b8015610c915780601f10610c6657610100808354040283529160200191610c91565b820191906000526020600020905b815481529060010190602001808311610c7457829003601f168201915b505050505081565b7f9f2df0fed2c77648de5860a4cc508cd0818c85b8b8a1ab4ceeef8d981c8956a6610ccb81610cc6611d77565b611e38565b8282600860008781526020019081526020016000209190610ced929190613152565b5050505050565b6000806002600084815260200190815260200160002060009054906101000a900473ffffffffffffffffffffffffffffffffffffffff169050600073ffffffffffffffffffffffffffffffffffffffff168173ffffffffffffffffffffffffffffffffffffffff161415610d9d576040517f08c379a0000000000000000000000000000000000000000000000000000000008152600401610d9490613e3c565b60405180910390fd5b80915050919050565b60096020528060005260406000206000915054906101000a900473ffffffffffffffffffffffffffffffffffffffff1681565b60008073ffffffffffffffffffffffffffffffffffffffff168273ffffffffffffffffffffffffffffffffffffffff161415610e4a576040517f08c379a0000000000000000000000000000000000000000000000000000000008152600401610e4190613ece565b60405180910390fd5b600360008373ffffffffffffffffffffffffffffffffffffffff1673ffffffffffffffffffffffffffffffffffffffff168152602001908152602001600020549050919050565b7f9f2df0fed2c77648de5860a4cc508cd0818c85b8b8a1ab4ceeef8d981c8956a6610ec381610ebe611d77565b611e38565b600073ffffffffffffffffffffffffffffffffffffffff16600960008b815260200190815260200160002060009054906101000a900473ffffffffffffffffffffffffffffffffffffffff1673ffffffffffffffffffffffffffffffffffffffff161415610f66576040517f08c379a0000000000000000000000000000000000000000000000000000000008152600401610f5d90613f3a565b60405180910390fd5b604051806020016040528060008152508051906020012060086000888152602001908152602001600020604051610f9d9190613ff9565b60405180910390201415610fe6576040517f08c379a0000000000000000000000000000000000000000000000000000000008152600401610fdd9061405c565b60405180910390fd5b60076000815480929190610ff9906140ab565b919050555061100a8a6007546124fa565b88600a600060075481526020019081526020016000208190555087600b600060075481526020019081526020016000208190555086600c600060075481526020019081526020016000208190555085600d60006007548152602001908152602001600020819055508484600e600060075481526020019081526020016000209190611096929190613152565b508282600f6000600754815260200190815260200160002091906110bb929190613152565b5050505050505050505050565b600c6020528060005260406000206000915090505481565b60006006600084815260200190815260200160002060000160008373ffffffffffffffffffffffffffffffffffffffff1673ffffffffffffffffffffffffffffffffffffffff16815260200190815260200160002060009054906101000a900460ff16905092915050565b60606001805461115a90613abe565b80601f016020809104026020016040519081016040528092919081815260200182805461118690613abe565b80156111d35780601f106111a8576101008083540402835291602001916111d3565b820191906000526020600020905b8154815290600101906020018083116111b657829003601f168201915b5050505050905090565b6000801b81565b6111f66111ef611d77565b8383612518565b5050565b61120b611205611d77565b83611ed5565b61124a576040517f08c379a000000000000000000000000000000000000000000000000000000000815260040161124190613d18565b60405180910390fd5b61125684848484612685565b50505050565b6008602052806000526040600020600091509050805461127b90613abe565b80601f01602080910402602001604051908101604052809291908181526020018280546112a790613abe565b80156112f45780601f106112c9576101008083540402835291602001916112f4565b820191906000526020600020905b8154815290600101906020018083116112d757829003601f168201915b505050505081565b600a6020528060005260406000206000915090505481565b606061131f82611d0b565b61135e576040517f08c379a000000000000000000000000000000000000000000000000000000000815260040161135590614140565b60405180910390fd5b6000600b60008481526020019081526020016000205490506000600c6000858152602001908152602001600020549050600060086000600d600088815260200190815260200160002054815260200190815260200160002080546113c190613abe565b80601f01602080910402602001604051908101604052809291908181526020018280546113ed90613abe565b801561143a5780601f1061140f5761010080835404028352916020019161143a565b820191906000526020600020905b81548152906001019060200180831161141d57829003601f168201915b505050505090506000600e6000878152602001908152602001600020805461146190613abe565b80601f016020809104026020016040519081016040528092919081815260200182805461148d90613abe565b80156114da5780601f106114af576101008083540402835291602001916114da565b820191906000526020600020905b8154815290600101906020018083116114bd57829003601f168201915b505050505090506000600f6000888152602001908152602001600020805461150190613abe565b80601f016020809104026020016040519081016040528092919081815260200182805461152d90613abe565b801561157a5780601f1061154f5761010080835404028352916020019161157a565b820191906000526020600020905b81548152906001019060200180831161155d57829003601f168201915b50505050509050600060096000600a60008b815260200190815260200160002054815260200190815260200160002060009054906101000a900473ffffffffffffffffffffffffffffffffffffffff16905060008190506000808273ffffffffffffffffffffffffffffffffffffffff16636548bc108a8a8a8a8a604051602001611609959493929190614160565b6040516020818303038152906040526040518263ffffffff1660e01b8152600401611634919061421d565b600060405180830381865afa158015611651573d6000803e3d6000fd5b505050506040513d6000823e3d601f19601f8201168201806040525081019061167a91906142f5565b915091506116866131d8565b604051806060016040528060328152602001614cfe60329139816000600c81106116b3576116b2614351565b5b6020020181905250826116fb576040518060400160405280600381526020017f223a220000000000000000000000000000000000000000000000000000000000815250611732565b6040518060400160405280600881526020017f5f64617461223a220000000000000000000000000000000000000000000000008152505b816001600c811061174657611745614351565b5b60200201819052506040518060400160405280600b81526020017f222c226e616d65223a2022000000000000000000000000000000000000000000815250816002600c811061179857611797614351565b5b60200201819052506040518060400160405280600281526020017f2023000000000000000000000000000000000000000000000000000000000000815250816003600c81106117ea576117e9614351565b5b60200201819052506117fb8c6126e1565b816004600c811061180f5761180e614351565b5b60200201819052506040518060600160405280602f8152602001614db6602f9139816005600c811061184457611843614351565b5b60200201819052506118558a6126e1565b816006600c811061186957611868614351565b5b6020020181905250604051806060016040528060238152602001614d9360239139816007600c811061189e5761189d614351565b5b60200201819052506118af896126e1565b816008600c81106118c3576118c2614351565b5b6020020181905250604051806060016040528060218152602001614de560219139816009600c81106118f8576118f7614351565b5b6020020181905250604051806060016040528060238152602001614d706023913981600a600c811061192d5761192c614351565b5b60200201819052506000865111156119805785604051602001611950919061447a565b60405160208183030381529060405281600b600c811061197357611972614351565b5b60200201819052506119d3565b6040518060400160405280600481526020017f227d5d7d0000000000000000000000000000000000000000000000000000000081525081600b600c81106119ca576119c9614351565b5b60200201819052505b6000816000600c81106119e9576119e8614351565b5b6020020151826001600c8110611a0257611a01614351565b5b602002015184846002600c8110611a1c57611a1b614351565b5b6020020151611a2961114b565b866003600c8110611a3d57611a3c614351565b5b6020020151876004600c8110611a5657611a55614351565b5b6020020151886005600c8110611a6f57611a6e614351565b5b6020020151604051602001611a8b9897969594939291906144a7565b6040516020818303038152906040529050611b6481836006600c8110611ab457611ab3614351565b5b6020020151846007600c8110611acd57611acc614351565b5b6020020151856008600c8110611ae657611ae5614351565b5b6020020151866009600c8110611aff57611afe614351565b5b60200201518e88600a600c8110611b1957611b18614351565b5b60200201518f8a600b600c8110611b3357611b32614351565b5b6020020151604051602001611b5099989796959493929190614519565b604051602081830303815290604052612842565b905080604051602001611b7791906145e4565b6040516020818303038152906040529b505050505050505050505050919050565b7f9f2df0fed2c77648de5860a4cc508cd0818c85b8b8a1ab4ceeef8d981c8956a681565b611bc582610a2e565b611bd681611bd1611d77565b611e38565b611be083836122fb565b505050565b6000600560008473ffffffffffffffffffffffffffffffffffffffff1673ffffffffffffffffffffffffffffffffffffffff16815260200190815260200160002060008373ffffffffffffffffffffffffffffffffffffffff1673ffffffffffffffffffffffffffffffffffffffff16815260200190815260200160002060009054906101000a900460ff16905092915050565b600b6020528060005260406000206000915090505481565b60007f7965db0b000000000000000000000000000000000000000000000000000000007bffffffffffffffffffffffffffffffffffffffffffffffffffffffff1916827bffffffffffffffffffffffffffffffffffffffffffffffffffffffff19161480611d045750611d03826129a6565b5b9050919050565b60008073ffffffffffffffffffffffffffffffffffffffff166002600084815260200190815260200160002060009054906101000a900473ffffffffffffffffffffffffffffffffffffffff1673ffffffffffffffffffffffffffffffffffffffff1614159050919050565b600033905090565b816004600083815260200190815260200160002060006101000a81548173ffffffffffffffffffffffffffffffffffffffff021916908373ffffffffffffffffffffffffffffffffffffffff160217905550808273ffffffffffffffffffffffffffffffffffffffff16611df283610cf4565b73ffffffffffffffffffffffffffffffffffffffff167f8c5be1e5ebec7d5bd14f71427d1e84f3dd0314c0f7b2291e5b200ac8c7c3b92560405160405180910390a45050565b611e4282826110e0565b611ed157611e678173ffffffffffffffffffffffffffffffffffffffff166014612a88565b611e758360001c6020612a88565b604051602001611e8692919061469e565b6040516020818303038152906040526040517f08c379a0000000000000000000000000000000000000000000000000000000008152600401611ec89190613385565b60405180910390fd5b5050565b6000611ee082611d0b565b611f1f576040517f08c379a0000000000000000000000000000000000000000000000000000000008152600401611f169061474a565b60405180910390fd5b6000611f2a83610cf4565b90508073ffffffffffffffffffffffffffffffffffffffff168473ffffffffffffffffffffffffffffffffffffffff161480611f9957508373ffffffffffffffffffffffffffffffffffffffff16611f818461078a565b73ffffffffffffffffffffffffffffffffffffffff16145b80611faa5750611fa98185611be5565b5b91505092915050565b8273ffffffffffffffffffffffffffffffffffffffff16611fd382610cf4565b73ffffffffffffffffffffffffffffffffffffffff1614612029576040517f08c379a0000000000000000000000000000000000000000000000000000000008152600401612020906147dc565b60405180910390fd5b600073ffffffffffffffffffffffffffffffffffffffff168273ffffffffffffffffffffffffffffffffffffffff161415612099576040517f08c379a00000000000000000000000000000000000000000000000000000000081526004016120909061486e565b60405180910390fd5b6120a4838383612cc4565b6120af600082611d7f565b6001600360008573ffffffffffffffffffffffffffffffffffffffff1673ffffffffffffffffffffffffffffffffffffffff16815260200190815260200160002060008282546120ff919061488e565b925050819055506001600360008473ffffffffffffffffffffffffffffffffffffffff1673ffffffffffffffffffffffffffffffffffffffff168152602001908152602001600020600082825461215691906148c2565b92505081905550816002600083815260200190815260200160002060006101000a81548173ffffffffffffffffffffffffffffffffffffffff021916908373ffffffffffffffffffffffffffffffffffffffff160217905550808273ffffffffffffffffffffffffffffffffffffffff168473ffffffffffffffffffffffffffffffffffffffff167fddf252ad1be2c89b69c2b068fc378daa952ba7f163c4a11628f55a4df523b3ef60405160405180910390a4612215838383612cfe565b505050565b61222482826110e0565b6122f75760016006600084815260200190815260200160002060000160008373ffffffffffffffffffffffffffffffffffffffff1673ffffffffffffffffffffffffffffffffffffffff16815260200190815260200160002060006101000a81548160ff02191690831515021790555061229c611d77565b73ffffffffffffffffffffffffffffffffffffffff168173ffffffffffffffffffffffffffffffffffffffff16837f2f8788117e7eff1d82e926ec794901d17c78024a50270940304540a733656f0d60405160405180910390a45b5050565b61230582826110e0565b156123d95760006006600084815260200190815260200160002060000160008373ffffffffffffffffffffffffffffffffffffffff1673ffffffffffffffffffffffffffffffffffffffff16815260200190815260200160002060006101000a81548160ff02191690831515021790555061237e611d77565b73ffffffffffffffffffffffffffffffffffffffff168173ffffffffffffffffffffffffffffffffffffffff16837ff6391f5c32d9c69d2a47ea670b442974b53935d1edc7fd64eb21e047a839171b60405160405180910390a45b5050565b60006123e882610cf4565b90506123f681600084612cc4565b612401600083611d7f565b6001600360008373ffffffffffffffffffffffffffffffffffffffff1673ffffffffffffffffffffffffffffffffffffffff1681526020019081526020016000206000828254612451919061488e565b925050819055506002600083815260200190815260200160002060006101000a81549073ffffffffffffffffffffffffffffffffffffffff021916905581600073ffffffffffffffffffffffffffffffffffffffff168273ffffffffffffffffffffffffffffffffffffffff167fddf252ad1be2c89b69c2b068fc378daa952ba7f163c4a11628f55a4df523b3ef60405160405180910390a46124f681600084612cfe565b5050565b612514828260405180602001604052806000815250612d03565b5050565b8173ffffffffffffffffffffffffffffffffffffffff168373ffffffffffffffffffffffffffffffffffffffff161415612587576040517f08c379a000000000000000000000000000000000000000000000000000000000815260040161257e90614964565b60405180910390fd5b80600560008573ffffffffffffffffffffffffffffffffffffffff1673ffffffffffffffffffffffffffffffffffffffff16815260200190815260200160002060008473ffffffffffffffffffffffffffffffffffffffff1673ffffffffffffffffffffffffffffffffffffffff16815260200190815260200160002060006101000a81548160ff0219169083151502179055508173ffffffffffffffffffffffffffffffffffffffff168373ffffffffffffffffffffffffffffffffffffffff167f17307eab39ab6107e8899845ad3d59bd9653f200f220920489ca2b5937696c318360405161267891906132d1565b60405180910390a3505050565b612690848484611fb3565b61269c84848484612d5e565b6126db576040517f08c379a00000000000000000000000000000000000000000000000000000000081526004016126d2906149f6565b60405180910390fd5b50505050565b60606000821415612729576040518060400160405280600181526020017f3000000000000000000000000000000000000000000000000000000000000000815250905061283d565b600082905060005b6000821461275b578080612744906140ab565b915050600a826127549190614a45565b9150612731565b60008167ffffffffffffffff811115612777576127766138a1565b5b6040519080825280601f01601f1916602001820160405280156127a95781602001600182028036833780820191505090505b5090505b60008514612836576001826127c2919061488e565b9150600a856127d19190614a76565b60306127dd91906148c2565b60f81b8183815181106127f3576127f2614351565b5b60200101907effffffffffffffffffffffffffffffffffffffffffffffffffffffffffffff1916908160001a905350600a8561282f9190614a45565b94506127ad565b8093505050505b919050565b6060600082511415612865576040518060200160405280600081525090506129a1565b6000604051806060016040528060408152602001614d30604091399050600060036002855161289491906148c2565b61289e9190614a45565b60046128aa9190614aa7565b67ffffffffffffffff8111156128c3576128c26138a1565b5b6040519080825280601f01601f1916602001820160405280156128f55781602001600182028036833780820191505090505b509050600182016020820185865187015b80821015612961576003820191508151603f8160121c168501518453600184019350603f81600c1c168501518453600184019350603f8160061c168501518453600184019350603f8116850151845360018401935050612906565b505060038651066001811461297d576002811461299057612998565b603d6001830353603d6002830353612998565b603d60018303535b50505080925050505b919050565b60007f80ac58cd000000000000000000000000000000000000000000000000000000007bffffffffffffffffffffffffffffffffffffffffffffffffffffffff1916827bffffffffffffffffffffffffffffffffffffffffffffffffffffffff19161480612a7157507f5b5e139f000000000000000000000000000000000000000000000000000000007bffffffffffffffffffffffffffffffffffffffffffffffffffffffff1916827bffffffffffffffffffffffffffffffffffffffffffffffffffffffff1916145b80612a815750612a8082612ee6565b5b9050919050565b606060006002836002612a9b9190614aa7565b612aa591906148c2565b67ffffffffffffffff811115612abe57612abd6138a1565b5b6040519080825280601f01601f191660200182016040528015612af05781602001600182028036833780820191505090505b5090507f300000000000000000000000000000000000000000000000000000000000000081600081518110612b2857612b27614351565b5b60200101907effffffffffffffffffffffffffffffffffffffffffffffffffffffffffffff1916908160001a9053507f780000000000000000000000000000000000000000000000000000000000000081600181518110612b8c57612b8b614351565b5b60200101907effffffffffffffffffffffffffffffffffffffffffffffffffffffffffffff1916908160001a90535060006001846002612bcc9190614aa7565b612bd691906148c2565b90505b6001811115612c76577f3031323334353637383961626364656600000000000000000000000000000000600f861660108110612c1857612c17614351565b5b1a60f81b828281518110612c2f57612c2e614351565b5b60200101907effffffffffffffffffffffffffffffffffffffffffffffffffffffffffffff1916908160001a905350600485901c945080612c6f90614b01565b9050612bd9565b5060008414612cba576040517f08c379a0000000000000000000000000000000000000000000000000000000008152600401612cb190614b77565b60405180910390fd5b8091505092915050565b612cee7f9f2df0fed2c77648de5860a4cc508cd0818c85b8b8a1ab4ceeef8d981c8956a633611e38565b612cf9838383612f50565b505050565b505050565b612d0d8383612f55565b612d1a6000848484612d5e565b612d59576040517f08c379a0000000000000000000000000000000000000000000000000000000008152600401612d50906149f6565b60405180910390fd5b505050565b6000612d7f8473ffffffffffffffffffffffffffffffffffffffff1661312f565b15612ed9578373ffffffffffffffffffffffffffffffffffffffff1663150b7a02612da8611d77565b8786866040518563ffffffff1660e01b8152600401612dca9493929190614b97565b6020604051808303816000875af1925050508015612e0657506040513d601f19601f82011682018060405250810190612e039190614bf8565b60015b612e89573d8060008114612e36576040519150601f19603f3d011682016040523d82523d6000602084013e612e3b565b606091505b50600081511415612e81576040517f08c379a0000000000000000000000000000000000000000000000000000000008152600401612e78906149f6565b60405180910390fd5b805181602001fd5b63150b7a0260e01b7bffffffffffffffffffffffffffffffffffffffffffffffffffffffff1916817bffffffffffffffffffffffffffffffffffffffffffffffffffffffff191614915050612ede565b600190505b949350505050565b60007f01ffc9a7000000000000000000000000000000000000000000000000000000007bffffffffffffffffffffffffffffffffffffffffffffffffffffffff1916827bffffffffffffffffffffffffffffffffffffffffffffffffffffffff1916149050919050565b505050565b600073ffffffffffffffffffffffffffffffffffffffff168273ffffffffffffffffffffffffffffffffffffffff161415612fc5576040517f08c379a0000000000000000000000000000000000000000000000000000000008152600401612fbc90614c71565b60405180910390fd5b612fce81611d0b565b1561300e576040517f08c379a000000000000000000000000000000000000000000000000000000000815260040161300590614cdd565b60405180910390fd5b61301a60008383612cc4565b6001600360008473ffffffffffffffffffffffffffffffffffffffff1673ffffffffffffffffffffffffffffffffffffffff168152602001908152602001600020600082825461306a91906148c2565b92505081905550816002600083815260200190815260200160002060006101000a81548173ffffffffffffffffffffffffffffffffffffffff021916908373ffffffffffffffffffffffffffffffffffffffff160217905550808273ffffffffffffffffffffffffffffffffffffffff16600073ffffffffffffffffffffffffffffffffffffffff167fddf252ad1be2c89b69c2b068fc378daa952ba7f163c4a11628f55a4df523b3ef60405160405180910390a461312b60008383612cfe565b5050565b6000808273ffffffffffffffffffffffffffffffffffffffff163b119050919050565b82805461315e90613abe565b90600052602060002090601f01602090048101928261318057600085556131c7565b82601f1061319957803560ff19168380011785556131c7565b828001600101855582156131c7579182015b828111156131c65782358255916020019190600101906131ab565b5b5090506131d49190613200565b5090565b604051806101800160405280600c905b60608152602001906001900390816131e85790505090565b5b80821115613219576000816000905550600101613201565b5090565b6000604051905090565b600080fd5b600080fd5b60007fffffffff0000000000000000000000000000000000000000000000000000000082169050919050565b61326681613231565b811461327157600080fd5b50565b6000813590506132838161325d565b92915050565b60006020828403121561329f5761329e613227565b5b60006132ad84828501613274565b91505092915050565b60008115159050919050565b6132cb816132b6565b82525050565b60006020820190506132e660008301846132c2565b92915050565b600081519050919050565b600082825260208201905092915050565b60005b8381101561332657808201518184015260208101905061330b565b83811115613335576000848401525b50505050565b6000601f19601f8301169050919050565b6000613357826132ec565b61336181856132f7565b9350613371818560208601613308565b61337a8161333b565b840191505092915050565b6000602082019050818103600083015261339f818461334c565b905092915050565b6000819050919050565b6133ba816133a7565b81146133c557600080fd5b50565b6000813590506133d7816133b1565b92915050565b6000602082840312156133f3576133f2613227565b5b6000613401848285016133c8565b91505092915050565b600073ffffffffffffffffffffffffffffffffffffffff82169050919050565b60006134358261340a565b9050919050565b6134458161342a565b82525050565b6000602082019050613460600083018461343c565b92915050565b61346f8161342a565b811461347a57600080fd5b50565b60008135905061348c81613466565b92915050565b600080604083850312156134a9576134a8613227565b5b60006134b78582860161347d565b92505060206134c8858286016133c8565b9150509250929050565b600080604083850312156134e9576134e8613227565b5b60006134f7858286016133c8565b92505060206135088582860161347d565b9150509250929050565b61351b816133a7565b82525050565b60006020820190506135366000830184613512565b92915050565b60008060006060848603121561355557613554613227565b5b60006135638682870161347d565b93505060206135748682870161347d565b9250506040613585868287016133c8565b9150509250925092565b6000819050919050565b6135a28161358f565b81146135ad57600080fd5b50565b6000813590506135bf81613599565b92915050565b6000602082840312156135db576135da613227565b5b60006135e9848285016135b0565b91505092915050565b6135fb8161358f565b82525050565b600060208201905061361660008301846135f2565b92915050565b6000806040838503121561363357613632613227565b5b6000613641858286016135b0565b92505060206136528582860161347d565b9150509250929050565b600080fd5b600080fd5b600080fd5b60008083601f8401126136815761368061365c565b5b8235905067ffffffffffffffff81111561369e5761369d613661565b5b6020830191508360018202830111156136ba576136b9613666565b5b9250929050565b6000806000604084860312156136da576136d9613227565b5b60006136e8868287016133c8565b935050602084013567ffffffffffffffff8111156137095761370861322c565b5b6137158682870161366b565b92509250509250925092565b60006020828403121561373757613736613227565b5b60006137458482850161347d565b91505092915050565b600080600080600080600080600060e08a8c0312156137705761376f613227565b5b600061377e8c828d0161347d565b995050602061378f8c828d016133c8565b98505060406137a08c828d016133c8565b97505060606137b18c828d016133c8565b96505060806137c28c828d016133c8565b95505060a08a013567ffffffffffffffff8111156137e3576137e261322c565b5b6137ef8c828d0161366b565b945094505060c08a013567ffffffffffffffff8111156138125761381161322c565b5b61381e8c828d0161366b565b92509250509295985092959850929598565b613839816132b6565b811461384457600080fd5b50565b60008135905061385681613830565b92915050565b6000806040838503121561387357613872613227565b5b60006138818582860161347d565b925050602061389285828601613847565b9150509250929050565b600080fd5b7f4e487b7100000000000000000000000000000000000000000000000000000000600052604160045260246000fd5b6138d98261333b565b810181811067ffffffffffffffff821117156138f8576138f76138a1565b5b80604052505050565b600061390b61321d565b905061391782826138d0565b919050565b600067ffffffffffffffff821115613937576139366138a1565b5b6139408261333b565b9050602081019050919050565b82818337600083830152505050565b600061396f61396a8461391c565b613901565b90508281526020810184848401111561398b5761398a61389c565b5b61399684828561394d565b509392505050565b600082601f8301126139b3576139b261365c565b5b81356139c384826020860161395c565b91505092915050565b600080600080608085870312156139e6576139e5613227565b5b60006139f48782880161347d565b9450506020613a058782880161347d565b9350506040613a16878288016133c8565b925050606085013567ffffffffffffffff811115613a3757613a3661322c565b5b613a438782880161399e565b91505092959194509250565b60008060408385031215613a6657613a65613227565b5b6000613a748582860161347d565b9250506020613a858582860161347d565b9150509250929050565b7f4e487b7100000000000000000000000000000000000000000000000000000000600052602260045260246000fd5b60006002820490506001821680613ad657607f821691505b60208210811415613aea57613ae9613a8f565b5b50919050565b7f4552433732313a20617070726f76656420717565727920666f72206e6f6e657860008201527f697374656e7420746f6b656e0000000000000000000000000000000000000000602082015250565b6000613b4c602c836132f7565b9150613b5782613af0565b604082019050919050565b60006020820190508181036000830152613b7b81613b3f565b9050919050565b7f4552433732313a20617070726f76616c20746f2063757272656e74206f776e6560008201527f7200000000000000000000000000000000000000000000000000000000000000602082015250565b6000613bde6021836132f7565b9150613be982613b82565b604082019050919050565b60006020820190508181036000830152613c0d81613bd1565b9050919050565b7f4552433732313a20617070726f76652063616c6c6572206973206e6f74206f7760008201527f6e6572206e6f7220617070726f76656420666f7220616c6c0000000000000000602082015250565b6000613c706038836132f7565b9150613c7b82613c14565b604082019050919050565b60006020820190508181036000830152613c9f81613c63565b9050919050565b7f4552433732313a207472616e736665722063616c6c6572206973206e6f74206f60008201527f776e6572206e6f7220617070726f766564000000000000000000000000000000602082015250565b6000613d026031836132f7565b9150613d0d82613ca6565b604082019050919050565b60006020820190508181036000830152613d3181613cf5565b9050919050565b7f416363657373436f6e74726f6c3a2063616e206f6e6c792072656e6f756e636560008201527f20726f6c657320666f722073656c660000000000000000000000000000000000602082015250565b6000613d94602f836132f7565b9150613d9f82613d38565b604082019050919050565b60006020820190508181036000830152613dc381613d87565b9050919050565b7f4552433732313a206f776e657220717565727920666f72206e6f6e657869737460008201527f656e7420746f6b656e0000000000000000000000000000000000000000000000602082015250565b6000613e266029836132f7565b9150613e3182613dca565b604082019050919050565b60006020820190508181036000830152613e5581613e19565b9050919050565b7f4552433732313a2062616c616e636520717565727920666f7220746865207a6560008201527f726f206164647265737300000000000000000000000000000000000000000000602082015250565b6000613eb8602a836132f7565b9150613ec382613e5c565b604082019050919050565b60006020820190508181036000830152613ee781613eab565b9050919050565b7f4d454e543a20496e76616c696420696d61676544657363726970746f72000000600082015250565b6000613f24601d836132f7565b9150613f2f82613eee565b602082019050919050565b60006020820190508181036000830152613f5381613f17565b9050919050565b600081905092915050565b60008190508160005260206000209050919050565b60008154613f8781613abe565b613f918186613f5a565b94506001821660008114613fac5760018114613fbd57613ff0565b60ff19831686528186019350613ff0565b613fc685613f65565b60005b83811015613fe857815481890152600182019150602081019050613fc9565b838801955050505b50505092915050565b60006140058284613f7a565b915081905092915050565b7f4d454e543a204e6f6e6578697374616e7420526f6c6500000000000000000000600082015250565b60006140466016836132f7565b915061405182614010565b602082019050919050565b6000602082019050818103600083015261407581614039565b9050919050565b7f4e487b7100000000000000000000000000000000000000000000000000000000600052601160045260246000fd5b60006140b6826133a7565b91507fffffffffffffffffffffffffffffffffffffffffffffffffffffffffffffffff8214156140e9576140e861407c565b5b600182019050919050565b7f4d454e543a204e6f6e6578697374656e7420746f6b656e000000000000000000600082015250565b600061412a6017836132f7565b9150614135826140f4565b602082019050919050565b600060208201905081810360008301526141598161411d565b9050919050565b600060a0820190506141756000830188613512565b6141826020830187613512565b8181036040830152614194818661334c565b905081810360608301526141a8818561334c565b905081810360808301526141bc818461334c565b90509695505050505050565b600081519050919050565b600082825260208201905092915050565b60006141ef826141c8565b6141f981856141d3565b9350614209818560208601613308565b6142128161333b565b840191505092915050565b6000602082019050818103600083015261423781846141e4565b905092915050565b60008151905061424e81613830565b92915050565b600067ffffffffffffffff82111561426f5761426e6138a1565b5b6142788261333b565b9050602081019050919050565b600061429861429384614254565b613901565b9050828152602081018484840111156142b4576142b361389c565b5b6142bf848285613308565b509392505050565b600082601f8301126142dc576142db61365c565b5b81516142ec848260208601614285565b91505092915050565b6000806040838503121561430c5761430b613227565b5b600061431a8582860161423f565b925050602083015167ffffffffffffffff81111561433b5761433a61322c565b5b614347858286016142c7565b9150509250929050565b7f4e487b7100000000000000000000000000000000000000000000000000000000600052603260045260246000fd5b600081905092915050565b7f227d2c7b2274726169745f74797065223a224f74686572222c2276616c75652260008201527f3a22000000000000000000000000000000000000000000000000000000000000602082015250565b60006143e7602283614380565b91506143f28261438b565b602282019050919050565b6000614408826132ec565b6144128185614380565b9350614422818560208601613308565b80840191505092915050565b7f227d5d7d00000000000000000000000000000000000000000000000000000000600082015250565b6000614464600483614380565b915061446f8261442e565b600482019050919050565b6000614485826143da565b915061449182846143fd565b915061449c82614457565b915081905092915050565b60006144b3828b6143fd565b91506144bf828a6143fd565b91506144cb82896143fd565b91506144d782886143fd565b91506144e382876143fd565b91506144ef82866143fd565b91506144fb82856143fd565b915061450782846143fd565b91508190509998505050505050505050565b6000614525828c6143fd565b9150614531828b6143fd565b915061453d828a6143fd565b915061454982896143fd565b915061455582886143fd565b915061456182876143fd565b915061456d82866143fd565b915061457982856143fd565b915061458582846143fd565b91508190509a9950505050505050505050565b7f646174613a6170706c69636174696f6e2f6a736f6e3b6261736536342c000000600082015250565b60006145ce601d83614380565b91506145d982614598565b601d82019050919050565b60006145ef826145c1565b91506145fb82846143fd565b915081905092915050565b7f416363657373436f6e74726f6c3a206163636f756e7420000000000000000000600082015250565b600061463c601783614380565b915061464782614606565b601782019050919050565b7f206973206d697373696e6720726f6c6520000000000000000000000000000000600082015250565b6000614688601183614380565b915061469382614652565b601182019050919050565b60006146a98261462f565b91506146b582856143fd565b91506146c08261467b565b91506146cc82846143fd565b91508190509392505050565b7f4552433732313a206f70657261746f7220717565727920666f72206e6f6e657860008201527f697374656e7420746f6b656e0000000000000000000000000000000000000000602082015250565b6000614734602c836132f7565b915061473f826146d8565b604082019050919050565b6000602082019050818103600083015261476381614727565b9050919050565b7f4552433732313a207472616e736665722066726f6d20696e636f72726563742060008201527f6f776e6572000000000000000000000000000000000000000000000000000000602082015250565b60006147c66025836132f7565b91506147d18261476a565b604082019050919050565b600060208201905081810360008301526147f5816147b9565b9050919050565b7f4552433732313a207472616e7366657220746f20746865207a65726f2061646460008201527f7265737300000000000000000000000000000000000000000000000000000000602082015250565b60006148586024836132f7565b9150614863826147fc565b604082019050919050565b600060208201905081810360008301526148878161484b565b9050919050565b6000614899826133a7565b91506148a4836133a7565b9250828210156148b7576148b661407c565b5b828203905092915050565b60006148cd826133a7565b91506148d8836133a7565b9250827fffffffffffffffffffffffffffffffffffffffffffffffffffffffffffffffff0382111561490d5761490c61407c565b5b828201905092915050565b7f4552433732313a20617070726f766520746f2063616c6c657200000000000000600082015250565b600061494e6019836132f7565b915061495982614918565b602082019050919050565b6000602082019050818103600083015261497d81614941565b9050919050565b7f4552433732313a207472616e7366657220746f206e6f6e20455243373231526560008201527f63656976657220696d706c656d656e7465720000000000000000000000000000602082015250565b60006149e06032836132f7565b91506149eb82614984565b604082019050919050565b60006020820190508181036000830152614a0f816149d3565b9050919050565b7f4e487b7100000000000000000000000000000000000000000000000000000000600052601260045260246000fd5b6000614a50826133a7565b9150614a5b836133a7565b925082614a6b57614a6a614a16565b5b828204905092915050565b6000614a81826133a7565b9150614a8c836133a7565b925082614a9c57614a9b614a16565b5b828206905092915050565b6000614ab2826133a7565b9150614abd836133a7565b9250817fffffffffffffffffffffffffffffffffffffffffffffffffffffffffffffffff0483118215151615614af657614af561407c565b5b828202905092915050565b6000614b0c826133a7565b91506000821415614b2057614b1f61407c565b5b600182039050919050565b7f537472696e67733a20686578206c656e67746820696e73756666696369656e74600082015250565b6000614b616020836132f7565b9150614b6c82614b2b565b602082019050919050565b60006020820190508181036000830152614b9081614b54565b9050919050565b6000608082019050614bac600083018761343c565b614bb9602083018661343c565b614bc66040830185613512565b8181036060830152614bd881846141e4565b905095945050505050565b600081519050614bf28161325d565b92915050565b600060208284031215614c0e57614c0d613227565b5b6000614c1c84828501614be3565b91505092915050565b7f4552433732313a206d696e7420746f20746865207a65726f2061646472657373600082015250565b6000614c5b6020836132f7565b9150614c6682614c25565b602082019050919050565b60006020820190508181036000830152614c8a81614c4e565b9050919050565b7f4552433732313a20746f6b656e20616c7265616479206d696e74656400000000600082015250565b6000614cc7601c836132f7565b9150614cd282614c91565b602082019050919050565b60006020820190508181036000830152614cf681614cba565b905091905056fe7b226465736372697074696f6e223a20224d656e746f72736869702050726f6772616d6d65204e465473222c22696d6167654142434445464748494a4b4c4d4e4f505152535455565758595a6162636465666768696a6b6c6d6e6f707172737475767778797a303132333435363738392b2f227d2c7b2274726169745f74797065223a2248616e646c65222c2276616c7565223a22227d2c7b2274726169745f74797065223a22536561736f6e222c2276616c7565223a22222c202261747472696275746573223a5b7b2274726169745f74797065223a2259656172222c2276616c7565223a22227d2c7b2274726169745f74797065223a22526f6c65222c2276616c7565223a22a26469706673582212209cc53bc1ac971f0a945a760e3a68844b39859111c5458e7249987a054046778564736f6c634300080b0033","opcodes":"PUSH1 0x80 PUSH1 0x40 MSTORE PUSH1 0x0 PUSH1 0x7 SSTORE CALLVALUE DUP1 ISZERO PUSH3 0x16 JUMPI PUSH1 0x0 DUP1 REVERT JUMPDEST POP PUSH1 0x40 MLOAD DUP1 PUSH1 0x40 ADD PUSH1 0x40 MSTORE DUP1 PUSH1 0x14 DUP2 MSTORE PUSH1 0x20 ADD PUSH32 0x4D656E746F72736869702050726F6772616D6D65000000000000000000000000 DUP2 MSTORE POP PUSH1 0x40 MLOAD DUP1 PUSH1 0x40 ADD PUSH1 0x40 MSTORE DUP1 PUSH1 0x4 DUP2 MSTORE PUSH1 0x20 ADD PUSH32 0x4D454E5400000000000000000000000000000000000000000000000000000000 DUP2 MSTORE POP DUP2 PUSH1 0x0 SWAP1 DUP1 MLOAD SWAP1 PUSH1 0x20 ADD SWAP1 PUSH3 0x9B SWAP3 SWAP2 SWAP1 PUSH3 0x388 JUMP JUMPDEST POP DUP1 PUSH1 0x1 SWAP1 DUP1 MLOAD SWAP1 PUSH1 0x20 ADD SWAP1 PUSH3 0xB4 SWAP3 SWAP2 SWAP1 PUSH3 0x388 JUMP JUMPDEST POP POP POP PUSH3 0xCC PUSH1 0x0 DUP1 SHL CALLER PUSH3 0x223 PUSH1 0x20 SHL PUSH1 0x20 SHR JUMP JUMPDEST PUSH3 0xFE PUSH32 0x9F2DF0FED2C77648DE5860A4CC508CD0818C85B8B8A1AB4CEEEF8D981C8956A6 CALLER PUSH3 0x223 PUSH1 0x20 SHL PUSH1 0x20 SHR JUMP JUMPDEST PUSH1 0x40 MLOAD DUP1 PUSH1 0x40 ADD PUSH1 0x40 MSTORE DUP1 PUSH1 0x6 DUP2 MSTORE PUSH1 0x20 ADD PUSH32 0x6D656E7465650000000000000000000000000000000000000000000000000000 DUP2 MSTORE POP PUSH1 0x8 PUSH1 0x0 DUP1 DUP2 MSTORE PUSH1 0x20 ADD SWAP1 DUP2 MSTORE PUSH1 0x20 ADD PUSH1 0x0 KECCAK256 SWAP1 DUP1 MLOAD SWAP1 PUSH1 0x20 ADD SWAP1 PUSH3 0x15C SWAP3 SWAP2 SWAP1 PUSH3 0x388 JUMP JUMPDEST POP PUSH1 0x40 MLOAD DUP1 PUSH1 0x40 ADD PUSH1 0x40 MSTORE DUP1 PUSH1 0x6 DUP2 MSTORE PUSH1 0x20 ADD PUSH32 0x6D656E746F720000000000000000000000000000000000000000000000000000 DUP2 MSTORE POP PUSH1 0x8 PUSH1 0x0 PUSH1 0x1 DUP2 MSTORE PUSH1 0x20 ADD SWAP1 DUP2 MSTORE PUSH1 0x20 ADD PUSH1 0x0 KECCAK256 SWAP1 DUP1 MLOAD SWAP1 PUSH1 0x20 ADD SWAP1 PUSH3 0x1BC SWAP3 SWAP2 SWAP1 PUSH3 0x388 JUMP JUMPDEST POP PUSH1 0x40 MLOAD DUP1 PUSH1 0x40 ADD PUSH1 0x40 MSTORE DUP1 PUSH1 0x4 DUP2 MSTORE PUSH1 0x20 ADD PUSH32 0x7465616D00000000000000000000000000000000000000000000000000000000 DUP2 MSTORE POP PUSH1 0x8 PUSH1 0x0 PUSH1 0x2 DUP2 MSTORE PUSH1 0x20 ADD SWAP1 DUP2 MSTORE PUSH1 0x20 ADD PUSH1 0x0 KECCAK256 SWAP1 DUP1 MLOAD SWAP1 PUSH1 0x20 ADD SWAP1 PUSH3 0x21C SWAP3 SWAP2 SWAP1 PUSH3 0x388 JUMP JUMPDEST POP PUSH3 0x49D JUMP JUMPDEST PUSH3 0x235 DUP3 DUP3 PUSH3 0x315 PUSH1 0x20 SHL PUSH1 0x20 SHR JUMP JUMPDEST PUSH3 0x311 JUMPI PUSH1 0x1 PUSH1 0x6 PUSH1 0x0 DUP5 DUP2 MSTORE PUSH1 0x20 ADD SWAP1 DUP2 MSTORE PUSH1 0x20 ADD PUSH1 0x0 KECCAK256 PUSH1 0x0 ADD PUSH1 0x0 DUP4 PUSH20 0xFFFFFFFFFFFFFFFFFFFFFFFFFFFFFFFFFFFFFFFF AND PUSH20 0xFFFFFFFFFFFFFFFFFFFFFFFFFFFFFFFFFFFFFFFF AND DUP2 MSTORE PUSH1 0x20 ADD SWAP1 DUP2 MSTORE PUSH1 0x20 ADD PUSH1 0x0 KECCAK256 PUSH1 0x0 PUSH2 0x100 EXP DUP2 SLOAD DUP2 PUSH1 0xFF MUL NOT AND SWAP1 DUP4 ISZERO ISZERO MUL OR SWAP1 SSTORE POP PUSH3 0x2B6 PUSH3 0x380 PUSH1 0x20 SHL PUSH1 0x20 SHR JUMP JUMPDEST PUSH20 0xFFFFFFFFFFFFFFFFFFFFFFFFFFFFFFFFFFFFFFFF AND DUP2 PUSH20 0xFFFFFFFFFFFFFFFFFFFFFFFFFFFFFFFFFFFFFFFF AND DUP4 PUSH32 0x2F8788117E7EFF1D82E926EC794901D17C78024A50270940304540A733656F0D PUSH1 0x40 MLOAD PUSH1 0x40 MLOAD DUP1 SWAP2 SUB SWAP1 LOG4 JUMPDEST POP POP JUMP JUMPDEST PUSH1 0x0 PUSH1 0x6 PUSH1 0x0 DUP5 DUP2 MSTORE PUSH1 0x20 ADD SWAP1 DUP2 MSTORE PUSH1 0x20 ADD PUSH1 0x0 KECCAK256 PUSH1 0x0 ADD PUSH1 0x0 DUP4 PUSH20 0xFFFFFFFFFFFFFFFFFFFFFFFFFFFFFFFFFFFFFFFF AND PUSH20 0xFFFFFFFFFFFFFFFFFFFFFFFFFFFFFFFFFFFFFFFF AND DUP2 MSTORE PUSH1 0x20 ADD SWAP1 DUP2 MSTORE PUSH1 0x20 ADD PUSH1 0x0 KECCAK256 PUSH1 0x0 SWAP1 SLOAD SWAP1 PUSH2 0x100 EXP SWAP1 DIV PUSH1 0xFF AND SWAP1 POP SWAP3 SWAP2 POP POP JUMP JUMPDEST PUSH1 0x0 CALLER SWAP1 POP SWAP1 JUMP JUMPDEST DUP3 DUP1 SLOAD PUSH3 0x396 SWAP1 PUSH3 0x467 JUMP JUMPDEST SWAP1 PUSH1 0x0 MSTORE PUSH1 0x20 PUSH1 0x0 KECCAK256 SWAP1 PUSH1 0x1F ADD PUSH1 0x20 SWAP1 DIV DUP2 ADD SWAP3 DUP3 PUSH3 0x3BA JUMPI PUSH1 0x0 DUP6 SSTORE PUSH3 0x406 JUMP JUMPDEST DUP3 PUSH1 0x1F LT PUSH3 0x3D5 JUMPI DUP1 MLOAD PUSH1 0xFF NOT AND DUP4 DUP1 ADD OR DUP6 SSTORE PUSH3 0x406 JUMP JUMPDEST DUP3 DUP1 ADD PUSH1 0x1 ADD DUP6 SSTORE DUP3 ISZERO PUSH3 0x406 JUMPI SWAP2 DUP3 ADD JUMPDEST DUP3 DUP2 GT ISZERO PUSH3 0x405 JUMPI DUP3 MLOAD DUP3 SSTORE SWAP2 PUSH1 0x20 ADD SWAP2 SWAP1 PUSH1 0x1 ADD SWAP1 PUSH3 0x3E8 JUMP JUMPDEST JUMPDEST POP SWAP1 POP PUSH3 0x415 SWAP2 SWAP1 PUSH3 0x419 JUMP JUMPDEST POP SWAP1 JUMP JUMPDEST JUMPDEST DUP1 DUP3 GT ISZERO PUSH3 0x434 JUMPI PUSH1 0x0 DUP2 PUSH1 0x0 SWAP1 SSTORE POP PUSH1 0x1 ADD PUSH3 0x41A JUMP JUMPDEST POP SWAP1 JUMP JUMPDEST PUSH32 0x4E487B7100000000000000000000000000000000000000000000000000000000 PUSH1 0x0 MSTORE PUSH1 0x22 PUSH1 0x4 MSTORE PUSH1 0x24 PUSH1 0x0 REVERT JUMPDEST PUSH1 0x0 PUSH1 0x2 DUP3 DIV SWAP1 POP PUSH1 0x1 DUP3 AND DUP1 PUSH3 0x480 JUMPI PUSH1 0x7F DUP3 AND SWAP2 POP JUMPDEST PUSH1 0x20 DUP3 LT DUP2 EQ ISZERO PUSH3 0x497 JUMPI PUSH3 0x496 PUSH3 0x438 JUMP JUMPDEST JUMPDEST POP SWAP2 SWAP1 POP JUMP JUMPDEST PUSH2 0x4E3B DUP1 PUSH3 0x4AD PUSH1 0x0 CODECOPY PUSH1 0x0 RETURN INVALID PUSH1 0x80 PUSH1 0x40 MSTORE CALLVALUE DUP1 ISZERO PUSH2 0x10 JUMPI PUSH1 0x0 DUP1 REVERT JUMPDEST POP PUSH1 0x4 CALLDATASIZE LT PUSH2 0x1FB JUMPI PUSH1 0x0 CALLDATALOAD PUSH1 0xE0 SHR DUP1 PUSH4 0x6352211E GT PUSH2 0x11A JUMPI DUP1 PUSH4 0xA22CB465 GT PUSH2 0xAD JUMPI DUP1 PUSH4 0xC87B56DD GT PUSH2 0x7C JUMPI DUP1 PUSH4 0xC87B56DD EQ PUSH2 0x61C JUMPI DUP1 PUSH4 0xD5391393 EQ PUSH2 0x64C JUMPI DUP1 PUSH4 0xD547741F EQ PUSH2 0x66A JUMPI DUP1 PUSH4 0xE985E9C5 EQ PUSH2 0x686 JUMPI DUP1 PUSH4 0xEB50637A EQ PUSH2 0x6B6 JUMPI PUSH2 0x1FB JUMP JUMPDEST DUP1 PUSH4 0xA22CB465 EQ PUSH2 0x584 JUMPI DUP1 PUSH4 0xB88D4FDE EQ PUSH2 0x5A0 JUMPI DUP1 PUSH4 0xBFDA4A49 EQ PUSH2 0x5BC JUMPI DUP1 PUSH4 0xC2459C89 EQ PUSH2 0x5EC JUMPI PUSH2 0x1FB JUMP JUMPDEST DUP1 PUSH4 0x8371B1C5 GT PUSH2 0xE9 JUMPI DUP1 PUSH4 0x8371B1C5 EQ PUSH2 0x4E8 JUMPI DUP1 PUSH4 0x91D14854 EQ PUSH2 0x518 JUMPI DUP1 PUSH4 0x95D89B41 EQ PUSH2 0x548 JUMPI DUP1 PUSH4 0xA217FDDF EQ PUSH2 0x566 JUMPI PUSH2 0x1FB JUMP JUMPDEST DUP1 PUSH4 0x6352211E EQ PUSH2 0x43C JUMPI DUP1 PUSH4 0x6B2F8BFA EQ PUSH2 0x46C JUMPI DUP1 PUSH4 0x70A08231 EQ PUSH2 0x49C JUMPI DUP1 PUSH4 0x790494BE EQ PUSH2 0x4CC JUMPI PUSH2 0x1FB JUMP JUMPDEST DUP1 PUSH4 0x248A9CA3 GT PUSH2 0x192 JUMPI DUP1 PUSH4 0x42842E0E GT PUSH2 0x161 JUMPI DUP1 PUSH4 0x42842E0E EQ PUSH2 0x3B8 JUMPI DUP1 PUSH4 0x42966C68 EQ PUSH2 0x3D4 JUMPI DUP1 PUSH4 0x54D840B4 EQ PUSH2 0x3F0 JUMPI DUP1 PUSH4 0x57AF7C45 EQ PUSH2 0x420 JUMPI PUSH2 0x1FB JUMP JUMPDEST DUP1 PUSH4 0x248A9CA3 EQ PUSH2 0x320 JUMPI DUP1 PUSH4 0x2F2FF15D EQ PUSH2 0x350 JUMPI DUP1 PUSH4 0x36568ABE EQ PUSH2 0x36C JUMPI DUP1 PUSH4 0x369984D6 EQ PUSH2 0x388 JUMPI PUSH2 0x1FB JUMP JUMPDEST DUP1 PUSH4 0x173F1E36 GT PUSH2 0x1CE JUMPI DUP1 PUSH4 0x173F1E36 EQ PUSH2 0x29A JUMPI DUP1 PUSH4 0x18160DDD EQ PUSH2 0x2B6 JUMPI DUP1 PUSH4 0x21D0A2A0 EQ PUSH2 0x2D4 JUMPI DUP1 PUSH4 0x23B872DD EQ PUSH2 0x304 JUMPI PUSH2 0x1FB JUMP JUMPDEST DUP1 PUSH4 0x1FFC9A7 EQ PUSH2 0x200 JUMPI DUP1 PUSH4 0x6FDDE03 EQ PUSH2 0x230 JUMPI DUP1 PUSH4 0x81812FC EQ PUSH2 0x24E JUMPI DUP1 PUSH4 0x95EA7B3 EQ PUSH2 0x27E JUMPI JUMPDEST PUSH1 0x0 DUP1 REVERT JUMPDEST PUSH2 0x21A PUSH1 0x4 DUP1 CALLDATASIZE SUB DUP2 ADD SWAP1 PUSH2 0x215 SWAP2 SWAP1 PUSH2 0x3289 JUMP JUMPDEST PUSH2 0x6E6 JUMP JUMPDEST PUSH1 0x40 MLOAD PUSH2 0x227 SWAP2 SWAP1 PUSH2 0x32D1 JUMP JUMPDEST PUSH1 0x40 MLOAD DUP1 SWAP2 SUB SWAP1 RETURN JUMPDEST PUSH2 0x238 PUSH2 0x6F8 JUMP JUMPDEST PUSH1 0x40 MLOAD PUSH2 0x245 SWAP2 SWAP1 PUSH2 0x3385 JUMP JUMPDEST PUSH1 0x40 MLOAD DUP1 SWAP2 SUB SWAP1 RETURN JUMPDEST PUSH2 0x268 PUSH1 0x4 DUP1 CALLDATASIZE SUB DUP2 ADD SWAP1 PUSH2 0x263 SWAP2 SWAP1 PUSH2 0x33DD JUMP JUMPDEST PUSH2 0x78A JUMP JUMPDEST PUSH1 0x40 MLOAD PUSH2 0x275 SWAP2 SWAP1 PUSH2 0x344B JUMP JUMPDEST PUSH1 0x40 MLOAD DUP1 SWAP2 SUB SWAP1 RETURN JUMPDEST PUSH2 0x298 PUSH1 0x4 DUP1 CALLDATASIZE SUB DUP2 ADD SWAP1 PUSH2 0x293 SWAP2 SWAP1 PUSH2 0x3492 JUMP JUMPDEST PUSH2 0x80F JUMP JUMPDEST STOP JUMPDEST PUSH2 0x2B4 PUSH1 0x4 DUP1 CALLDATASIZE SUB DUP2 ADD SWAP1 PUSH2 0x2AF SWAP2 SWAP1 PUSH2 0x34D2 JUMP JUMPDEST PUSH2 0x927 JUMP JUMPDEST STOP JUMPDEST PUSH2 0x2BE PUSH2 0x9B0 JUMP JUMPDEST PUSH1 0x40 MLOAD PUSH2 0x2CB SWAP2 SWAP1 PUSH2 0x3521 JUMP JUMPDEST PUSH1 0x40 MLOAD DUP1 SWAP2 SUB SWAP1 RETURN JUMPDEST PUSH2 0x2EE PUSH1 0x4 DUP1 CALLDATASIZE SUB DUP2 ADD SWAP1 PUSH2 0x2E9 SWAP2 SWAP1 PUSH2 0x33DD JUMP JUMPDEST PUSH2 0x9B6 JUMP JUMPDEST PUSH1 0x40 MLOAD PUSH2 0x2FB SWAP2 SWAP1 PUSH2 0x3521 JUMP JUMPDEST PUSH1 0x40 MLOAD DUP1 SWAP2 SUB SWAP1 RETURN JUMPDEST PUSH2 0x31E PUSH1 0x4 DUP1 CALLDATASIZE SUB DUP2 ADD SWAP1 PUSH2 0x319 SWAP2 SWAP1 PUSH2 0x353C JUMP JUMPDEST PUSH2 0x9CE JUMP JUMPDEST STOP JUMPDEST PUSH2 0x33A PUSH1 0x4 DUP1 CALLDATASIZE SUB DUP2 ADD SWAP1 PUSH2 0x335 SWAP2 SWAP1 PUSH2 0x35C5 JUMP JUMPDEST PUSH2 0xA2E JUMP JUMPDEST PUSH1 0x40 MLOAD PUSH2 0x347 SWAP2 SWAP1 PUSH2 0x3601 JUMP JUMPDEST PUSH1 0x40 MLOAD DUP1 SWAP2 SUB SWAP1 RETURN JUMPDEST PUSH2 0x36A PUSH1 0x4 DUP1 CALLDATASIZE SUB DUP2 ADD SWAP1 PUSH2 0x365 SWAP2 SWAP1 PUSH2 0x361C JUMP JUMPDEST PUSH2 0xA4E JUMP JUMPDEST STOP JUMPDEST PUSH2 0x386 PUSH1 0x4 DUP1 CALLDATASIZE SUB DUP2 ADD SWAP1 PUSH2 0x381 SWAP2 SWAP1 PUSH2 0x361C JUMP JUMPDEST PUSH2 0xA77 JUMP JUMPDEST STOP JUMPDEST PUSH2 0x3A2 PUSH1 0x4 DUP1 CALLDATASIZE SUB DUP2 ADD SWAP1 PUSH2 0x39D SWAP2 SWAP1 PUSH2 0x33DD JUMP JUMPDEST PUSH2 0xAFA JUMP JUMPDEST PUSH1 0x40 MLOAD PUSH2 0x3AF SWAP2 SWAP1 PUSH2 0x3385 JUMP JUMPDEST PUSH1 0x40 MLOAD DUP1 SWAP2 SUB SWAP1 RETURN JUMPDEST PUSH2 0x3D2 PUSH1 0x4 DUP1 CALLDATASIZE SUB DUP2 ADD SWAP1 PUSH2 0x3CD SWAP2 SWAP1 PUSH2 0x353C JUMP JUMPDEST PUSH2 0xB9A JUMP JUMPDEST STOP JUMPDEST PUSH2 0x3EE PUSH1 0x4 DUP1 CALLDATASIZE SUB DUP2 ADD SWAP1 PUSH2 0x3E9 SWAP2 SWAP1 PUSH2 0x33DD JUMP JUMPDEST PUSH2 0xBBA JUMP JUMPDEST STOP JUMPDEST PUSH2 0x40A PUSH1 0x4 DUP1 CALLDATASIZE SUB DUP2 ADD SWAP1 PUSH2 0x405 SWAP2 SWAP1 PUSH2 0x33DD JUMP JUMPDEST PUSH2 0xBF9 JUMP JUMPDEST PUSH1 0x40 MLOAD PUSH2 0x417 SWAP2 SWAP1 PUSH2 0x3385 JUMP JUMPDEST PUSH1 0x40 MLOAD DUP1 SWAP2 SUB SWAP1 RETURN JUMPDEST PUSH2 0x43A PUSH1 0x4 DUP1 CALLDATASIZE SUB DUP2 ADD SWAP1 PUSH2 0x435 SWAP2 SWAP1 PUSH2 0x36C1 JUMP JUMPDEST PUSH2 0xC99 JUMP JUMPDEST STOP JUMPDEST PUSH2 0x456 PUSH1 0x4 DUP1 CALLDATASIZE SUB DUP2 ADD SWAP1 PUSH2 0x451 SWAP2 SWAP1 PUSH2 0x33DD JUMP JUMPDEST PUSH2 0xCF4 JUMP JUMPDEST PUSH1 0x40 MLOAD PUSH2 0x463 SWAP2 SWAP1 PUSH2 0x344B JUMP JUMPDEST PUSH1 0x40 MLOAD DUP1 SWAP2 SUB SWAP1 RETURN JUMPDEST PUSH2 0x486 PUSH1 0x4 DUP1 CALLDATASIZE SUB DUP2 ADD SWAP1 PUSH2 0x481 SWAP2 SWAP1 PUSH2 0x33DD JUMP JUMPDEST PUSH2 0xDA6 JUMP JUMPDEST PUSH1 0x40 MLOAD PUSH2 0x493 SWAP2 SWAP1 PUSH2 0x344B JUMP JUMPDEST PUSH1 0x40 MLOAD DUP1 SWAP2 SUB SWAP1 RETURN JUMPDEST PUSH2 0x4B6 PUSH1 0x4 DUP1 CALLDATASIZE SUB DUP2 ADD SWAP1 PUSH2 0x4B1 SWAP2 SWAP1 PUSH2 0x3721 JUMP JUMPDEST PUSH2 0xDD9 JUMP JUMPDEST PUSH1 0x40 MLOAD PUSH2 0x4C3 SWAP2 SWAP1 PUSH2 0x3521 JUMP JUMPDEST PUSH1 0x40 MLOAD DUP1 SWAP2 SUB SWAP1 RETURN JUMPDEST PUSH2 0x4E6 PUSH1 0x4 DUP1 CALLDATASIZE SUB DUP2 ADD SWAP1 PUSH2 0x4E1 SWAP2 SWAP1 PUSH2 0x374E JUMP JUMPDEST PUSH2 0xE91 JUMP JUMPDEST STOP JUMPDEST PUSH2 0x502 PUSH1 0x4 DUP1 CALLDATASIZE SUB DUP2 ADD SWAP1 PUSH2 0x4FD SWAP2 SWAP1 PUSH2 0x33DD JUMP JUMPDEST PUSH2 0x10C8 JUMP JUMPDEST PUSH1 0x40 MLOAD PUSH2 0x50F SWAP2 SWAP1 PUSH2 0x3521 JUMP JUMPDEST PUSH1 0x40 MLOAD DUP1 SWAP2 SUB SWAP1 RETURN JUMPDEST PUSH2 0x532 PUSH1 0x4 DUP1 CALLDATASIZE SUB DUP2 ADD SWAP1 PUSH2 0x52D SWAP2 SWAP1 PUSH2 0x361C JUMP JUMPDEST PUSH2 0x10E0 JUMP JUMPDEST PUSH1 0x40 MLOAD PUSH2 0x53F SWAP2 SWAP1 PUSH2 0x32D1 JUMP JUMPDEST PUSH1 0x40 MLOAD DUP1 SWAP2 SUB SWAP1 RETURN JUMPDEST PUSH2 0x550 PUSH2 0x114B JUMP JUMPDEST PUSH1 0x40 MLOAD PUSH2 0x55D SWAP2 SWAP1 PUSH2 0x3385 JUMP JUMPDEST PUSH1 0x40 MLOAD DUP1 SWAP2 SUB SWAP1 RETURN JUMPDEST PUSH2 0x56E PUSH2 0x11DD JUMP JUMPDEST PUSH1 0x40 MLOAD PUSH2 0x57B SWAP2 SWAP1 PUSH2 0x3601 JUMP JUMPDEST PUSH1 0x40 MLOAD DUP1 SWAP2 SUB SWAP1 RETURN JUMPDEST PUSH2 0x59E PUSH1 0x4 DUP1 CALLDATASIZE SUB DUP2 ADD SWAP1 PUSH2 0x599 SWAP2 SWAP1 PUSH2 0x385C JUMP JUMPDEST PUSH2 0x11E4 JUMP JUMPDEST STOP JUMPDEST PUSH2 0x5BA PUSH1 0x4 DUP1 CALLDATASIZE SUB DUP2 ADD SWAP1 PUSH2 0x5B5 SWAP2 SWAP1 PUSH2 0x39CC JUMP JUMPDEST PUSH2 0x11FA JUMP JUMPDEST STOP JUMPDEST PUSH2 0x5D6 PUSH1 0x4 DUP1 CALLDATASIZE SUB DUP2 ADD SWAP1 PUSH2 0x5D1 SWAP2 SWAP1 PUSH2 0x33DD JUMP JUMPDEST PUSH2 0x125C JUMP JUMPDEST PUSH1 0x40 MLOAD PUSH2 0x5E3 SWAP2 SWAP1 PUSH2 0x3385 JUMP JUMPDEST PUSH1 0x40 MLOAD DUP1 SWAP2 SUB SWAP1 RETURN JUMPDEST PUSH2 0x606 PUSH1 0x4 DUP1 CALLDATASIZE SUB DUP2 ADD SWAP1 PUSH2 0x601 SWAP2 SWAP1 PUSH2 0x33DD JUMP JUMPDEST PUSH2 0x12FC JUMP JUMPDEST PUSH1 0x40 MLOAD PUSH2 0x613 SWAP2 SWAP1 PUSH2 0x3521 JUMP JUMPDEST PUSH1 0x40 MLOAD DUP1 SWAP2 SUB SWAP1 RETURN JUMPDEST PUSH2 0x636 PUSH1 0x4 DUP1 CALLDATASIZE SUB DUP2 ADD SWAP1 PUSH2 0x631 SWAP2 SWAP1 PUSH2 0x33DD JUMP JUMPDEST PUSH2 0x1314 JUMP JUMPDEST PUSH1 0x40 MLOAD PUSH2 0x643 SWAP2 SWAP1 PUSH2 0x3385 JUMP JUMPDEST PUSH1 0x40 MLOAD DUP1 SWAP2 SUB SWAP1 RETURN JUMPDEST PUSH2 0x654 PUSH2 0x1B98 JUMP JUMPDEST PUSH1 0x40 MLOAD PUSH2 0x661 SWAP2 SWAP1 PUSH2 0x3601 JUMP JUMPDEST PUSH1 0x40 MLOAD DUP1 SWAP2 SUB SWAP1 RETURN JUMPDEST PUSH2 0x684 PUSH1 0x4 DUP1 CALLDATASIZE SUB DUP2 ADD SWAP1 PUSH2 0x67F SWAP2 SWAP1 PUSH2 0x361C JUMP JUMPDEST PUSH2 0x1BBC JUMP JUMPDEST STOP JUMPDEST PUSH2 0x6A0 PUSH1 0x4 DUP1 CALLDATASIZE SUB DUP2 ADD SWAP1 PUSH2 0x69B SWAP2 SWAP1 PUSH2 0x3A4F JUMP JUMPDEST PUSH2 0x1BE5 JUMP JUMPDEST PUSH1 0x40 MLOAD PUSH2 0x6AD SWAP2 SWAP1 PUSH2 0x32D1 JUMP JUMPDEST PUSH1 0x40 MLOAD DUP1 SWAP2 SUB SWAP1 RETURN JUMPDEST PUSH2 0x6D0 PUSH1 0x4 DUP1 CALLDATASIZE SUB DUP2 ADD SWAP1 PUSH2 0x6CB SWAP2 SWAP1 PUSH2 0x33DD JUMP JUMPDEST PUSH2 0x1C79 JUMP JUMPDEST PUSH1 0x40 MLOAD PUSH2 0x6DD SWAP2 SWAP1 PUSH2 0x3521 JUMP JUMPDEST PUSH1 0x40 MLOAD DUP1 SWAP2 SUB SWAP1 RETURN JUMPDEST PUSH1 0x0 PUSH2 0x6F1 DUP3 PUSH2 0x1C91 JUMP JUMPDEST SWAP1 POP SWAP2 SWAP1 POP JUMP JUMPDEST PUSH1 0x60 PUSH1 0x0 DUP1 SLOAD PUSH2 0x707 SWAP1 PUSH2 0x3ABE JUMP JUMPDEST DUP1 PUSH1 0x1F ADD PUSH1 0x20 DUP1 SWAP2 DIV MUL PUSH1 0x20 ADD PUSH1 0x40 MLOAD SWAP1 DUP2 ADD PUSH1 0x40 MSTORE DUP1 SWAP3 SWAP2 SWAP1 DUP2 DUP2 MSTORE PUSH1 0x20 ADD DUP3 DUP1 SLOAD PUSH2 0x733 SWAP1 PUSH2 0x3ABE JUMP JUMPDEST DUP1 ISZERO PUSH2 0x780 JUMPI DUP1 PUSH1 0x1F LT PUSH2 0x755 JUMPI PUSH2 0x100 DUP1 DUP4 SLOAD DIV MUL DUP4 MSTORE SWAP2 PUSH1 0x20 ADD SWAP2 PUSH2 0x780 JUMP JUMPDEST DUP3 ADD SWAP2 SWAP1 PUSH1 0x0 MSTORE PUSH1 0x20 PUSH1 0x0 KECCAK256 SWAP1 JUMPDEST DUP2 SLOAD DUP2 MSTORE SWAP1 PUSH1 0x1 ADD SWAP1 PUSH1 0x20 ADD DUP1 DUP4 GT PUSH2 0x763 JUMPI DUP3 SWAP1 SUB PUSH1 0x1F AND DUP3 ADD SWAP2 JUMPDEST POP POP POP POP POP SWAP1 POP SWAP1 JUMP JUMPDEST PUSH1 0x0 PUSH2 0x795 DUP3 PUSH2 0x1D0B JUMP JUMPDEST PUSH2 0x7D4 JUMPI PUSH1 0x40 MLOAD PUSH32 0x8C379A000000000000000000000000000000000000000000000000000000000 DUP2 MSTORE PUSH1 0x4 ADD PUSH2 0x7CB SWAP1 PUSH2 0x3B62 JUMP JUMPDEST PUSH1 0x40 MLOAD DUP1 SWAP2 SUB SWAP1 REVERT JUMPDEST PUSH1 0x4 PUSH1 0x0 DUP4 DUP2 MSTORE PUSH1 0x20 ADD SWAP1 DUP2 MSTORE PUSH1 0x20 ADD PUSH1 0x0 KECCAK256 PUSH1 0x0 SWAP1 SLOAD SWAP1 PUSH2 0x100 EXP SWAP1 DIV PUSH20 0xFFFFFFFFFFFFFFFFFFFFFFFFFFFFFFFFFFFFFFFF AND SWAP1 POP SWAP2 SWAP1 POP JUMP JUMPDEST PUSH1 0x0 PUSH2 0x81A DUP3 PUSH2 0xCF4 JUMP JUMPDEST SWAP1 POP DUP1 PUSH20 0xFFFFFFFFFFFFFFFFFFFFFFFFFFFFFFFFFFFFFFFF AND DUP4 PUSH20 0xFFFFFFFFFFFFFFFFFFFFFFFFFFFFFFFFFFFFFFFF AND EQ ISZERO PUSH2 0x88B JUMPI PUSH1 0x40 MLOAD PUSH32 0x8C379A000000000000000000000000000000000000000000000000000000000 DUP2 MSTORE PUSH1 0x4 ADD PUSH2 0x882 SWAP1 PUSH2 0x3BF4 JUMP JUMPDEST PUSH1 0x40 MLOAD DUP1 SWAP2 SUB SWAP1 REVERT JUMPDEST DUP1 PUSH20 0xFFFFFFFFFFFFFFFFFFFFFFFFFFFFFFFFFFFFFFFF AND PUSH2 0x8AA PUSH2 0x1D77 JUMP JUMPDEST PUSH20 0xFFFFFFFFFFFFFFFFFFFFFFFFFFFFFFFFFFFFFFFF AND EQ DUP1 PUSH2 0x8D9 JUMPI POP PUSH2 0x8D8 DUP2 PUSH2 0x8D3 PUSH2 0x1D77 JUMP JUMPDEST PUSH2 0x1BE5 JUMP JUMPDEST JUMPDEST PUSH2 0x918 JUMPI PUSH1 0x40 MLOAD PUSH32 0x8C379A000000000000000000000000000000000000000000000000000000000 DUP2 MSTORE PUSH1 0x4 ADD PUSH2 0x90F SWAP1 PUSH2 0x3C86 JUMP JUMPDEST PUSH1 0x40 MLOAD DUP1 SWAP2 SUB SWAP1 REVERT JUMPDEST PUSH2 0x922 DUP4 DUP4 PUSH2 0x1D7F JUMP JUMPDEST POP POP POP JUMP JUMPDEST PUSH32 0x9F2DF0FED2C77648DE5860A4CC508CD0818C85B8B8A1AB4CEEEF8D981C8956A6 PUSH2 0x959 DUP2 PUSH2 0x954 PUSH2 0x1D77 JUMP JUMPDEST PUSH2 0x1E38 JUMP JUMPDEST DUP2 PUSH1 0x9 PUSH1 0x0 DUP6 DUP2 MSTORE PUSH1 0x20 ADD SWAP1 DUP2 MSTORE PUSH1 0x20 ADD PUSH1 0x0 KECCAK256 PUSH1 0x0 PUSH2 0x100 EXP DUP2 SLOAD DUP2 PUSH20 0xFFFFFFFFFFFFFFFFFFFFFFFFFFFFFFFFFFFFFFFF MUL NOT AND SWAP1 DUP4 PUSH20 0xFFFFFFFFFFFFFFFFFFFFFFFFFFFFFFFFFFFFFFFF AND MUL OR SWAP1 SSTORE POP POP POP POP JUMP JUMPDEST PUSH1 0x7 SLOAD DUP2 JUMP JUMPDEST PUSH1 0xD PUSH1 0x20 MSTORE DUP1 PUSH1 0x0 MSTORE PUSH1 0x40 PUSH1 0x0 KECCAK256 PUSH1 0x0 SWAP2 POP SWAP1 POP SLOAD DUP2 JUMP JUMPDEST PUSH2 0x9DF PUSH2 0x9D9 PUSH2 0x1D77 JUMP JUMPDEST DUP3 PUSH2 0x1ED5 JUMP JUMPDEST PUSH2 0xA1E JUMPI PUSH1 0x40 MLOAD PUSH32 0x8C379A000000000000000000000000000000000000000000000000000000000 DUP2 MSTORE PUSH1 0x4 ADD PUSH2 0xA15 SWAP1 PUSH2 0x3D18 JUMP JUMPDEST PUSH1 0x40 MLOAD DUP1 SWAP2 SUB SWAP1 REVERT JUMPDEST PUSH2 0xA29 DUP4 DUP4 DUP4 PUSH2 0x1FB3 JUMP JUMPDEST POP POP POP JUMP JUMPDEST PUSH1 0x0 PUSH1 0x6 PUSH1 0x0 DUP4 DUP2 MSTORE PUSH1 0x20 ADD SWAP1 DUP2 MSTORE PUSH1 0x20 ADD PUSH1 0x0 KECCAK256 PUSH1 0x1 ADD SLOAD SWAP1 POP SWAP2 SWAP1 POP JUMP JUMPDEST PUSH2 0xA57 DUP3 PUSH2 0xA2E JUMP JUMPDEST PUSH2 0xA68 DUP2 PUSH2 0xA63 PUSH2 0x1D77 JUMP JUMPDEST PUSH2 0x1E38 JUMP JUMPDEST PUSH2 0xA72 DUP4 DUP4 PUSH2 0x221A JUMP JUMPDEST POP POP POP JUMP JUMPDEST PUSH2 0xA7F PUSH2 0x1D77 JUMP JUMPDEST PUSH20 0xFFFFFFFFFFFFFFFFFFFFFFFFFFFFFFFFFFFFFFFF AND DUP2 PUSH20 0xFFFFFFFFFFFFFFFFFFFFFFFFFFFFFFFFFFFFFFFF AND EQ PUSH2 0xAEC JUMPI PUSH1 0x40 MLOAD PUSH32 0x8C379A000000000000000000000000000000000000000000000000000000000 DUP2 MSTORE PUSH1 0x4 ADD PUSH2 0xAE3 SWAP1 PUSH2 0x3DAA JUMP JUMPDEST PUSH1 0x40 MLOAD DUP1 SWAP2 SUB SWAP1 REVERT JUMPDEST PUSH2 0xAF6 DUP3 DUP3 PUSH2 0x22FB JUMP JUMPDEST POP POP JUMP JUMPDEST PUSH1 0xF PUSH1 0x20 MSTORE DUP1 PUSH1 0x0 MSTORE PUSH1 0x40 PUSH1 0x0 KECCAK256 PUSH1 0x0 SWAP2 POP SWAP1 POP DUP1 SLOAD PUSH2 0xB19 SWAP1 PUSH2 0x3ABE JUMP JUMPDEST DUP1 PUSH1 0x1F ADD PUSH1 0x20 DUP1 SWAP2 DIV MUL PUSH1 0x20 ADD PUSH1 0x40 MLOAD SWAP1 DUP2 ADD PUSH1 0x40 MSTORE DUP1 SWAP3 SWAP2 SWAP1 DUP2 DUP2 MSTORE PUSH1 0x20 ADD DUP3 DUP1 SLOAD PUSH2 0xB45 SWAP1 PUSH2 0x3ABE JUMP JUMPDEST DUP1 ISZERO PUSH2 0xB92 JUMPI DUP1 PUSH1 0x1F LT PUSH2 0xB67 JUMPI PUSH2 0x100 DUP1 DUP4 SLOAD DIV MUL DUP4 MSTORE SWAP2 PUSH1 0x20 ADD SWAP2 PUSH2 0xB92 JUMP JUMPDEST DUP3 ADD SWAP2 SWAP1 PUSH1 0x0 MSTORE PUSH1 0x20 PUSH1 0x0 KECCAK256 SWAP1 JUMPDEST DUP2 SLOAD DUP2 MSTORE SWAP1 PUSH1 0x1 ADD SWAP1 PUSH1 0x20 ADD DUP1 DUP4 GT PUSH2 0xB75 JUMPI DUP3 SWAP1 SUB PUSH1 0x1F AND DUP3 ADD SWAP2 JUMPDEST POP POP POP POP POP DUP2 JUMP JUMPDEST PUSH2 0xBB5 DUP4 DUP4 DUP4 PUSH1 0x40 MLOAD DUP1 PUSH1 0x20 ADD PUSH1 0x40 MSTORE DUP1 PUSH1 0x0 DUP2 MSTORE POP PUSH2 0x11FA JUMP JUMPDEST POP POP POP JUMP JUMPDEST PUSH32 0x9F2DF0FED2C77648DE5860A4CC508CD0818C85B8B8A1AB4CEEEF8D981C8956A6 PUSH2 0xBEC DUP2 PUSH2 0xBE7 PUSH2 0x1D77 JUMP JUMPDEST PUSH2 0x1E38 JUMP JUMPDEST PUSH2 0xBF5 DUP3 PUSH2 0x23DD JUMP JUMPDEST POP POP JUMP JUMPDEST PUSH1 0xE PUSH1 0x20 MSTORE DUP1 PUSH1 0x0 MSTORE PUSH1 0x40 PUSH1 0x0 KECCAK256 PUSH1 0x0 SWAP2 POP SWAP1 POP DUP1 SLOAD PUSH2 0xC18 SWAP1 PUSH2 0x3ABE JUMP JUMPDEST DUP1 PUSH1 0x1F ADD PUSH1 0x20 DUP1 SWAP2 DIV MUL PUSH1 0x20 ADD PUSH1 0x40 MLOAD SWAP1 DUP2 ADD PUSH1 0x40 MSTORE DUP1 SWAP3 SWAP2 SWAP1 DUP2 DUP2 MSTORE PUSH1 0x20 ADD DUP3 DUP1 SLOAD PUSH2 0xC44 SWAP1 PUSH2 0x3ABE JUMP JUMPDEST DUP1 ISZERO PUSH2 0xC91 JUMPI DUP1 PUSH1 0x1F LT PUSH2 0xC66 JUMPI PUSH2 0x100 DUP1 DUP4 SLOAD DIV MUL DUP4 MSTORE SWAP2 PUSH1 0x20 ADD SWAP2 PUSH2 0xC91 JUMP JUMPDEST DUP3 ADD SWAP2 SWAP1 PUSH1 0x0 MSTORE PUSH1 0x20 PUSH1 0x0 KECCAK256 SWAP1 JUMPDEST DUP2 SLOAD DUP2 MSTORE SWAP1 PUSH1 0x1 ADD SWAP1 PUSH1 0x20 ADD DUP1 DUP4 GT PUSH2 0xC74 JUMPI DUP3 SWAP1 SUB PUSH1 0x1F AND DUP3 ADD SWAP2 JUMPDEST POP POP POP POP POP DUP2 JUMP JUMPDEST PUSH32 0x9F2DF0FED2C77648DE5860A4CC508CD0818C85B8B8A1AB4CEEEF8D981C8956A6 PUSH2 0xCCB DUP2 PUSH2 0xCC6 PUSH2 0x1D77 JUMP JUMPDEST PUSH2 0x1E38 JUMP JUMPDEST DUP3 DUP3 PUSH1 0x8 PUSH1 0x0 DUP8 DUP2 MSTORE PUSH1 0x20 ADD SWAP1 DUP2 MSTORE PUSH1 0x20 ADD PUSH1 0x0 KECCAK256 SWAP2 SWAP1 PUSH2 0xCED SWAP3 SWAP2 SWAP1 PUSH2 0x3152 JUMP JUMPDEST POP POP POP POP POP JUMP JUMPDEST PUSH1 0x0 DUP1 PUSH1 0x2 PUSH1 0x0 DUP5 DUP2 MSTORE PUSH1 0x20 ADD SWAP1 DUP2 MSTORE PUSH1 0x20 ADD PUSH1 0x0 KECCAK256 PUSH1 0x0 SWAP1 SLOAD SWAP1 PUSH2 0x100 EXP SWAP1 DIV PUSH20 0xFFFFFFFFFFFFFFFFFFFFFFFFFFFFFFFFFFFFFFFF AND SWAP1 POP PUSH1 0x0 PUSH20 0xFFFFFFFFFFFFFFFFFFFFFFFFFFFFFFFFFFFFFFFF AND DUP2 PUSH20 0xFFFFFFFFFFFFFFFFFFFFFFFFFFFFFFFFFFFFFFFF AND EQ ISZERO PUSH2 0xD9D JUMPI PUSH1 0x40 MLOAD PUSH32 0x8C379A000000000000000000000000000000000000000000000000000000000 DUP2 MSTORE PUSH1 0x4 ADD PUSH2 0xD94 SWAP1 PUSH2 0x3E3C JUMP JUMPDEST PUSH1 0x40 MLOAD DUP1 SWAP2 SUB SWAP1 REVERT JUMPDEST DUP1 SWAP2 POP POP SWAP2 SWAP1 POP JUMP JUMPDEST PUSH1 0x9 PUSH1 0x20 MSTORE DUP1 PUSH1 0x0 MSTORE PUSH1 0x40 PUSH1 0x0 KECCAK256 PUSH1 0x0 SWAP2 POP SLOAD SWAP1 PUSH2 0x100 EXP SWAP1 DIV PUSH20 0xFFFFFFFFFFFFFFFFFFFFFFFFFFFFFFFFFFFFFFFF AND DUP2 JUMP JUMPDEST PUSH1 0x0 DUP1 PUSH20 0xFFFFFFFFFFFFFFFFFFFFFFFFFFFFFFFFFFFFFFFF AND DUP3 PUSH20 0xFFFFFFFFFFFFFFFFFFFFFFFFFFFFFFFFFFFFFFFF AND EQ ISZERO PUSH2 0xE4A JUMPI PUSH1 0x40 MLOAD PUSH32 0x8C379A000000000000000000000000000000000000000000000000000000000 DUP2 MSTORE PUSH1 0x4 ADD PUSH2 0xE41 SWAP1 PUSH2 0x3ECE JUMP JUMPDEST PUSH1 0x40 MLOAD DUP1 SWAP2 SUB SWAP1 REVERT JUMPDEST PUSH1 0x3 PUSH1 0x0 DUP4 PUSH20 0xFFFFFFFFFFFFFFFFFFFFFFFFFFFFFFFFFFFFFFFF AND PUSH20 0xFFFFFFFFFFFFFFFFFFFFFFFFFFFFFFFFFFFFFFFF AND DUP2 MSTORE PUSH1 0x20 ADD SWAP1 DUP2 MSTORE PUSH1 0x20 ADD PUSH1 0x0 KECCAK256 SLOAD SWAP1 POP SWAP2 SWAP1 POP JUMP JUMPDEST PUSH32 0x9F2DF0FED2C77648DE5860A4CC508CD0818C85B8B8A1AB4CEEEF8D981C8956A6 PUSH2 0xEC3 DUP2 PUSH2 0xEBE PUSH2 0x1D77 JUMP JUMPDEST PUSH2 0x1E38 JUMP JUMPDEST PUSH1 0x0 PUSH20 0xFFFFFFFFFFFFFFFFFFFFFFFFFFFFFFFFFFFFFFFF AND PUSH1 0x9 PUSH1 0x0 DUP12 DUP2 MSTORE PUSH1 0x20 ADD SWAP1 DUP2 MSTORE PUSH1 0x20 ADD PUSH1 0x0 KECCAK256 PUSH1 0x0 SWAP1 SLOAD SWAP1 PUSH2 0x100 EXP SWAP1 DIV PUSH20 0xFFFFFFFFFFFFFFFFFFFFFFFFFFFFFFFFFFFFFFFF AND PUSH20 0xFFFFFFFFFFFFFFFFFFFFFFFFFFFFFFFFFFFFFFFF AND EQ ISZERO PUSH2 0xF66 JUMPI PUSH1 0x40 MLOAD PUSH32 0x8C379A000000000000000000000000000000000000000000000000000000000 DUP2 MSTORE PUSH1 0x4 ADD PUSH2 0xF5D SWAP1 PUSH2 0x3F3A JUMP JUMPDEST PUSH1 0x40 MLOAD DUP1 SWAP2 SUB SWAP1 REVERT JUMPDEST PUSH1 0x40 MLOAD DUP1 PUSH1 0x20 ADD PUSH1 0x40 MSTORE DUP1 PUSH1 0x0 DUP2 MSTORE POP DUP1 MLOAD SWAP1 PUSH1 0x20 ADD KECCAK256 PUSH1 0x8 PUSH1 0x0 DUP9 DUP2 MSTORE PUSH1 0x20 ADD SWAP1 DUP2 MSTORE PUSH1 0x20 ADD PUSH1 0x0 KECCAK256 PUSH1 0x40 MLOAD PUSH2 0xF9D SWAP2 SWAP1 PUSH2 0x3FF9 JUMP JUMPDEST PUSH1 0x40 MLOAD DUP1 SWAP2 SUB SWAP1 KECCAK256 EQ ISZERO PUSH2 0xFE6 JUMPI PUSH1 0x40 MLOAD PUSH32 0x8C379A000000000000000000000000000000000000000000000000000000000 DUP2 MSTORE PUSH1 0x4 ADD PUSH2 0xFDD SWAP1 PUSH2 0x405C JUMP JUMPDEST PUSH1 0x40 MLOAD DUP1 SWAP2 SUB SWAP1 REVERT JUMPDEST PUSH1 0x7 PUSH1 0x0 DUP2 SLOAD DUP1 SWAP3 SWAP2 SWAP1 PUSH2 0xFF9 SWAP1 PUSH2 0x40AB JUMP JUMPDEST SWAP2 SWAP1 POP SSTORE POP PUSH2 0x100A DUP11 PUSH1 0x7 SLOAD PUSH2 0x24FA JUMP JUMPDEST DUP9 PUSH1 0xA PUSH1 0x0 PUSH1 0x7 SLOAD DUP2 MSTORE PUSH1 0x20 ADD SWAP1 DUP2 MSTORE PUSH1 0x20 ADD PUSH1 0x0 KECCAK256 DUP2 SWAP1 SSTORE POP DUP8 PUSH1 0xB PUSH1 0x0 PUSH1 0x7 SLOAD DUP2 MSTORE PUSH1 0x20 ADD SWAP1 DUP2 MSTORE PUSH1 0x20 ADD PUSH1 0x0 KECCAK256 DUP2 SWAP1 SSTORE POP DUP7 PUSH1 0xC PUSH1 0x0 PUSH1 0x7 SLOAD DUP2 MSTORE PUSH1 0x20 ADD SWAP1 DUP2 MSTORE PUSH1 0x20 ADD PUSH1 0x0 KECCAK256 DUP2 SWAP1 SSTORE POP DUP6 PUSH1 0xD PUSH1 0x0 PUSH1 0x7 SLOAD DUP2 MSTORE PUSH1 0x20 ADD SWAP1 DUP2 MSTORE PUSH1 0x20 ADD PUSH1 0x0 KECCAK256 DUP2 SWAP1 SSTORE POP DUP5 DUP5 PUSH1 0xE PUSH1 0x0 PUSH1 0x7 SLOAD DUP2 MSTORE PUSH1 0x20 ADD SWAP1 DUP2 MSTORE PUSH1 0x20 ADD PUSH1 0x0 KECCAK256 SWAP2 SWAP1 PUSH2 0x1096 SWAP3 SWAP2 SWAP1 PUSH2 0x3152 JUMP JUMPDEST POP DUP3 DUP3 PUSH1 0xF PUSH1 0x0 PUSH1 0x7 SLOAD DUP2 MSTORE PUSH1 0x20 ADD SWAP1 DUP2 MSTORE PUSH1 0x20 ADD PUSH1 0x0 KECCAK256 SWAP2 SWAP1 PUSH2 0x10BB SWAP3 SWAP2 SWAP1 PUSH2 0x3152 JUMP JUMPDEST POP POP POP POP POP POP POP POP POP POP POP JUMP JUMPDEST PUSH1 0xC PUSH1 0x20 MSTORE DUP1 PUSH1 0x0 MSTORE PUSH1 0x40 PUSH1 0x0 KECCAK256 PUSH1 0x0 SWAP2 POP SWAP1 POP SLOAD DUP2 JUMP JUMPDEST PUSH1 0x0 PUSH1 0x6 PUSH1 0x0 DUP5 DUP2 MSTORE PUSH1 0x20 ADD SWAP1 DUP2 MSTORE PUSH1 0x20 ADD PUSH1 0x0 KECCAK256 PUSH1 0x0 ADD PUSH1 0x0 DUP4 PUSH20 0xFFFFFFFFFFFFFFFFFFFFFFFFFFFFFFFFFFFFFFFF AND PUSH20 0xFFFFFFFFFFFFFFFFFFFFFFFFFFFFFFFFFFFFFFFF AND DUP2 MSTORE PUSH1 0x20 ADD SWAP1 DUP2 MSTORE PUSH1 0x20 ADD PUSH1 0x0 KECCAK256 PUSH1 0x0 SWAP1 SLOAD SWAP1 PUSH2 0x100 EXP SWAP1 DIV PUSH1 0xFF AND SWAP1 POP SWAP3 SWAP2 POP POP JUMP JUMPDEST PUSH1 0x60 PUSH1 0x1 DUP1 SLOAD PUSH2 0x115A SWAP1 PUSH2 0x3ABE JUMP JUMPDEST DUP1 PUSH1 0x1F ADD PUSH1 0x20 DUP1 SWAP2 DIV MUL PUSH1 0x20 ADD PUSH1 0x40 MLOAD SWAP1 DUP2 ADD PUSH1 0x40 MSTORE DUP1 SWAP3 SWAP2 SWAP1 DUP2 DUP2 MSTORE PUSH1 0x20 ADD DUP3 DUP1 SLOAD PUSH2 0x1186 SWAP1 PUSH2 0x3ABE JUMP JUMPDEST DUP1 ISZERO PUSH2 0x11D3 JUMPI DUP1 PUSH1 0x1F LT PUSH2 0x11A8 JUMPI PUSH2 0x100 DUP1 DUP4 SLOAD DIV MUL DUP4 MSTORE SWAP2 PUSH1 0x20 ADD SWAP2 PUSH2 0x11D3 JUMP JUMPDEST DUP3 ADD SWAP2 SWAP1 PUSH1 0x0 MSTORE PUSH1 0x20 PUSH1 0x0 KECCAK256 SWAP1 JUMPDEST DUP2 SLOAD DUP2 MSTORE SWAP1 PUSH1 0x1 ADD SWAP1 PUSH1 0x20 ADD DUP1 DUP4 GT PUSH2 0x11B6 JUMPI DUP3 SWAP1 SUB PUSH1 0x1F AND DUP3 ADD SWAP2 JUMPDEST POP POP POP POP POP SWAP1 POP SWAP1 JUMP JUMPDEST PUSH1 0x0 DUP1 SHL DUP2 JUMP JUMPDEST PUSH2 0x11F6 PUSH2 0x11EF PUSH2 0x1D77 JUMP JUMPDEST DUP4 DUP4 PUSH2 0x2518 JUMP JUMPDEST POP POP JUMP JUMPDEST PUSH2 0x120B PUSH2 0x1205 PUSH2 0x1D77 JUMP JUMPDEST DUP4 PUSH2 0x1ED5 JUMP JUMPDEST PUSH2 0x124A JUMPI PUSH1 0x40 MLOAD PUSH32 0x8C379A000000000000000000000000000000000000000000000000000000000 DUP2 MSTORE PUSH1 0x4 ADD PUSH2 0x1241 SWAP1 PUSH2 0x3D18 JUMP JUMPDEST PUSH1 0x40 MLOAD DUP1 SWAP2 SUB SWAP1 REVERT JUMPDEST PUSH2 0x1256 DUP5 DUP5 DUP5 DUP5 PUSH2 0x2685 JUMP JUMPDEST POP POP POP POP JUMP JUMPDEST PUSH1 0x8 PUSH1 0x20 MSTORE DUP1 PUSH1 0x0 MSTORE PUSH1 0x40 PUSH1 0x0 KECCAK256 PUSH1 0x0 SWAP2 POP SWAP1 POP DUP1 SLOAD PUSH2 0x127B SWAP1 PUSH2 0x3ABE JUMP JUMPDEST DUP1 PUSH1 0x1F ADD PUSH1 0x20 DUP1 SWAP2 DIV MUL PUSH1 0x20 ADD PUSH1 0x40 MLOAD SWAP1 DUP2 ADD PUSH1 0x40 MSTORE DUP1 SWAP3 SWAP2 SWAP1 DUP2 DUP2 MSTORE PUSH1 0x20 ADD DUP3 DUP1 SLOAD PUSH2 0x12A7 SWAP1 PUSH2 0x3ABE JUMP JUMPDEST DUP1 ISZERO PUSH2 0x12F4 JUMPI DUP1 PUSH1 0x1F LT PUSH2 0x12C9 JUMPI PUSH2 0x100 DUP1 DUP4 SLOAD DIV MUL DUP4 MSTORE SWAP2 PUSH1 0x20 ADD SWAP2 PUSH2 0x12F4 JUMP JUMPDEST DUP3 ADD SWAP2 SWAP1 PUSH1 0x0 MSTORE PUSH1 0x20 PUSH1 0x0 KECCAK256 SWAP1 JUMPDEST DUP2 SLOAD DUP2 MSTORE SWAP1 PUSH1 0x1 ADD SWAP1 PUSH1 0x20 ADD DUP1 DUP4 GT PUSH2 0x12D7 JUMPI DUP3 SWAP1 SUB PUSH1 0x1F AND DUP3 ADD SWAP2 JUMPDEST POP POP POP POP POP DUP2 JUMP JUMPDEST PUSH1 0xA PUSH1 0x20 MSTORE DUP1 PUSH1 0x0 MSTORE PUSH1 0x40 PUSH1 0x0 KECCAK256 PUSH1 0x0 SWAP2 POP SWAP1 POP SLOAD DUP2 JUMP JUMPDEST PUSH1 0x60 PUSH2 0x131F DUP3 PUSH2 0x1D0B JUMP JUMPDEST PUSH2 0x135E JUMPI PUSH1 0x40 MLOAD PUSH32 0x8C379A000000000000000000000000000000000000000000000000000000000 DUP2 MSTORE PUSH1 0x4 ADD PUSH2 0x1355 SWAP1 PUSH2 0x4140 JUMP JUMPDEST PUSH1 0x40 MLOAD DUP1 SWAP2 SUB SWAP1 REVERT JUMPDEST PUSH1 0x0 PUSH1 0xB PUSH1 0x0 DUP5 DUP2 MSTORE PUSH1 0x20 ADD SWAP1 DUP2 MSTORE PUSH1 0x20 ADD PUSH1 0x0 KECCAK256 SLOAD SWAP1 POP PUSH1 0x0 PUSH1 0xC PUSH1 0x0 DUP6 DUP2 MSTORE PUSH1 0x20 ADD SWAP1 DUP2 MSTORE PUSH1 0x20 ADD PUSH1 0x0 KECCAK256 SLOAD SWAP1 POP PUSH1 0x0 PUSH1 0x8 PUSH1 0x0 PUSH1 0xD PUSH1 0x0 DUP9 DUP2 MSTORE PUSH1 0x20 ADD SWAP1 DUP2 MSTORE PUSH1 0x20 ADD PUSH1 0x0 KECCAK256 SLOAD DUP2 MSTORE PUSH1 0x20 ADD SWAP1 DUP2 MSTORE PUSH1 0x20 ADD PUSH1 0x0 KECCAK256 DUP1 SLOAD PUSH2 0x13C1 SWAP1 PUSH2 0x3ABE JUMP JUMPDEST DUP1 PUSH1 0x1F ADD PUSH1 0x20 DUP1 SWAP2 DIV MUL PUSH1 0x20 ADD PUSH1 0x40 MLOAD SWAP1 DUP2 ADD PUSH1 0x40 MSTORE DUP1 SWAP3 SWAP2 SWAP1 DUP2 DUP2 MSTORE PUSH1 0x20 ADD DUP3 DUP1 SLOAD PUSH2 0x13ED SWAP1 PUSH2 0x3ABE JUMP JUMPDEST DUP1 ISZERO PUSH2 0x143A JUMPI DUP1 PUSH1 0x1F LT PUSH2 0x140F JUMPI PUSH2 0x100 DUP1 DUP4 SLOAD DIV MUL DUP4 MSTORE SWAP2 PUSH1 0x20 ADD SWAP2 PUSH2 0x143A JUMP JUMPDEST DUP3 ADD SWAP2 SWAP1 PUSH1 0x0 MSTORE PUSH1 0x20 PUSH1 0x0 KECCAK256 SWAP1 JUMPDEST DUP2 SLOAD DUP2 MSTORE SWAP1 PUSH1 0x1 ADD SWAP1 PUSH1 0x20 ADD DUP1 DUP4 GT PUSH2 0x141D JUMPI DUP3 SWAP1 SUB PUSH1 0x1F AND DUP3 ADD SWAP2 JUMPDEST POP POP POP POP POP SWAP1 POP PUSH1 0x0 PUSH1 0xE PUSH1 0x0 DUP8 DUP2 MSTORE PUSH1 0x20 ADD SWAP1 DUP2 MSTORE PUSH1 0x20 ADD PUSH1 0x0 KECCAK256 DUP1 SLOAD PUSH2 0x1461 SWAP1 PUSH2 0x3ABE JUMP JUMPDEST DUP1 PUSH1 0x1F ADD PUSH1 0x20 DUP1 SWAP2 DIV MUL PUSH1 0x20 ADD PUSH1 0x40 MLOAD SWAP1 DUP2 ADD PUSH1 0x40 MSTORE DUP1 SWAP3 SWAP2 SWAP1 DUP2 DUP2 MSTORE PUSH1 0x20 ADD DUP3 DUP1 SLOAD PUSH2 0x148D SWAP1 PUSH2 0x3ABE JUMP JUMPDEST DUP1 ISZERO PUSH2 0x14DA JUMPI DUP1 PUSH1 0x1F LT PUSH2 0x14AF JUMPI PUSH2 0x100 DUP1 DUP4 SLOAD DIV MUL DUP4 MSTORE SWAP2 PUSH1 0x20 ADD SWAP2 PUSH2 0x14DA JUMP JUMPDEST DUP3 ADD SWAP2 SWAP1 PUSH1 0x0 MSTORE PUSH1 0x20 PUSH1 0x0 KECCAK256 SWAP1 JUMPDEST DUP2 SLOAD DUP2 MSTORE SWAP1 PUSH1 0x1 ADD SWAP1 PUSH1 0x20 ADD DUP1 DUP4 GT PUSH2 0x14BD JUMPI DUP3 SWAP1 SUB PUSH1 0x1F AND DUP3 ADD SWAP2 JUMPDEST POP POP POP POP POP SWAP1 POP PUSH1 0x0 PUSH1 0xF PUSH1 0x0 DUP9 DUP2 MSTORE PUSH1 0x20 ADD SWAP1 DUP2 MSTORE PUSH1 0x20 ADD PUSH1 0x0 KECCAK256 DUP1 SLOAD PUSH2 0x1501 SWAP1 PUSH2 0x3ABE JUMP JUMPDEST DUP1 PUSH1 0x1F ADD PUSH1 0x20 DUP1 SWAP2 DIV MUL PUSH1 0x20 ADD PUSH1 0x40 MLOAD SWAP1 DUP2 ADD PUSH1 0x40 MSTORE DUP1 SWAP3 SWAP2 SWAP1 DUP2 DUP2 MSTORE PUSH1 0x20 ADD DUP3 DUP1 SLOAD PUSH2 0x152D SWAP1 PUSH2 0x3ABE JUMP JUMPDEST DUP1 ISZERO PUSH2 0x157A JUMPI DUP1 PUSH1 0x1F LT PUSH2 0x154F JUMPI PUSH2 0x100 DUP1 DUP4 SLOAD DIV MUL DUP4 MSTORE SWAP2 PUSH1 0x20 ADD SWAP2 PUSH2 0x157A JUMP JUMPDEST DUP3 ADD SWAP2 SWAP1 PUSH1 0x0 MSTORE PUSH1 0x20 PUSH1 0x0 KECCAK256 SWAP1 JUMPDEST DUP2 SLOAD DUP2 MSTORE SWAP1 PUSH1 0x1 ADD SWAP1 PUSH1 0x20 ADD DUP1 DUP4 GT PUSH2 0x155D JUMPI DUP3 SWAP1 SUB PUSH1 0x1F AND DUP3 ADD SWAP2 JUMPDEST POP POP POP POP POP SWAP1 POP PUSH1 0x0 PUSH1 0x9 PUSH1 0x0 PUSH1 0xA PUSH1 0x0 DUP12 DUP2 MSTORE PUSH1 0x20 ADD SWAP1 DUP2 MSTORE PUSH1 0x20 ADD PUSH1 0x0 KECCAK256 SLOAD DUP2 MSTORE PUSH1 0x20 ADD SWAP1 DUP2 MSTORE PUSH1 0x20 ADD PUSH1 0x0 KECCAK256 PUSH1 0x0 SWAP1 SLOAD SWAP1 PUSH2 0x100 EXP SWAP1 DIV PUSH20 0xFFFFFFFFFFFFFFFFFFFFFFFFFFFFFFFFFFFFFFFF AND SWAP1 POP PUSH1 0x0 DUP2 SWAP1 POP PUSH1 0x0 DUP1 DUP3 PUSH20 0xFFFFFFFFFFFFFFFFFFFFFFFFFFFFFFFFFFFFFFFF AND PUSH4 0x6548BC10 DUP11 DUP11 DUP11 DUP11 DUP11 PUSH1 0x40 MLOAD PUSH1 0x20 ADD PUSH2 0x1609 SWAP6 SWAP5 SWAP4 SWAP3 SWAP2 SWAP1 PUSH2 0x4160 JUMP JUMPDEST PUSH1 0x40 MLOAD PUSH1 0x20 DUP2 DUP4 SUB SUB DUP2 MSTORE SWAP1 PUSH1 0x40 MSTORE PUSH1 0x40 MLOAD DUP3 PUSH4 0xFFFFFFFF AND PUSH1 0xE0 SHL DUP2 MSTORE PUSH1 0x4 ADD PUSH2 0x1634 SWAP2 SWAP1 PUSH2 0x421D JUMP JUMPDEST PUSH1 0x0 PUSH1 0x40 MLOAD DUP1 DUP4 SUB DUP2 DUP7 GAS STATICCALL ISZERO DUP1 ISZERO PUSH2 0x1651 JUMPI RETURNDATASIZE PUSH1 0x0 DUP1 RETURNDATACOPY RETURNDATASIZE PUSH1 0x0 REVERT JUMPDEST POP POP POP POP PUSH1 0x40 MLOAD RETURNDATASIZE PUSH1 0x0 DUP3 RETURNDATACOPY RETURNDATASIZE PUSH1 0x1F NOT PUSH1 0x1F DUP3 ADD AND DUP3 ADD DUP1 PUSH1 0x40 MSTORE POP DUP2 ADD SWAP1 PUSH2 0x167A SWAP2 SWAP1 PUSH2 0x42F5 JUMP JUMPDEST SWAP2 POP SWAP2 POP PUSH2 0x1686 PUSH2 0x31D8 JUMP JUMPDEST PUSH1 0x40 MLOAD DUP1 PUSH1 0x60 ADD PUSH1 0x40 MSTORE DUP1 PUSH1 0x32 DUP2 MSTORE PUSH1 0x20 ADD PUSH2 0x4CFE PUSH1 0x32 SWAP2 CODECOPY DUP2 PUSH1 0x0 PUSH1 0xC DUP2 LT PUSH2 0x16B3 JUMPI PUSH2 0x16B2 PUSH2 0x4351 JUMP JUMPDEST JUMPDEST PUSH1 0x20 MUL ADD DUP2 SWAP1 MSTORE POP DUP3 PUSH2 0x16FB JUMPI PUSH1 0x40 MLOAD DUP1 PUSH1 0x40 ADD PUSH1 0x40 MSTORE DUP1 PUSH1 0x3 DUP2 MSTORE PUSH1 0x20 ADD PUSH32 0x223A220000000000000000000000000000000000000000000000000000000000 DUP2 MSTORE POP PUSH2 0x1732 JUMP JUMPDEST PUSH1 0x40 MLOAD DUP1 PUSH1 0x40 ADD PUSH1 0x40 MSTORE DUP1 PUSH1 0x8 DUP2 MSTORE PUSH1 0x20 ADD PUSH32 0x5F64617461223A22000000000000000000000000000000000000000000000000 DUP2 MSTORE POP JUMPDEST DUP2 PUSH1 0x1 PUSH1 0xC DUP2 LT PUSH2 0x1746 JUMPI PUSH2 0x1745 PUSH2 0x4351 JUMP JUMPDEST JUMPDEST PUSH1 0x20 MUL ADD DUP2 SWAP1 MSTORE POP PUSH1 0x40 MLOAD DUP1 PUSH1 0x40 ADD PUSH1 0x40 MSTORE DUP1 PUSH1 0xB DUP2 MSTORE PUSH1 0x20 ADD PUSH32 0x222C226E616D65223A2022000000000000000000000000000000000000000000 DUP2 MSTORE POP DUP2 PUSH1 0x2 PUSH1 0xC DUP2 LT PUSH2 0x1798 JUMPI PUSH2 0x1797 PUSH2 0x4351 JUMP JUMPDEST JUMPDEST PUSH1 0x20 MUL ADD DUP2 SWAP1 MSTORE POP PUSH1 0x40 MLOAD DUP1 PUSH1 0x40 ADD PUSH1 0x40 MSTORE DUP1 PUSH1 0x2 DUP2 MSTORE PUSH1 0x20 ADD PUSH32 0x2023000000000000000000000000000000000000000000000000000000000000 DUP2 MSTORE POP DUP2 PUSH1 0x3 PUSH1 0xC DUP2 LT PUSH2 0x17EA JUMPI PUSH2 0x17E9 PUSH2 0x4351 JUMP JUMPDEST JUMPDEST PUSH1 0x20 MUL ADD DUP2 SWAP1 MSTORE POP PUSH2 0x17FB DUP13 PUSH2 0x26E1 JUMP JUMPDEST DUP2 PUSH1 0x4 PUSH1 0xC DUP2 LT PUSH2 0x180F JUMPI PUSH2 0x180E PUSH2 0x4351 JUMP JUMPDEST JUMPDEST PUSH1 0x20 MUL ADD DUP2 SWAP1 MSTORE POP PUSH1 0x40 MLOAD DUP1 PUSH1 0x60 ADD PUSH1 0x40 MSTORE DUP1 PUSH1 0x2F DUP2 MSTORE PUSH1 0x20 ADD PUSH2 0x4DB6 PUSH1 0x2F SWAP2 CODECOPY DUP2 PUSH1 0x5 PUSH1 0xC DUP2 LT PUSH2 0x1844 JUMPI PUSH2 0x1843 PUSH2 0x4351 JUMP JUMPDEST JUMPDEST PUSH1 0x20 MUL ADD DUP2 SWAP1 MSTORE POP PUSH2 0x1855 DUP11 PUSH2 0x26E1 JUMP JUMPDEST DUP2 PUSH1 0x6 PUSH1 0xC DUP2 LT PUSH2 0x1869 JUMPI PUSH2 0x1868 PUSH2 0x4351 JUMP JUMPDEST JUMPDEST PUSH1 0x20 MUL ADD DUP2 SWAP1 MSTORE POP PUSH1 0x40 MLOAD DUP1 PUSH1 0x60 ADD PUSH1 0x40 MSTORE DUP1 PUSH1 0x23 DUP2 MSTORE PUSH1 0x20 ADD PUSH2 0x4D93 PUSH1 0x23 SWAP2 CODECOPY DUP2 PUSH1 0x7 PUSH1 0xC DUP2 LT PUSH2 0x189E JUMPI PUSH2 0x189D PUSH2 0x4351 JUMP JUMPDEST JUMPDEST PUSH1 0x20 MUL ADD DUP2 SWAP1 MSTORE POP PUSH2 0x18AF DUP10 PUSH2 0x26E1 JUMP JUMPDEST DUP2 PUSH1 0x8 PUSH1 0xC DUP2 LT PUSH2 0x18C3 JUMPI PUSH2 0x18C2 PUSH2 0x4351 JUMP JUMPDEST JUMPDEST PUSH1 0x20 MUL ADD DUP2 SWAP1 MSTORE POP PUSH1 0x40 MLOAD DUP1 PUSH1 0x60 ADD PUSH1 0x40 MSTORE DUP1 PUSH1 0x21 DUP2 MSTORE PUSH1 0x20 ADD PUSH2 0x4DE5 PUSH1 0x21 SWAP2 CODECOPY DUP2 PUSH1 0x9 PUSH1 0xC DUP2 LT PUSH2 0x18F8 JUMPI PUSH2 0x18F7 PUSH2 0x4351 JUMP JUMPDEST JUMPDEST PUSH1 0x20 MUL ADD DUP2 SWAP1 MSTORE POP PUSH1 0x40 MLOAD DUP1 PUSH1 0x60 ADD PUSH1 0x40 MSTORE DUP1 PUSH1 0x23 DUP2 MSTORE PUSH1 0x20 ADD PUSH2 0x4D70 PUSH1 0x23 SWAP2 CODECOPY DUP2 PUSH1 0xA PUSH1 0xC DUP2 LT PUSH2 0x192D JUMPI PUSH2 0x192C PUSH2 0x4351 JUMP JUMPDEST JUMPDEST PUSH1 0x20 MUL ADD DUP2 SWAP1 MSTORE POP PUSH1 0x0 DUP7 MLOAD GT ISZERO PUSH2 0x1980 JUMPI DUP6 PUSH1 0x40 MLOAD PUSH1 0x20 ADD PUSH2 0x1950 SWAP2 SWAP1 PUSH2 0x447A JUMP JUMPDEST PUSH1 0x40 MLOAD PUSH1 0x20 DUP2 DUP4 SUB SUB DUP2 MSTORE SWAP1 PUSH1 0x40 MSTORE DUP2 PUSH1 0xB PUSH1 0xC DUP2 LT PUSH2 0x1973 JUMPI PUSH2 0x1972 PUSH2 0x4351 JUMP JUMPDEST JUMPDEST PUSH1 0x20 MUL ADD DUP2 SWAP1 MSTORE POP PUSH2 0x19D3 JUMP JUMPDEST PUSH1 0x40 MLOAD DUP1 PUSH1 0x40 ADD PUSH1 0x40 MSTORE DUP1 PUSH1 0x4 DUP2 MSTORE PUSH1 0x20 ADD PUSH32 0x227D5D7D00000000000000000000000000000000000000000000000000000000 DUP2 MSTORE POP DUP2 PUSH1 0xB PUSH1 0xC DUP2 LT PUSH2 0x19CA JUMPI PUSH2 0x19C9 PUSH2 0x4351 JUMP JUMPDEST JUMPDEST PUSH1 0x20 MUL ADD DUP2 SWAP1 MSTORE POP JUMPDEST PUSH1 0x0 DUP2 PUSH1 0x0 PUSH1 0xC DUP2 LT PUSH2 0x19E9 JUMPI PUSH2 0x19E8 PUSH2 0x4351 JUMP JUMPDEST JUMPDEST PUSH1 0x20 MUL ADD MLOAD DUP3 PUSH1 0x1 PUSH1 0xC DUP2 LT PUSH2 0x1A02 JUMPI PUSH2 0x1A01 PUSH2 0x4351 JUMP JUMPDEST JUMPDEST PUSH1 0x20 MUL ADD MLOAD DUP5 DUP5 PUSH1 0x2 PUSH1 0xC DUP2 LT PUSH2 0x1A1C JUMPI PUSH2 0x1A1B PUSH2 0x4351 JUMP JUMPDEST JUMPDEST PUSH1 0x20 MUL ADD MLOAD PUSH2 0x1A29 PUSH2 0x114B JUMP JUMPDEST DUP7 PUSH1 0x3 PUSH1 0xC DUP2 LT PUSH2 0x1A3D JUMPI PUSH2 0x1A3C PUSH2 0x4351 JUMP JUMPDEST JUMPDEST PUSH1 0x20 MUL ADD MLOAD DUP8 PUSH1 0x4 PUSH1 0xC DUP2 LT PUSH2 0x1A56 JUMPI PUSH2 0x1A55 PUSH2 0x4351 JUMP JUMPDEST JUMPDEST PUSH1 0x20 MUL ADD MLOAD DUP9 PUSH1 0x5 PUSH1 0xC DUP2 LT PUSH2 0x1A6F JUMPI PUSH2 0x1A6E PUSH2 0x4351 JUMP JUMPDEST JUMPDEST PUSH1 0x20 MUL ADD MLOAD PUSH1 0x40 MLOAD PUSH1 0x20 ADD PUSH2 0x1A8B SWAP9 SWAP8 SWAP7 SWAP6 SWAP5 SWAP4 SWAP3 SWAP2 SWAP1 PUSH2 0x44A7 JUMP JUMPDEST PUSH1 0x40 MLOAD PUSH1 0x20 DUP2 DUP4 SUB SUB DUP2 MSTORE SWAP1 PUSH1 0x40 MSTORE SWAP1 POP PUSH2 0x1B64 DUP2 DUP4 PUSH1 0x6 PUSH1 0xC DUP2 LT PUSH2 0x1AB4 JUMPI PUSH2 0x1AB3 PUSH2 0x4351 JUMP JUMPDEST JUMPDEST PUSH1 0x20 MUL ADD MLOAD DUP5 PUSH1 0x7 PUSH1 0xC DUP2 LT PUSH2 0x1ACD JUMPI PUSH2 0x1ACC PUSH2 0x4351 JUMP JUMPDEST JUMPDEST PUSH1 0x20 MUL ADD MLOAD DUP6 PUSH1 0x8 PUSH1 0xC DUP2 LT PUSH2 0x1AE6 JUMPI PUSH2 0x1AE5 PUSH2 0x4351 JUMP JUMPDEST JUMPDEST PUSH1 0x20 MUL ADD MLOAD DUP7 PUSH1 0x9 PUSH1 0xC DUP2 LT PUSH2 0x1AFF JUMPI PUSH2 0x1AFE PUSH2 0x4351 JUMP JUMPDEST JUMPDEST PUSH1 0x20 MUL ADD MLOAD DUP15 DUP9 PUSH1 0xA PUSH1 0xC DUP2 LT PUSH2 0x1B19 JUMPI PUSH2 0x1B18 PUSH2 0x4351 JUMP JUMPDEST JUMPDEST PUSH1 0x20 MUL ADD MLOAD DUP16 DUP11 PUSH1 0xB PUSH1 0xC DUP2 LT PUSH2 0x1B33 JUMPI PUSH2 0x1B32 PUSH2 0x4351 JUMP JUMPDEST JUMPDEST PUSH1 0x20 MUL ADD MLOAD PUSH1 0x40 MLOAD PUSH1 0x20 ADD PUSH2 0x1B50 SWAP10 SWAP9 SWAP8 SWAP7 SWAP6 SWAP5 SWAP4 SWAP3 SWAP2 SWAP1 PUSH2 0x4519 JUMP JUMPDEST PUSH1 0x40 MLOAD PUSH1 0x20 DUP2 DUP4 SUB SUB DUP2 MSTORE SWAP1 PUSH1 0x40 MSTORE PUSH2 0x2842 JUMP JUMPDEST SWAP1 POP DUP1 PUSH1 0x40 MLOAD PUSH1 0x20 ADD PUSH2 0x1B77 SWAP2 SWAP1 PUSH2 0x45E4 JUMP JUMPDEST PUSH1 0x40 MLOAD PUSH1 0x20 DUP2 DUP4 SUB SUB DUP2 MSTORE SWAP1 PUSH1 0x40 MSTORE SWAP12 POP POP POP POP POP POP POP POP POP POP POP POP SWAP2 SWAP1 POP JUMP JUMPDEST PUSH32 0x9F2DF0FED2C77648DE5860A4CC508CD0818C85B8B8A1AB4CEEEF8D981C8956A6 DUP2 JUMP JUMPDEST PUSH2 0x1BC5 DUP3 PUSH2 0xA2E JUMP JUMPDEST PUSH2 0x1BD6 DUP2 PUSH2 0x1BD1 PUSH2 0x1D77 JUMP JUMPDEST PUSH2 0x1E38 JUMP JUMPDEST PUSH2 0x1BE0 DUP4 DUP4 PUSH2 0x22FB JUMP JUMPDEST POP POP POP JUMP JUMPDEST PUSH1 0x0 PUSH1 0x5 PUSH1 0x0 DUP5 PUSH20 0xFFFFFFFFFFFFFFFFFFFFFFFFFFFFFFFFFFFFFFFF AND PUSH20 0xFFFFFFFFFFFFFFFFFFFFFFFFFFFFFFFFFFFFFFFF AND DUP2 MSTORE PUSH1 0x20 ADD SWAP1 DUP2 MSTORE PUSH1 0x20 ADD PUSH1 0x0 KECCAK256 PUSH1 0x0 DUP4 PUSH20 0xFFFFFFFFFFFFFFFFFFFFFFFFFFFFFFFFFFFFFFFF AND PUSH20 0xFFFFFFFFFFFFFFFFFFFFFFFFFFFFFFFFFFFFFFFF AND DUP2 MSTORE PUSH1 0x20 ADD SWAP1 DUP2 MSTORE PUSH1 0x20 ADD PUSH1 0x0 KECCAK256 PUSH1 0x0 SWAP1 SLOAD SWAP1 PUSH2 0x100 EXP SWAP1 DIV PUSH1 0xFF AND SWAP1 POP SWAP3 SWAP2 POP POP JUMP JUMPDEST PUSH1 0xB PUSH1 0x20 MSTORE DUP1 PUSH1 0x0 MSTORE PUSH1 0x40 PUSH1 0x0 KECCAK256 PUSH1 0x0 SWAP2 POP SWAP1 POP SLOAD DUP2 JUMP JUMPDEST PUSH1 0x0 PUSH32 0x7965DB0B00000000000000000000000000000000000000000000000000000000 PUSH28 0xFFFFFFFFFFFFFFFFFFFFFFFFFFFFFFFFFFFFFFFFFFFFFFFFFFFFFFFF NOT AND DUP3 PUSH28 0xFFFFFFFFFFFFFFFFFFFFFFFFFFFFFFFFFFFFFFFFFFFFFFFFFFFFFFFF NOT AND EQ DUP1 PUSH2 0x1D04 JUMPI POP PUSH2 0x1D03 DUP3 PUSH2 0x29A6 JUMP JUMPDEST JUMPDEST SWAP1 POP SWAP2 SWAP1 POP JUMP JUMPDEST PUSH1 0x0 DUP1 PUSH20 0xFFFFFFFFFFFFFFFFFFFFFFFFFFFFFFFFFFFFFFFF AND PUSH1 0x2 PUSH1 0x0 DUP5 DUP2 MSTORE PUSH1 0x20 ADD SWAP1 DUP2 MSTORE PUSH1 0x20 ADD PUSH1 0x0 KECCAK256 PUSH1 0x0 SWAP1 SLOAD SWAP1 PUSH2 0x100 EXP SWAP1 DIV PUSH20 0xFFFFFFFFFFFFFFFFFFFFFFFFFFFFFFFFFFFFFFFF AND PUSH20 0xFFFFFFFFFFFFFFFFFFFFFFFFFFFFFFFFFFFFFFFF AND EQ ISZERO SWAP1 POP SWAP2 SWAP1 POP JUMP JUMPDEST PUSH1 0x0 CALLER SWAP1 POP SWAP1 JUMP JUMPDEST DUP2 PUSH1 0x4 PUSH1 0x0 DUP4 DUP2 MSTORE PUSH1 0x20 ADD SWAP1 DUP2 MSTORE PUSH1 0x20 ADD PUSH1 0x0 KECCAK256 PUSH1 0x0 PUSH2 0x100 EXP DUP2 SLOAD DUP2 PUSH20 0xFFFFFFFFFFFFFFFFFFFFFFFFFFFFFFFFFFFFFFFF MUL NOT AND SWAP1 DUP4 PUSH20 0xFFFFFFFFFFFFFFFFFFFFFFFFFFFFFFFFFFFFFFFF AND MUL OR SWAP1 SSTORE POP DUP1 DUP3 PUSH20 0xFFFFFFFFFFFFFFFFFFFFFFFFFFFFFFFFFFFFFFFF AND PUSH2 0x1DF2 DUP4 PUSH2 0xCF4 JUMP JUMPDEST PUSH20 0xFFFFFFFFFFFFFFFFFFFFFFFFFFFFFFFFFFFFFFFF AND PUSH32 0x8C5BE1E5EBEC7D5BD14F71427D1E84F3DD0314C0F7B2291E5B200AC8C7C3B925 PUSH1 0x40 MLOAD PUSH1 0x40 MLOAD DUP1 SWAP2 SUB SWAP1 LOG4 POP POP JUMP JUMPDEST PUSH2 0x1E42 DUP3 DUP3 PUSH2 0x10E0 JUMP JUMPDEST PUSH2 0x1ED1 JUMPI PUSH2 0x1E67 DUP2 PUSH20 0xFFFFFFFFFFFFFFFFFFFFFFFFFFFFFFFFFFFFFFFF AND PUSH1 0x14 PUSH2 0x2A88 JUMP JUMPDEST PUSH2 0x1E75 DUP4 PUSH1 0x0 SHR PUSH1 0x20 PUSH2 0x2A88 JUMP JUMPDEST PUSH1 0x40 MLOAD PUSH1 0x20 ADD PUSH2 0x1E86 SWAP3 SWAP2 SWAP1 PUSH2 0x469E JUMP JUMPDEST PUSH1 0x40 MLOAD PUSH1 0x20 DUP2 DUP4 SUB SUB DUP2 MSTORE SWAP1 PUSH1 0x40 MSTORE PUSH1 0x40 MLOAD PUSH32 0x8C379A000000000000000000000000000000000000000000000000000000000 DUP2 MSTORE PUSH1 0x4 ADD PUSH2 0x1EC8 SWAP2 SWAP1 PUSH2 0x3385 JUMP JUMPDEST PUSH1 0x40 MLOAD DUP1 SWAP2 SUB SWAP1 REVERT JUMPDEST POP POP JUMP JUMPDEST PUSH1 0x0 PUSH2 0x1EE0 DUP3 PUSH2 0x1D0B JUMP JUMPDEST PUSH2 0x1F1F JUMPI PUSH1 0x40 MLOAD PUSH32 0x8C379A000000000000000000000000000000000000000000000000000000000 DUP2 MSTORE PUSH1 0x4 ADD PUSH2 0x1F16 SWAP1 PUSH2 0x474A JUMP JUMPDEST PUSH1 0x40 MLOAD DUP1 SWAP2 SUB SWAP1 REVERT JUMPDEST PUSH1 0x0 PUSH2 0x1F2A DUP4 PUSH2 0xCF4 JUMP JUMPDEST SWAP1 POP DUP1 PUSH20 0xFFFFFFFFFFFFFFFFFFFFFFFFFFFFFFFFFFFFFFFF AND DUP5 PUSH20 0xFFFFFFFFFFFFFFFFFFFFFFFFFFFFFFFFFFFFFFFF AND EQ DUP1 PUSH2 0x1F99 JUMPI POP DUP4 PUSH20 0xFFFFFFFFFFFFFFFFFFFFFFFFFFFFFFFFFFFFFFFF AND PUSH2 0x1F81 DUP5 PUSH2 0x78A JUMP JUMPDEST PUSH20 0xFFFFFFFFFFFFFFFFFFFFFFFFFFFFFFFFFFFFFFFF AND EQ JUMPDEST DUP1 PUSH2 0x1FAA JUMPI POP PUSH2 0x1FA9 DUP2 DUP6 PUSH2 0x1BE5 JUMP JUMPDEST JUMPDEST SWAP2 POP POP SWAP3 SWAP2 POP POP JUMP JUMPDEST DUP3 PUSH20 0xFFFFFFFFFFFFFFFFFFFFFFFFFFFFFFFFFFFFFFFF AND PUSH2 0x1FD3 DUP3 PUSH2 0xCF4 JUMP JUMPDEST PUSH20 0xFFFFFFFFFFFFFFFFFFFFFFFFFFFFFFFFFFFFFFFF AND EQ PUSH2 0x2029 JUMPI PUSH1 0x40 MLOAD PUSH32 0x8C379A000000000000000000000000000000000000000000000000000000000 DUP2 MSTORE PUSH1 0x4 ADD PUSH2 0x2020 SWAP1 PUSH2 0x47DC JUMP JUMPDEST PUSH1 0x40 MLOAD DUP1 SWAP2 SUB SWAP1 REVERT JUMPDEST PUSH1 0x0 PUSH20 0xFFFFFFFFFFFFFFFFFFFFFFFFFFFFFFFFFFFFFFFF AND DUP3 PUSH20 0xFFFFFFFFFFFFFFFFFFFFFFFFFFFFFFFFFFFFFFFF AND EQ ISZERO PUSH2 0x2099 JUMPI PUSH1 0x40 MLOAD PUSH32 0x8C379A000000000000000000000000000000000000000000000000000000000 DUP2 MSTORE PUSH1 0x4 ADD PUSH2 0x2090 SWAP1 PUSH2 0x486E JUMP JUMPDEST PUSH1 0x40 MLOAD DUP1 SWAP2 SUB SWAP1 REVERT JUMPDEST PUSH2 0x20A4 DUP4 DUP4 DUP4 PUSH2 0x2CC4 JUMP JUMPDEST PUSH2 0x20AF PUSH1 0x0 DUP3 PUSH2 0x1D7F JUMP JUMPDEST PUSH1 0x1 PUSH1 0x3 PUSH1 0x0 DUP6 PUSH20 0xFFFFFFFFFFFFFFFFFFFFFFFFFFFFFFFFFFFFFFFF AND PUSH20 0xFFFFFFFFFFFFFFFFFFFFFFFFFFFFFFFFFFFFFFFF AND DUP2 MSTORE PUSH1 0x20 ADD SWAP1 DUP2 MSTORE PUSH1 0x20 ADD PUSH1 0x0 KECCAK256 PUSH1 0x0 DUP3 DUP3 SLOAD PUSH2 0x20FF SWAP2 SWAP1 PUSH2 0x488E JUMP JUMPDEST SWAP3 POP POP DUP2 SWAP1 SSTORE POP PUSH1 0x1 PUSH1 0x3 PUSH1 0x0 DUP5 PUSH20 0xFFFFFFFFFFFFFFFFFFFFFFFFFFFFFFFFFFFFFFFF AND PUSH20 0xFFFFFFFFFFFFFFFFFFFFFFFFFFFFFFFFFFFFFFFF AND DUP2 MSTORE PUSH1 0x20 ADD SWAP1 DUP2 MSTORE PUSH1 0x20 ADD PUSH1 0x0 KECCAK256 PUSH1 0x0 DUP3 DUP3 SLOAD PUSH2 0x2156 SWAP2 SWAP1 PUSH2 0x48C2 JUMP JUMPDEST SWAP3 POP POP DUP2 SWAP1 SSTORE POP DUP2 PUSH1 0x2 PUSH1 0x0 DUP4 DUP2 MSTORE PUSH1 0x20 ADD SWAP1 DUP2 MSTORE PUSH1 0x20 ADD PUSH1 0x0 KECCAK256 PUSH1 0x0 PUSH2 0x100 EXP DUP2 SLOAD DUP2 PUSH20 0xFFFFFFFFFFFFFFFFFFFFFFFFFFFFFFFFFFFFFFFF MUL NOT AND SWAP1 DUP4 PUSH20 0xFFFFFFFFFFFFFFFFFFFFFFFFFFFFFFFFFFFFFFFF AND MUL OR SWAP1 SSTORE POP DUP1 DUP3 PUSH20 0xFFFFFFFFFFFFFFFFFFFFFFFFFFFFFFFFFFFFFFFF AND DUP5 PUSH20 0xFFFFFFFFFFFFFFFFFFFFFFFFFFFFFFFFFFFFFFFF AND PUSH32 0xDDF252AD1BE2C89B69C2B068FC378DAA952BA7F163C4A11628F55A4DF523B3EF PUSH1 0x40 MLOAD PUSH1 0x40 MLOAD DUP1 SWAP2 SUB SWAP1 LOG4 PUSH2 0x2215 DUP4 DUP4 DUP4 PUSH2 0x2CFE JUMP JUMPDEST POP POP POP JUMP JUMPDEST PUSH2 0x2224 DUP3 DUP3 PUSH2 0x10E0 JUMP JUMPDEST PUSH2 0x22F7 JUMPI PUSH1 0x1 PUSH1 0x6 PUSH1 0x0 DUP5 DUP2 MSTORE PUSH1 0x20 ADD SWAP1 DUP2 MSTORE PUSH1 0x20 ADD PUSH1 0x0 KECCAK256 PUSH1 0x0 ADD PUSH1 0x0 DUP4 PUSH20 0xFFFFFFFFFFFFFFFFFFFFFFFFFFFFFFFFFFFFFFFF AND PUSH20 0xFFFFFFFFFFFFFFFFFFFFFFFFFFFFFFFFFFFFFFFF AND DUP2 MSTORE PUSH1 0x20 ADD SWAP1 DUP2 MSTORE PUSH1 0x20 ADD PUSH1 0x0 KECCAK256 PUSH1 0x0 PUSH2 0x100 EXP DUP2 SLOAD DUP2 PUSH1 0xFF MUL NOT AND SWAP1 DUP4 ISZERO ISZERO MUL OR SWAP1 SSTORE POP PUSH2 0x229C PUSH2 0x1D77 JUMP JUMPDEST PUSH20 0xFFFFFFFFFFFFFFFFFFFFFFFFFFFFFFFFFFFFFFFF AND DUP2 PUSH20 0xFFFFFFFFFFFFFFFFFFFFFFFFFFFFFFFFFFFFFFFF AND DUP4 PUSH32 0x2F8788117E7EFF1D82E926EC794901D17C78024A50270940304540A733656F0D PUSH1 0x40 MLOAD PUSH1 0x40 MLOAD DUP1 SWAP2 SUB SWAP1 LOG4 JUMPDEST POP POP JUMP JUMPDEST PUSH2 0x2305 DUP3 DUP3 PUSH2 0x10E0 JUMP JUMPDEST ISZERO PUSH2 0x23D9 JUMPI PUSH1 0x0 PUSH1 0x6 PUSH1 0x0 DUP5 DUP2 MSTORE PUSH1 0x20 ADD SWAP1 DUP2 MSTORE PUSH1 0x20 ADD PUSH1 0x0 KECCAK256 PUSH1 0x0 ADD PUSH1 0x0 DUP4 PUSH20 0xFFFFFFFFFFFFFFFFFFFFFFFFFFFFFFFFFFFFFFFF AND PUSH20 0xFFFFFFFFFFFFFFFFFFFFFFFFFFFFFFFFFFFFFFFF AND DUP2 MSTORE PUSH1 0x20 ADD SWAP1 DUP2 MSTORE PUSH1 0x20 ADD PUSH1 0x0 KECCAK256 PUSH1 0x0 PUSH2 0x100 EXP DUP2 SLOAD DUP2 PUSH1 0xFF MUL NOT AND SWAP1 DUP4 ISZERO ISZERO MUL OR SWAP1 SSTORE POP PUSH2 0x237E PUSH2 0x1D77 JUMP JUMPDEST PUSH20 0xFFFFFFFFFFFFFFFFFFFFFFFFFFFFFFFFFFFFFFFF AND DUP2 PUSH20 0xFFFFFFFFFFFFFFFFFFFFFFFFFFFFFFFFFFFFFFFF AND DUP4 PUSH32 0xF6391F5C32D9C69D2A47EA670B442974B53935D1EDC7FD64EB21E047A839171B PUSH1 0x40 MLOAD PUSH1 0x40 MLOAD DUP1 SWAP2 SUB SWAP1 LOG4 JUMPDEST POP POP JUMP JUMPDEST PUSH1 0x0 PUSH2 0x23E8 DUP3 PUSH2 0xCF4 JUMP JUMPDEST SWAP1 POP PUSH2 0x23F6 DUP2 PUSH1 0x0 DUP5 PUSH2 0x2CC4 JUMP JUMPDEST PUSH2 0x2401 PUSH1 0x0 DUP4 PUSH2 0x1D7F JUMP JUMPDEST PUSH1 0x1 PUSH1 0x3 PUSH1 0x0 DUP4 PUSH20 0xFFFFFFFFFFFFFFFFFFFFFFFFFFFFFFFFFFFFFFFF AND PUSH20 0xFFFFFFFFFFFFFFFFFFFFFFFFFFFFFFFFFFFFFFFF AND DUP2 MSTORE PUSH1 0x20 ADD SWAP1 DUP2 MSTORE PUSH1 0x20 ADD PUSH1 0x0 KECCAK256 PUSH1 0x0 DUP3 DUP3 SLOAD PUSH2 0x2451 SWAP2 SWAP1 PUSH2 0x488E JUMP JUMPDEST SWAP3 POP POP DUP2 SWAP1 SSTORE POP PUSH1 0x2 PUSH1 0x0 DUP4 DUP2 MSTORE PUSH1 0x20 ADD SWAP1 DUP2 MSTORE PUSH1 0x20 ADD PUSH1 0x0 KECCAK256 PUSH1 0x0 PUSH2 0x100 EXP DUP2 SLOAD SWAP1 PUSH20 0xFFFFFFFFFFFFFFFFFFFFFFFFFFFFFFFFFFFFFFFF MUL NOT AND SWAP1 SSTORE DUP2 PUSH1 0x0 PUSH20 0xFFFFFFFFFFFFFFFFFFFFFFFFFFFFFFFFFFFFFFFF AND DUP3 PUSH20 0xFFFFFFFFFFFFFFFFFFFFFFFFFFFFFFFFFFFFFFFF AND PUSH32 0xDDF252AD1BE2C89B69C2B068FC378DAA952BA7F163C4A11628F55A4DF523B3EF PUSH1 0x40 MLOAD PUSH1 0x40 MLOAD DUP1 SWAP2 SUB SWAP1 LOG4 PUSH2 0x24F6 DUP2 PUSH1 0x0 DUP5 PUSH2 0x2CFE JUMP JUMPDEST POP POP JUMP JUMPDEST PUSH2 0x2514 DUP3 DUP3 PUSH1 0x40 MLOAD DUP1 PUSH1 0x20 ADD PUSH1 0x40 MSTORE DUP1 PUSH1 0x0 DUP2 MSTORE POP PUSH2 0x2D03 JUMP JUMPDEST POP POP JUMP JUMPDEST DUP2 PUSH20 0xFFFFFFFFFFFFFFFFFFFFFFFFFFFFFFFFFFFFFFFF AND DUP4 PUSH20 0xFFFFFFFFFFFFFFFFFFFFFFFFFFFFFFFFFFFFFFFF AND EQ ISZERO PUSH2 0x2587 JUMPI PUSH1 0x40 MLOAD PUSH32 0x8C379A000000000000000000000000000000000000000000000000000000000 DUP2 MSTORE PUSH1 0x4 ADD PUSH2 0x257E SWAP1 PUSH2 0x4964 JUMP JUMPDEST PUSH1 0x40 MLOAD DUP1 SWAP2 SUB SWAP1 REVERT JUMPDEST DUP1 PUSH1 0x5 PUSH1 0x0 DUP6 PUSH20 0xFFFFFFFFFFFFFFFFFFFFFFFFFFFFFFFFFFFFFFFF AND PUSH20 0xFFFFFFFFFFFFFFFFFFFFFFFFFFFFFFFFFFFFFFFF AND DUP2 MSTORE PUSH1 0x20 ADD SWAP1 DUP2 MSTORE PUSH1 0x20 ADD PUSH1 0x0 KECCAK256 PUSH1 0x0 DUP5 PUSH20 0xFFFFFFFFFFFFFFFFFFFFFFFFFFFFFFFFFFFFFFFF AND PUSH20 0xFFFFFFFFFFFFFFFFFFFFFFFFFFFFFFFFFFFFFFFF AND DUP2 MSTORE PUSH1 0x20 ADD SWAP1 DUP2 MSTORE PUSH1 0x20 ADD PUSH1 0x0 KECCAK256 PUSH1 0x0 PUSH2 0x100 EXP DUP2 SLOAD DUP2 PUSH1 0xFF MUL NOT AND SWAP1 DUP4 ISZERO ISZERO MUL OR SWAP1 SSTORE POP DUP2 PUSH20 0xFFFFFFFFFFFFFFFFFFFFFFFFFFFFFFFFFFFFFFFF AND DUP4 PUSH20 0xFFFFFFFFFFFFFFFFFFFFFFFFFFFFFFFFFFFFFFFF AND PUSH32 0x17307EAB39AB6107E8899845AD3D59BD9653F200F220920489CA2B5937696C31 DUP4 PUSH1 0x40 MLOAD PUSH2 0x2678 SWAP2 SWAP1 PUSH2 0x32D1 JUMP JUMPDEST PUSH1 0x40 MLOAD DUP1 SWAP2 SUB SWAP1 LOG3 POP POP POP JUMP JUMPDEST PUSH2 0x2690 DUP5 DUP5 DUP5 PUSH2 0x1FB3 JUMP JUMPDEST PUSH2 0x269C DUP5 DUP5 DUP5 DUP5 PUSH2 0x2D5E JUMP JUMPDEST PUSH2 0x26DB JUMPI PUSH1 0x40 MLOAD PUSH32 0x8C379A000000000000000000000000000000000000000000000000000000000 DUP2 MSTORE PUSH1 0x4 ADD PUSH2 0x26D2 SWAP1 PUSH2 0x49F6 JUMP JUMPDEST PUSH1 0x40 MLOAD DUP1 SWAP2 SUB SWAP1 REVERT JUMPDEST POP POP POP POP JUMP JUMPDEST PUSH1 0x60 PUSH1 0x0 DUP3 EQ ISZERO PUSH2 0x2729 JUMPI PUSH1 0x40 MLOAD DUP1 PUSH1 0x40 ADD PUSH1 0x40 MSTORE DUP1 PUSH1 0x1 DUP2 MSTORE PUSH1 0x20 ADD PUSH32 0x3000000000000000000000000000000000000000000000000000000000000000 DUP2 MSTORE POP SWAP1 POP PUSH2 0x283D JUMP JUMPDEST PUSH1 0x0 DUP3 SWAP1 POP PUSH1 0x0 JUMPDEST PUSH1 0x0 DUP3 EQ PUSH2 0x275B JUMPI DUP1 DUP1 PUSH2 0x2744 SWAP1 PUSH2 0x40AB JUMP JUMPDEST SWAP2 POP POP PUSH1 0xA DUP3 PUSH2 0x2754 SWAP2 SWAP1 PUSH2 0x4A45 JUMP JUMPDEST SWAP2 POP PUSH2 0x2731 JUMP JUMPDEST PUSH1 0x0 DUP2 PUSH8 0xFFFFFFFFFFFFFFFF DUP2 GT ISZERO PUSH2 0x2777 JUMPI PUSH2 0x2776 PUSH2 0x38A1 JUMP JUMPDEST JUMPDEST PUSH1 0x40 MLOAD SWAP1 DUP1 DUP3 MSTORE DUP1 PUSH1 0x1F ADD PUSH1 0x1F NOT AND PUSH1 0x20 ADD DUP3 ADD PUSH1 0x40 MSTORE DUP1 ISZERO PUSH2 0x27A9 JUMPI DUP2 PUSH1 0x20 ADD PUSH1 0x1 DUP3 MUL DUP1 CALLDATASIZE DUP4 CALLDATACOPY DUP1 DUP3 ADD SWAP2 POP POP SWAP1 POP JUMPDEST POP SWAP1 POP JUMPDEST PUSH1 0x0 DUP6 EQ PUSH2 0x2836 JUMPI PUSH1 0x1 DUP3 PUSH2 0x27C2 SWAP2 SWAP1 PUSH2 0x488E JUMP JUMPDEST SWAP2 POP PUSH1 0xA DUP6 PUSH2 0x27D1 SWAP2 SWAP1 PUSH2 0x4A76 JUMP JUMPDEST PUSH1 0x30 PUSH2 0x27DD SWAP2 SWAP1 PUSH2 0x48C2 JUMP JUMPDEST PUSH1 0xF8 SHL DUP2 DUP4 DUP2 MLOAD DUP2 LT PUSH2 0x27F3 JUMPI PUSH2 0x27F2 PUSH2 0x4351 JUMP JUMPDEST JUMPDEST PUSH1 0x20 ADD ADD SWAP1 PUSH31 0xFFFFFFFFFFFFFFFFFFFFFFFFFFFFFFFFFFFFFFFFFFFFFFFFFFFFFFFFFFFFFF NOT AND SWAP1 DUP2 PUSH1 0x0 BYTE SWAP1 MSTORE8 POP PUSH1 0xA DUP6 PUSH2 0x282F SWAP2 SWAP1 PUSH2 0x4A45 JUMP JUMPDEST SWAP5 POP PUSH2 0x27AD JUMP JUMPDEST DUP1 SWAP4 POP POP POP POP JUMPDEST SWAP2 SWAP1 POP JUMP JUMPDEST PUSH1 0x60 PUSH1 0x0 DUP3 MLOAD EQ ISZERO PUSH2 0x2865 JUMPI PUSH1 0x40 MLOAD DUP1 PUSH1 0x20 ADD PUSH1 0x40 MSTORE DUP1 PUSH1 0x0 DUP2 MSTORE POP SWAP1 POP PUSH2 0x29A1 JUMP JUMPDEST PUSH1 0x0 PUSH1 0x40 MLOAD DUP1 PUSH1 0x60 ADD PUSH1 0x40 MSTORE DUP1 PUSH1 0x40 DUP2 MSTORE PUSH1 0x20 ADD PUSH2 0x4D30 PUSH1 0x40 SWAP2 CODECOPY SWAP1 POP PUSH1 0x0 PUSH1 0x3 PUSH1 0x2 DUP6 MLOAD PUSH2 0x2894 SWAP2 SWAP1 PUSH2 0x48C2 JUMP JUMPDEST PUSH2 0x289E SWAP2 SWAP1 PUSH2 0x4A45 JUMP JUMPDEST PUSH1 0x4 PUSH2 0x28AA SWAP2 SWAP1 PUSH2 0x4AA7 JUMP JUMPDEST PUSH8 0xFFFFFFFFFFFFFFFF DUP2 GT ISZERO PUSH2 0x28C3 JUMPI PUSH2 0x28C2 PUSH2 0x38A1 JUMP JUMPDEST JUMPDEST PUSH1 0x40 MLOAD SWAP1 DUP1 DUP3 MSTORE DUP1 PUSH1 0x1F ADD PUSH1 0x1F NOT AND PUSH1 0x20 ADD DUP3 ADD PUSH1 0x40 MSTORE DUP1 ISZERO PUSH2 0x28F5 JUMPI DUP2 PUSH1 0x20 ADD PUSH1 0x1 DUP3 MUL DUP1 CALLDATASIZE DUP4 CALLDATACOPY DUP1 DUP3 ADD SWAP2 POP POP SWAP1 POP JUMPDEST POP SWAP1 POP PUSH1 0x1 DUP3 ADD PUSH1 0x20 DUP3 ADD DUP6 DUP7 MLOAD DUP8 ADD JUMPDEST DUP1 DUP3 LT ISZERO PUSH2 0x2961 JUMPI PUSH1 0x3 DUP3 ADD SWAP2 POP DUP2 MLOAD PUSH1 0x3F DUP2 PUSH1 0x12 SHR AND DUP6 ADD MLOAD DUP5 MSTORE8 PUSH1 0x1 DUP5 ADD SWAP4 POP PUSH1 0x3F DUP2 PUSH1 0xC SHR AND DUP6 ADD MLOAD DUP5 MSTORE8 PUSH1 0x1 DUP5 ADD SWAP4 POP PUSH1 0x3F DUP2 PUSH1 0x6 SHR AND DUP6 ADD MLOAD DUP5 MSTORE8 PUSH1 0x1 DUP5 ADD SWAP4 POP PUSH1 0x3F DUP2 AND DUP6 ADD MLOAD DUP5 MSTORE8 PUSH1 0x1 DUP5 ADD SWAP4 POP POP PUSH2 0x2906 JUMP JUMPDEST POP POP PUSH1 0x3 DUP7 MLOAD MOD PUSH1 0x1 DUP2 EQ PUSH2 0x297D JUMPI PUSH1 0x2 DUP2 EQ PUSH2 0x2990 JUMPI PUSH2 0x2998 JUMP JUMPDEST PUSH1 0x3D PUSH1 0x1 DUP4 SUB MSTORE8 PUSH1 0x3D PUSH1 0x2 DUP4 SUB MSTORE8 PUSH2 0x2998 JUMP JUMPDEST PUSH1 0x3D PUSH1 0x1 DUP4 SUB MSTORE8 JUMPDEST POP POP POP DUP1 SWAP3 POP POP POP JUMPDEST SWAP2 SWAP1 POP JUMP JUMPDEST PUSH1 0x0 PUSH32 0x80AC58CD00000000000000000000000000000000000000000000000000000000 PUSH28 0xFFFFFFFFFFFFFFFFFFFFFFFFFFFFFFFFFFFFFFFFFFFFFFFFFFFFFFFF NOT AND DUP3 PUSH28 0xFFFFFFFFFFFFFFFFFFFFFFFFFFFFFFFFFFFFFFFFFFFFFFFFFFFFFFFF NOT AND EQ DUP1 PUSH2 0x2A71 JUMPI POP PUSH32 0x5B5E139F00000000000000000000000000000000000000000000000000000000 PUSH28 0xFFFFFFFFFFFFFFFFFFFFFFFFFFFFFFFFFFFFFFFFFFFFFFFFFFFFFFFF NOT AND DUP3 PUSH28 0xFFFFFFFFFFFFFFFFFFFFFFFFFFFFFFFFFFFFFFFFFFFFFFFFFFFFFFFF NOT AND EQ JUMPDEST DUP1 PUSH2 0x2A81 JUMPI POP PUSH2 0x2A80 DUP3 PUSH2 0x2EE6 JUMP JUMPDEST JUMPDEST SWAP1 POP SWAP2 SWAP1 POP JUMP JUMPDEST PUSH1 0x60 PUSH1 0x0 PUSH1 0x2 DUP4 PUSH1 0x2 PUSH2 0x2A9B SWAP2 SWAP1 PUSH2 0x4AA7 JUMP JUMPDEST PUSH2 0x2AA5 SWAP2 SWAP1 PUSH2 0x48C2 JUMP JUMPDEST PUSH8 0xFFFFFFFFFFFFFFFF DUP2 GT ISZERO PUSH2 0x2ABE JUMPI PUSH2 0x2ABD PUSH2 0x38A1 JUMP JUMPDEST JUMPDEST PUSH1 0x40 MLOAD SWAP1 DUP1 DUP3 MSTORE DUP1 PUSH1 0x1F ADD PUSH1 0x1F NOT AND PUSH1 0x20 ADD DUP3 ADD PUSH1 0x40 MSTORE DUP1 ISZERO PUSH2 0x2AF0 JUMPI DUP2 PUSH1 0x20 ADD PUSH1 0x1 DUP3 MUL DUP1 CALLDATASIZE DUP4 CALLDATACOPY DUP1 DUP3 ADD SWAP2 POP POP SWAP1 POP JUMPDEST POP SWAP1 POP PUSH32 0x3000000000000000000000000000000000000000000000000000000000000000 DUP2 PUSH1 0x0 DUP2 MLOAD DUP2 LT PUSH2 0x2B28 JUMPI PUSH2 0x2B27 PUSH2 0x4351 JUMP JUMPDEST JUMPDEST PUSH1 0x20 ADD ADD SWAP1 PUSH31 0xFFFFFFFFFFFFFFFFFFFFFFFFFFFFFFFFFFFFFFFFFFFFFFFFFFFFFFFFFFFFFF NOT AND SWAP1 DUP2 PUSH1 0x0 BYTE SWAP1 MSTORE8 POP PUSH32 0x7800000000000000000000000000000000000000000000000000000000000000 DUP2 PUSH1 0x1 DUP2 MLOAD DUP2 LT PUSH2 0x2B8C JUMPI PUSH2 0x2B8B PUSH2 0x4351 JUMP JUMPDEST JUMPDEST PUSH1 0x20 ADD ADD SWAP1 PUSH31 0xFFFFFFFFFFFFFFFFFFFFFFFFFFFFFFFFFFFFFFFFFFFFFFFFFFFFFFFFFFFFFF NOT AND SWAP1 DUP2 PUSH1 0x0 BYTE SWAP1 MSTORE8 POP PUSH1 0x0 PUSH1 0x1 DUP5 PUSH1 0x2 PUSH2 0x2BCC SWAP2 SWAP1 PUSH2 0x4AA7 JUMP JUMPDEST PUSH2 0x2BD6 SWAP2 SWAP1 PUSH2 0x48C2 JUMP JUMPDEST SWAP1 POP JUMPDEST PUSH1 0x1 DUP2 GT ISZERO PUSH2 0x2C76 JUMPI PUSH32 0x3031323334353637383961626364656600000000000000000000000000000000 PUSH1 0xF DUP7 AND PUSH1 0x10 DUP2 LT PUSH2 0x2C18 JUMPI PUSH2 0x2C17 PUSH2 0x4351 JUMP JUMPDEST JUMPDEST BYTE PUSH1 0xF8 SHL DUP3 DUP3 DUP2 MLOAD DUP2 LT PUSH2 0x2C2F JUMPI PUSH2 0x2C2E PUSH2 0x4351 JUMP JUMPDEST JUMPDEST PUSH1 0x20 ADD ADD SWAP1 PUSH31 0xFFFFFFFFFFFFFFFFFFFFFFFFFFFFFFFFFFFFFFFFFFFFFFFFFFFFFFFFFFFFFF NOT AND SWAP1 DUP2 PUSH1 0x0 BYTE SWAP1 MSTORE8 POP PUSH1 0x4 DUP6 SWAP1 SHR SWAP5 POP DUP1 PUSH2 0x2C6F SWAP1 PUSH2 0x4B01 JUMP JUMPDEST SWAP1 POP PUSH2 0x2BD9 JUMP JUMPDEST POP PUSH1 0x0 DUP5 EQ PUSH2 0x2CBA JUMPI PUSH1 0x40 MLOAD PUSH32 0x8C379A000000000000000000000000000000000000000000000000000000000 DUP2 MSTORE PUSH1 0x4 ADD PUSH2 0x2CB1 SWAP1 PUSH2 0x4B77 JUMP JUMPDEST PUSH1 0x40 MLOAD DUP1 SWAP2 SUB SWAP1 REVERT JUMPDEST DUP1 SWAP2 POP POP SWAP3 SWAP2 POP POP JUMP JUMPDEST PUSH2 0x2CEE PUSH32 0x9F2DF0FED2C77648DE5860A4CC508CD0818C85B8B8A1AB4CEEEF8D981C8956A6 CALLER PUSH2 0x1E38 JUMP JUMPDEST PUSH2 0x2CF9 DUP4 DUP4 DUP4 PUSH2 0x2F50 JUMP JUMPDEST POP POP POP JUMP JUMPDEST POP POP POP JUMP JUMPDEST PUSH2 0x2D0D DUP4 DUP4 PUSH2 0x2F55 JUMP JUMPDEST PUSH2 0x2D1A PUSH1 0x0 DUP5 DUP5 DUP5 PUSH2 0x2D5E JUMP JUMPDEST PUSH2 0x2D59 JUMPI PUSH1 0x40 MLOAD PUSH32 0x8C379A000000000000000000000000000000000000000000000000000000000 DUP2 MSTORE PUSH1 0x4 ADD PUSH2 0x2D50 SWAP1 PUSH2 0x49F6 JUMP JUMPDEST PUSH1 0x40 MLOAD DUP1 SWAP2 SUB SWAP1 REVERT JUMPDEST POP POP POP JUMP JUMPDEST PUSH1 0x0 PUSH2 0x2D7F DUP5 PUSH20 0xFFFFFFFFFFFFFFFFFFFFFFFFFFFFFFFFFFFFFFFF AND PUSH2 0x312F JUMP JUMPDEST ISZERO PUSH2 0x2ED9 JUMPI DUP4 PUSH20 0xFFFFFFFFFFFFFFFFFFFFFFFFFFFFFFFFFFFFFFFF AND PUSH4 0x150B7A02 PUSH2 0x2DA8 PUSH2 0x1D77 JUMP JUMPDEST DUP8 DUP7 DUP7 PUSH1 0x40 MLOAD DUP6 PUSH4 0xFFFFFFFF AND PUSH1 0xE0 SHL DUP2 MSTORE PUSH1 0x4 ADD PUSH2 0x2DCA SWAP5 SWAP4 SWAP3 SWAP2 SWAP1 PUSH2 0x4B97 JUMP JUMPDEST PUSH1 0x20 PUSH1 0x40 MLOAD DUP1 DUP4 SUB DUP2 PUSH1 0x0 DUP8 GAS CALL SWAP3 POP POP POP DUP1 ISZERO PUSH2 0x2E06 JUMPI POP PUSH1 0x40 MLOAD RETURNDATASIZE PUSH1 0x1F NOT PUSH1 0x1F DUP3 ADD AND DUP3 ADD DUP1 PUSH1 0x40 MSTORE POP DUP2 ADD SWAP1 PUSH2 0x2E03 SWAP2 SWAP1 PUSH2 0x4BF8 JUMP JUMPDEST PUSH1 0x1 JUMPDEST PUSH2 0x2E89 JUMPI RETURNDATASIZE DUP1 PUSH1 0x0 DUP2 EQ PUSH2 0x2E36 JUMPI PUSH1 0x40 MLOAD SWAP2 POP PUSH1 0x1F NOT PUSH1 0x3F RETURNDATASIZE ADD AND DUP3 ADD PUSH1 0x40 MSTORE RETURNDATASIZE DUP3 MSTORE RETURNDATASIZE PUSH1 0x0 PUSH1 0x20 DUP5 ADD RETURNDATACOPY PUSH2 0x2E3B JUMP JUMPDEST PUSH1 0x60 SWAP2 POP JUMPDEST POP PUSH1 0x0 DUP2 MLOAD EQ ISZERO PUSH2 0x2E81 JUMPI PUSH1 0x40 MLOAD PUSH32 0x8C379A000000000000000000000000000000000000000000000000000000000 DUP2 MSTORE PUSH1 0x4 ADD PUSH2 0x2E78 SWAP1 PUSH2 0x49F6 JUMP JUMPDEST PUSH1 0x40 MLOAD DUP1 SWAP2 SUB SWAP1 REVERT JUMPDEST DUP1 MLOAD DUP2 PUSH1 0x20 ADD REVERT JUMPDEST PUSH4 0x150B7A02 PUSH1 0xE0 SHL PUSH28 0xFFFFFFFFFFFFFFFFFFFFFFFFFFFFFFFFFFFFFFFFFFFFFFFFFFFFFFFF NOT AND DUP2 PUSH28 0xFFFFFFFFFFFFFFFFFFFFFFFFFFFFFFFFFFFFFFFFFFFFFFFFFFFFFFFF NOT AND EQ SWAP2 POP POP PUSH2 0x2EDE JUMP JUMPDEST PUSH1 0x1 SWAP1 POP JUMPDEST SWAP5 SWAP4 POP POP POP POP JUMP JUMPDEST PUSH1 0x0 PUSH32 0x1FFC9A700000000000000000000000000000000000000000000000000000000 PUSH28 0xFFFFFFFFFFFFFFFFFFFFFFFFFFFFFFFFFFFFFFFFFFFFFFFFFFFFFFFF NOT AND DUP3 PUSH28 0xFFFFFFFFFFFFFFFFFFFFFFFFFFFFFFFFFFFFFFFFFFFFFFFFFFFFFFFF NOT AND EQ SWAP1 POP SWAP2 SWAP1 POP JUMP JUMPDEST POP POP POP JUMP JUMPDEST PUSH1 0x0 PUSH20 0xFFFFFFFFFFFFFFFFFFFFFFFFFFFFFFFFFFFFFFFF AND DUP3 PUSH20 0xFFFFFFFFFFFFFFFFFFFFFFFFFFFFFFFFFFFFFFFF AND EQ ISZERO PUSH2 0x2FC5 JUMPI PUSH1 0x40 MLOAD PUSH32 0x8C379A000000000000000000000000000000000000000000000000000000000 DUP2 MSTORE PUSH1 0x4 ADD PUSH2 0x2FBC SWAP1 PUSH2 0x4C71 JUMP JUMPDEST PUSH1 0x40 MLOAD DUP1 SWAP2 SUB SWAP1 REVERT JUMPDEST PUSH2 0x2FCE DUP2 PUSH2 0x1D0B JUMP JUMPDEST ISZERO PUSH2 0x300E JUMPI PUSH1 0x40 MLOAD PUSH32 0x8C379A000000000000000000000000000000000000000000000000000000000 DUP2 MSTORE PUSH1 0x4 ADD PUSH2 0x3005 SWAP1 PUSH2 0x4CDD JUMP JUMPDEST PUSH1 0x40 MLOAD DUP1 SWAP2 SUB SWAP1 REVERT JUMPDEST PUSH2 0x301A PUSH1 0x0 DUP4 DUP4 PUSH2 0x2CC4 JUMP JUMPDEST PUSH1 0x1 PUSH1 0x3 PUSH1 0x0 DUP5 PUSH20 0xFFFFFFFFFFFFFFFFFFFFFFFFFFFFFFFFFFFFFFFF AND PUSH20 0xFFFFFFFFFFFFFFFFFFFFFFFFFFFFFFFFFFFFFFFF AND DUP2 MSTORE PUSH1 0x20 ADD SWAP1 DUP2 MSTORE PUSH1 0x20 ADD PUSH1 0x0 KECCAK256 PUSH1 0x0 DUP3 DUP3 SLOAD PUSH2 0x306A SWAP2 SWAP1 PUSH2 0x48C2 JUMP JUMPDEST SWAP3 POP POP DUP2 SWAP1 SSTORE POP DUP2 PUSH1 0x2 PUSH1 0x0 DUP4 DUP2 MSTORE PUSH1 0x20 ADD SWAP1 DUP2 MSTORE PUSH1 0x20 ADD PUSH1 0x0 KECCAK256 PUSH1 0x0 PUSH2 0x100 EXP DUP2 SLOAD DUP2 PUSH20 0xFFFFFFFFFFFFFFFFFFFFFFFFFFFFFFFFFFFFFFFF MUL NOT AND SWAP1 DUP4 PUSH20 0xFFFFFFFFFFFFFFFFFFFFFFFFFFFFFFFFFFFFFFFF AND MUL OR SWAP1 SSTORE POP DUP1 DUP3 PUSH20 0xFFFFFFFFFFFFFFFFFFFFFFFFFFFFFFFFFFFFFFFF AND PUSH1 0x0 PUSH20 0xFFFFFFFFFFFFFFFFFFFFFFFFFFFFFFFFFFFFFFFF AND PUSH32 0xDDF252AD1BE2C89B69C2B068FC378DAA952BA7F163C4A11628F55A4DF523B3EF PUSH1 0x40 MLOAD PUSH1 0x40 MLOAD DUP1 SWAP2 SUB SWAP1 LOG4 PUSH2 0x312B PUSH1 0x0 DUP4 DUP4 PUSH2 0x2CFE JUMP JUMPDEST POP POP JUMP JUMPDEST PUSH1 0x0 DUP1 DUP3 PUSH20 0xFFFFFFFFFFFFFFFFFFFFFFFFFFFFFFFFFFFFFFFF AND EXTCODESIZE GT SWAP1 POP SWAP2 SWAP1 POP JUMP JUMPDEST DUP3 DUP1 SLOAD PUSH2 0x315E SWAP1 PUSH2 0x3ABE JUMP JUMPDEST SWAP1 PUSH1 0x0 MSTORE PUSH1 0x20 PUSH1 0x0 KECCAK256 SWAP1 PUSH1 0x1F ADD PUSH1 0x20 SWAP1 DIV DUP2 ADD SWAP3 DUP3 PUSH2 0x3180 JUMPI PUSH1 0x0 DUP6 SSTORE PUSH2 0x31C7 JUMP JUMPDEST DUP3 PUSH1 0x1F LT PUSH2 0x3199 JUMPI DUP1 CALLDATALOAD PUSH1 0xFF NOT AND DUP4 DUP1 ADD OR DUP6 SSTORE PUSH2 0x31C7 JUMP JUMPDEST DUP3 DUP1 ADD PUSH1 0x1 ADD DUP6 SSTORE DUP3 ISZERO PUSH2 0x31C7 JUMPI SWAP2 DUP3 ADD JUMPDEST DUP3 DUP2 GT ISZERO PUSH2 0x31C6 JUMPI DUP3 CALLDATALOAD DUP3 SSTORE SWAP2 PUSH1 0x20 ADD SWAP2 SWAP1 PUSH1 0x1 ADD SWAP1 PUSH2 0x31AB JUMP JUMPDEST JUMPDEST POP SWAP1 POP PUSH2 0x31D4 SWAP2 SWAP1 PUSH2 0x3200 JUMP JUMPDEST POP SWAP1 JUMP JUMPDEST PUSH1 0x40 MLOAD DUP1 PUSH2 0x180 ADD PUSH1 0x40 MSTORE DUP1 PUSH1 0xC SWAP1 JUMPDEST PUSH1 0x60 DUP2 MSTORE PUSH1 0x20 ADD SWAP1 PUSH1 0x1 SWAP1 SUB SWAP1 DUP2 PUSH2 0x31E8 JUMPI SWAP1 POP POP SWAP1 JUMP JUMPDEST JUMPDEST DUP1 DUP3 GT ISZERO PUSH2 0x3219 JUMPI PUSH1 0x0 DUP2 PUSH1 0x0 SWAP1 SSTORE POP PUSH1 0x1 ADD PUSH2 0x3201 JUMP JUMPDEST POP SWAP1 JUMP JUMPDEST PUSH1 0x0 PUSH1 0x40 MLOAD SWAP1 POP SWAP1 JUMP JUMPDEST PUSH1 0x0 DUP1 REVERT JUMPDEST PUSH1 0x0 DUP1 REVERT JUMPDEST PUSH1 0x0 PUSH32 0xFFFFFFFF00000000000000000000000000000000000000000000000000000000 DUP3 AND SWAP1 POP SWAP2 SWAP1 POP JUMP JUMPDEST PUSH2 0x3266 DUP2 PUSH2 0x3231 JUMP JUMPDEST DUP2 EQ PUSH2 0x3271 JUMPI PUSH1 0x0 DUP1 REVERT JUMPDEST POP JUMP JUMPDEST PUSH1 0x0 DUP2 CALLDATALOAD SWAP1 POP PUSH2 0x3283 DUP2 PUSH2 0x325D JUMP JUMPDEST SWAP3 SWAP2 POP POP JUMP JUMPDEST PUSH1 0x0 PUSH1 0x20 DUP3 DUP5 SUB SLT ISZERO PUSH2 0x329F JUMPI PUSH2 0x329E PUSH2 0x3227 JUMP JUMPDEST JUMPDEST PUSH1 0x0 PUSH2 0x32AD DUP5 DUP3 DUP6 ADD PUSH2 0x3274 JUMP JUMPDEST SWAP2 POP POP SWAP3 SWAP2 POP POP JUMP JUMPDEST PUSH1 0x0 DUP2 ISZERO ISZERO SWAP1 POP SWAP2 SWAP1 POP JUMP JUMPDEST PUSH2 0x32CB DUP2 PUSH2 0x32B6 JUMP JUMPDEST DUP3 MSTORE POP POP JUMP JUMPDEST PUSH1 0x0 PUSH1 0x20 DUP3 ADD SWAP1 POP PUSH2 0x32E6 PUSH1 0x0 DUP4 ADD DUP5 PUSH2 0x32C2 JUMP JUMPDEST SWAP3 SWAP2 POP POP JUMP JUMPDEST PUSH1 0x0 DUP2 MLOAD SWAP1 POP SWAP2 SWAP1 POP JUMP JUMPDEST PUSH1 0x0 DUP3 DUP3 MSTORE PUSH1 0x20 DUP3 ADD SWAP1 POP SWAP3 SWAP2 POP POP JUMP JUMPDEST PUSH1 0x0 JUMPDEST DUP4 DUP2 LT ISZERO PUSH2 0x3326 JUMPI DUP1 DUP3 ADD MLOAD DUP2 DUP5 ADD MSTORE PUSH1 0x20 DUP2 ADD SWAP1 POP PUSH2 0x330B JUMP JUMPDEST DUP4 DUP2 GT ISZERO PUSH2 0x3335 JUMPI PUSH1 0x0 DUP5 DUP5 ADD MSTORE JUMPDEST POP POP POP POP JUMP JUMPDEST PUSH1 0x0 PUSH1 0x1F NOT PUSH1 0x1F DUP4 ADD AND SWAP1 POP SWAP2 SWAP1 POP JUMP JUMPDEST PUSH1 0x0 PUSH2 0x3357 DUP3 PUSH2 0x32EC JUMP JUMPDEST PUSH2 0x3361 DUP2 DUP6 PUSH2 0x32F7 JUMP JUMPDEST SWAP4 POP PUSH2 0x3371 DUP2 DUP6 PUSH1 0x20 DUP7 ADD PUSH2 0x3308 JUMP JUMPDEST PUSH2 0x337A DUP2 PUSH2 0x333B JUMP JUMPDEST DUP5 ADD SWAP2 POP POP SWAP3 SWAP2 POP POP JUMP JUMPDEST PUSH1 0x0 PUSH1 0x20 DUP3 ADD SWAP1 POP DUP2 DUP2 SUB PUSH1 0x0 DUP4 ADD MSTORE PUSH2 0x339F DUP2 DUP5 PUSH2 0x334C JUMP JUMPDEST SWAP1 POP SWAP3 SWAP2 POP POP JUMP JUMPDEST PUSH1 0x0 DUP2 SWAP1 POP SWAP2 SWAP1 POP JUMP JUMPDEST PUSH2 0x33BA DUP2 PUSH2 0x33A7 JUMP JUMPDEST DUP2 EQ PUSH2 0x33C5 JUMPI PUSH1 0x0 DUP1 REVERT JUMPDEST POP JUMP JUMPDEST PUSH1 0x0 DUP2 CALLDATALOAD SWAP1 POP PUSH2 0x33D7 DUP2 PUSH2 0x33B1 JUMP JUMPDEST SWAP3 SWAP2 POP POP JUMP JUMPDEST PUSH1 0x0 PUSH1 0x20 DUP3 DUP5 SUB SLT ISZERO PUSH2 0x33F3 JUMPI PUSH2 0x33F2 PUSH2 0x3227 JUMP JUMPDEST JUMPDEST PUSH1 0x0 PUSH2 0x3401 DUP5 DUP3 DUP6 ADD PUSH2 0x33C8 JUMP JUMPDEST SWAP2 POP POP SWAP3 SWAP2 POP POP JUMP JUMPDEST PUSH1 0x0 PUSH20 0xFFFFFFFFFFFFFFFFFFFFFFFFFFFFFFFFFFFFFFFF DUP3 AND SWAP1 POP SWAP2 SWAP1 POP JUMP JUMPDEST PUSH1 0x0 PUSH2 0x3435 DUP3 PUSH2 0x340A JUMP JUMPDEST SWAP1 POP SWAP2 SWAP1 POP JUMP JUMPDEST PUSH2 0x3445 DUP2 PUSH2 0x342A JUMP JUMPDEST DUP3 MSTORE POP POP JUMP JUMPDEST PUSH1 0x0 PUSH1 0x20 DUP3 ADD SWAP1 POP PUSH2 0x3460 PUSH1 0x0 DUP4 ADD DUP5 PUSH2 0x343C JUMP JUMPDEST SWAP3 SWAP2 POP POP JUMP JUMPDEST PUSH2 0x346F DUP2 PUSH2 0x342A JUMP JUMPDEST DUP2 EQ PUSH2 0x347A JUMPI PUSH1 0x0 DUP1 REVERT JUMPDEST POP JUMP JUMPDEST PUSH1 0x0 DUP2 CALLDATALOAD SWAP1 POP PUSH2 0x348C DUP2 PUSH2 0x3466 JUMP JUMPDEST SWAP3 SWAP2 POP POP JUMP JUMPDEST PUSH1 0x0 DUP1 PUSH1 0x40 DUP4 DUP6 SUB SLT ISZERO PUSH2 0x34A9 JUMPI PUSH2 0x34A8 PUSH2 0x3227 JUMP JUMPDEST JUMPDEST PUSH1 0x0 PUSH2 0x34B7 DUP6 DUP3 DUP7 ADD PUSH2 0x347D JUMP JUMPDEST SWAP3 POP POP PUSH1 0x20 PUSH2 0x34C8 DUP6 DUP3 DUP7 ADD PUSH2 0x33C8 JUMP JUMPDEST SWAP2 POP POP SWAP3 POP SWAP3 SWAP1 POP JUMP JUMPDEST PUSH1 0x0 DUP1 PUSH1 0x40 DUP4 DUP6 SUB SLT ISZERO PUSH2 0x34E9 JUMPI PUSH2 0x34E8 PUSH2 0x3227 JUMP JUMPDEST JUMPDEST PUSH1 0x0 PUSH2 0x34F7 DUP6 DUP3 DUP7 ADD PUSH2 0x33C8 JUMP JUMPDEST SWAP3 POP POP PUSH1 0x20 PUSH2 0x3508 DUP6 DUP3 DUP7 ADD PUSH2 0x347D JUMP JUMPDEST SWAP2 POP POP SWAP3 POP SWAP3 SWAP1 POP JUMP JUMPDEST PUSH2 0x351B DUP2 PUSH2 0x33A7 JUMP JUMPDEST DUP3 MSTORE POP POP JUMP JUMPDEST PUSH1 0x0 PUSH1 0x20 DUP3 ADD SWAP1 POP PUSH2 0x3536 PUSH1 0x0 DUP4 ADD DUP5 PUSH2 0x3512 JUMP JUMPDEST SWAP3 SWAP2 POP POP JUMP JUMPDEST PUSH1 0x0 DUP1 PUSH1 0x0 PUSH1 0x60 DUP5 DUP7 SUB SLT ISZERO PUSH2 0x3555 JUMPI PUSH2 0x3554 PUSH2 0x3227 JUMP JUMPDEST JUMPDEST PUSH1 0x0 PUSH2 0x3563 DUP7 DUP3 DUP8 ADD PUSH2 0x347D JUMP JUMPDEST SWAP4 POP POP PUSH1 0x20 PUSH2 0x3574 DUP7 DUP3 DUP8 ADD PUSH2 0x347D JUMP JUMPDEST SWAP3 POP POP PUSH1 0x40 PUSH2 0x3585 DUP7 DUP3 DUP8 ADD PUSH2 0x33C8 JUMP JUMPDEST SWAP2 POP POP SWAP3 POP SWAP3 POP SWAP3 JUMP JUMPDEST PUSH1 0x0 DUP2 SWAP1 POP SWAP2 SWAP1 POP JUMP JUMPDEST PUSH2 0x35A2 DUP2 PUSH2 0x358F JUMP JUMPDEST DUP2 EQ PUSH2 0x35AD JUMPI PUSH1 0x0 DUP1 REVERT JUMPDEST POP JUMP JUMPDEST PUSH1 0x0 DUP2 CALLDATALOAD SWAP1 POP PUSH2 0x35BF DUP2 PUSH2 0x3599 JUMP JUMPDEST SWAP3 SWAP2 POP POP JUMP JUMPDEST PUSH1 0x0 PUSH1 0x20 DUP3 DUP5 SUB SLT ISZERO PUSH2 0x35DB JUMPI PUSH2 0x35DA PUSH2 0x3227 JUMP JUMPDEST JUMPDEST PUSH1 0x0 PUSH2 0x35E9 DUP5 DUP3 DUP6 ADD PUSH2 0x35B0 JUMP JUMPDEST SWAP2 POP POP SWAP3 SWAP2 POP POP JUMP JUMPDEST PUSH2 0x35FB DUP2 PUSH2 0x358F JUMP JUMPDEST DUP3 MSTORE POP POP JUMP JUMPDEST PUSH1 0x0 PUSH1 0x20 DUP3 ADD SWAP1 POP PUSH2 0x3616 PUSH1 0x0 DUP4 ADD DUP5 PUSH2 0x35F2 JUMP JUMPDEST SWAP3 SWAP2 POP POP JUMP JUMPDEST PUSH1 0x0 DUP1 PUSH1 0x40 DUP4 DUP6 SUB SLT ISZERO PUSH2 0x3633 JUMPI PUSH2 0x3632 PUSH2 0x3227 JUMP JUMPDEST JUMPDEST PUSH1 0x0 PUSH2 0x3641 DUP6 DUP3 DUP7 ADD PUSH2 0x35B0 JUMP JUMPDEST SWAP3 POP POP PUSH1 0x20 PUSH2 0x3652 DUP6 DUP3 DUP7 ADD PUSH2 0x347D JUMP JUMPDEST SWAP2 POP POP SWAP3 POP SWAP3 SWAP1 POP JUMP JUMPDEST PUSH1 0x0 DUP1 REVERT JUMPDEST PUSH1 0x0 DUP1 REVERT JUMPDEST PUSH1 0x0 DUP1 REVERT JUMPDEST PUSH1 0x0 DUP1 DUP4 PUSH1 0x1F DUP5 ADD SLT PUSH2 0x3681 JUMPI PUSH2 0x3680 PUSH2 0x365C JUMP JUMPDEST JUMPDEST DUP3 CALLDATALOAD SWAP1 POP PUSH8 0xFFFFFFFFFFFFFFFF DUP2 GT ISZERO PUSH2 0x369E JUMPI PUSH2 0x369D PUSH2 0x3661 JUMP JUMPDEST JUMPDEST PUSH1 0x20 DUP4 ADD SWAP2 POP DUP4 PUSH1 0x1 DUP3 MUL DUP4 ADD GT ISZERO PUSH2 0x36BA JUMPI PUSH2 0x36B9 PUSH2 0x3666 JUMP JUMPDEST JUMPDEST SWAP3 POP SWAP3 SWAP1 POP JUMP JUMPDEST PUSH1 0x0 DUP1 PUSH1 0x0 PUSH1 0x40 DUP5 DUP7 SUB SLT ISZERO PUSH2 0x36DA JUMPI PUSH2 0x36D9 PUSH2 0x3227 JUMP JUMPDEST JUMPDEST PUSH1 0x0 PUSH2 0x36E8 DUP7 DUP3 DUP8 ADD PUSH2 0x33C8 JUMP JUMPDEST SWAP4 POP POP PUSH1 0x20 DUP5 ADD CALLDATALOAD PUSH8 0xFFFFFFFFFFFFFFFF DUP2 GT ISZERO PUSH2 0x3709 JUMPI PUSH2 0x3708 PUSH2 0x322C JUMP JUMPDEST JUMPDEST PUSH2 0x3715 DUP7 DUP3 DUP8 ADD PUSH2 0x366B JUMP JUMPDEST SWAP3 POP SWAP3 POP POP SWAP3 POP SWAP3 POP SWAP3 JUMP JUMPDEST PUSH1 0x0 PUSH1 0x20 DUP3 DUP5 SUB SLT ISZERO PUSH2 0x3737 JUMPI PUSH2 0x3736 PUSH2 0x3227 JUMP JUMPDEST JUMPDEST PUSH1 0x0 PUSH2 0x3745 DUP5 DUP3 DUP6 ADD PUSH2 0x347D JUMP JUMPDEST SWAP2 POP POP SWAP3 SWAP2 POP POP JUMP JUMPDEST PUSH1 0x0 DUP1 PUSH1 0x0 DUP1 PUSH1 0x0 DUP1 PUSH1 0x0 DUP1 PUSH1 0x0 PUSH1 0xE0 DUP11 DUP13 SUB SLT ISZERO PUSH2 0x3770 JUMPI PUSH2 0x376F PUSH2 0x3227 JUMP JUMPDEST JUMPDEST PUSH1 0x0 PUSH2 0x377E DUP13 DUP3 DUP14 ADD PUSH2 0x347D JUMP JUMPDEST SWAP10 POP POP PUSH1 0x20 PUSH2 0x378F DUP13 DUP3 DUP14 ADD PUSH2 0x33C8 JUMP JUMPDEST SWAP9 POP POP PUSH1 0x40 PUSH2 0x37A0 DUP13 DUP3 DUP14 ADD PUSH2 0x33C8 JUMP JUMPDEST SWAP8 POP POP PUSH1 0x60 PUSH2 0x37B1 DUP13 DUP3 DUP14 ADD PUSH2 0x33C8 JUMP JUMPDEST SWAP7 POP POP PUSH1 0x80 PUSH2 0x37C2 DUP13 DUP3 DUP14 ADD PUSH2 0x33C8 JUMP JUMPDEST SWAP6 POP POP PUSH1 0xA0 DUP11 ADD CALLDATALOAD PUSH8 0xFFFFFFFFFFFFFFFF DUP2 GT ISZERO PUSH2 0x37E3 JUMPI PUSH2 0x37E2 PUSH2 0x322C JUMP JUMPDEST JUMPDEST PUSH2 0x37EF DUP13 DUP3 DUP14 ADD PUSH2 0x366B JUMP JUMPDEST SWAP5 POP SWAP5 POP POP PUSH1 0xC0 DUP11 ADD CALLDATALOAD PUSH8 0xFFFFFFFFFFFFFFFF DUP2 GT ISZERO PUSH2 0x3812 JUMPI PUSH2 0x3811 PUSH2 0x322C JUMP JUMPDEST JUMPDEST PUSH2 0x381E DUP13 DUP3 DUP14 ADD PUSH2 0x366B JUMP JUMPDEST SWAP3 POP SWAP3 POP POP SWAP3 SWAP6 SWAP9 POP SWAP3 SWAP6 SWAP9 POP SWAP3 SWAP6 SWAP9 JUMP JUMPDEST PUSH2 0x3839 DUP2 PUSH2 0x32B6 JUMP JUMPDEST DUP2 EQ PUSH2 0x3844 JUMPI PUSH1 0x0 DUP1 REVERT JUMPDEST POP JUMP JUMPDEST PUSH1 0x0 DUP2 CALLDATALOAD SWAP1 POP PUSH2 0x3856 DUP2 PUSH2 0x3830 JUMP JUMPDEST SWAP3 SWAP2 POP POP JUMP JUMPDEST PUSH1 0x0 DUP1 PUSH1 0x40 DUP4 DUP6 SUB SLT ISZERO PUSH2 0x3873 JUMPI PUSH2 0x3872 PUSH2 0x3227 JUMP JUMPDEST JUMPDEST PUSH1 0x0 PUSH2 0x3881 DUP6 DUP3 DUP7 ADD PUSH2 0x347D JUMP JUMPDEST SWAP3 POP POP PUSH1 0x20 PUSH2 0x3892 DUP6 DUP3 DUP7 ADD PUSH2 0x3847 JUMP JUMPDEST SWAP2 POP POP SWAP3 POP SWAP3 SWAP1 POP JUMP JUMPDEST PUSH1 0x0 DUP1 REVERT JUMPDEST PUSH32 0x4E487B7100000000000000000000000000000000000000000000000000000000 PUSH1 0x0 MSTORE PUSH1 0x41 PUSH1 0x4 MSTORE PUSH1 0x24 PUSH1 0x0 REVERT JUMPDEST PUSH2 0x38D9 DUP3 PUSH2 0x333B JUMP JUMPDEST DUP2 ADD DUP2 DUP2 LT PUSH8 0xFFFFFFFFFFFFFFFF DUP3 GT OR ISZERO PUSH2 0x38F8 JUMPI PUSH2 0x38F7 PUSH2 0x38A1 JUMP JUMPDEST JUMPDEST DUP1 PUSH1 0x40 MSTORE POP POP POP JUMP JUMPDEST PUSH1 0x0 PUSH2 0x390B PUSH2 0x321D JUMP JUMPDEST SWAP1 POP PUSH2 0x3917 DUP3 DUP3 PUSH2 0x38D0 JUMP JUMPDEST SWAP2 SWAP1 POP JUMP JUMPDEST PUSH1 0x0 PUSH8 0xFFFFFFFFFFFFFFFF DUP3 GT ISZERO PUSH2 0x3937 JUMPI PUSH2 0x3936 PUSH2 0x38A1 JUMP JUMPDEST JUMPDEST PUSH2 0x3940 DUP3 PUSH2 0x333B JUMP JUMPDEST SWAP1 POP PUSH1 0x20 DUP2 ADD SWAP1 POP SWAP2 SWAP1 POP JUMP JUMPDEST DUP3 DUP2 DUP4 CALLDATACOPY PUSH1 0x0 DUP4 DUP4 ADD MSTORE POP POP POP JUMP JUMPDEST PUSH1 0x0 PUSH2 0x396F PUSH2 0x396A DUP5 PUSH2 0x391C JUMP JUMPDEST PUSH2 0x3901 JUMP JUMPDEST SWAP1 POP DUP3 DUP2 MSTORE PUSH1 0x20 DUP2 ADD DUP5 DUP5 DUP5 ADD GT ISZERO PUSH2 0x398B JUMPI PUSH2 0x398A PUSH2 0x389C JUMP JUMPDEST JUMPDEST PUSH2 0x3996 DUP5 DUP3 DUP6 PUSH2 0x394D JUMP JUMPDEST POP SWAP4 SWAP3 POP POP POP JUMP JUMPDEST PUSH1 0x0 DUP3 PUSH1 0x1F DUP4 ADD SLT PUSH2 0x39B3 JUMPI PUSH2 0x39B2 PUSH2 0x365C JUMP JUMPDEST JUMPDEST DUP2 CALLDATALOAD PUSH2 0x39C3 DUP5 DUP3 PUSH1 0x20 DUP7 ADD PUSH2 0x395C JUMP JUMPDEST SWAP2 POP POP SWAP3 SWAP2 POP POP JUMP JUMPDEST PUSH1 0x0 DUP1 PUSH1 0x0 DUP1 PUSH1 0x80 DUP6 DUP8 SUB SLT ISZERO PUSH2 0x39E6 JUMPI PUSH2 0x39E5 PUSH2 0x3227 JUMP JUMPDEST JUMPDEST PUSH1 0x0 PUSH2 0x39F4 DUP8 DUP3 DUP9 ADD PUSH2 0x347D JUMP JUMPDEST SWAP5 POP POP PUSH1 0x20 PUSH2 0x3A05 DUP8 DUP3 DUP9 ADD PUSH2 0x347D JUMP JUMPDEST SWAP4 POP POP PUSH1 0x40 PUSH2 0x3A16 DUP8 DUP3 DUP9 ADD PUSH2 0x33C8 JUMP JUMPDEST SWAP3 POP POP PUSH1 0x60 DUP6 ADD CALLDATALOAD PUSH8 0xFFFFFFFFFFFFFFFF DUP2 GT ISZERO PUSH2 0x3A37 JUMPI PUSH2 0x3A36 PUSH2 0x322C JUMP JUMPDEST JUMPDEST PUSH2 0x3A43 DUP8 DUP3 DUP9 ADD PUSH2 0x399E JUMP JUMPDEST SWAP2 POP POP SWAP3 SWAP6 SWAP2 SWAP5 POP SWAP3 POP JUMP JUMPDEST PUSH1 0x0 DUP1 PUSH1 0x40 DUP4 DUP6 SUB SLT ISZERO PUSH2 0x3A66 JUMPI PUSH2 0x3A65 PUSH2 0x3227 JUMP JUMPDEST JUMPDEST PUSH1 0x0 PUSH2 0x3A74 DUP6 DUP3 DUP7 ADD PUSH2 0x347D JUMP JUMPDEST SWAP3 POP POP PUSH1 0x20 PUSH2 0x3A85 DUP6 DUP3 DUP7 ADD PUSH2 0x347D JUMP JUMPDEST SWAP2 POP POP SWAP3 POP SWAP3 SWAP1 POP JUMP JUMPDEST PUSH32 0x4E487B7100000000000000000000000000000000000000000000000000000000 PUSH1 0x0 MSTORE PUSH1 0x22 PUSH1 0x4 MSTORE PUSH1 0x24 PUSH1 0x0 REVERT JUMPDEST PUSH1 0x0 PUSH1 0x2 DUP3 DIV SWAP1 POP PUSH1 0x1 DUP3 AND DUP1 PUSH2 0x3AD6 JUMPI PUSH1 0x7F DUP3 AND SWAP2 POP JUMPDEST PUSH1 0x20 DUP3 LT DUP2 EQ ISZERO PUSH2 0x3AEA JUMPI PUSH2 0x3AE9 PUSH2 0x3A8F JUMP JUMPDEST JUMPDEST POP SWAP2 SWAP1 POP JUMP JUMPDEST PUSH32 0x4552433732313A20617070726F76656420717565727920666F72206E6F6E6578 PUSH1 0x0 DUP3 ADD MSTORE PUSH32 0x697374656E7420746F6B656E0000000000000000000000000000000000000000 PUSH1 0x20 DUP3 ADD MSTORE POP JUMP JUMPDEST PUSH1 0x0 PUSH2 0x3B4C PUSH1 0x2C DUP4 PUSH2 0x32F7 JUMP JUMPDEST SWAP2 POP PUSH2 0x3B57 DUP3 PUSH2 0x3AF0 JUMP JUMPDEST PUSH1 0x40 DUP3 ADD SWAP1 POP SWAP2 SWAP1 POP JUMP JUMPDEST PUSH1 0x0 PUSH1 0x20 DUP3 ADD SWAP1 POP DUP2 DUP2 SUB PUSH1 0x0 DUP4 ADD MSTORE PUSH2 0x3B7B DUP2 PUSH2 0x3B3F JUMP JUMPDEST SWAP1 POP SWAP2 SWAP1 POP JUMP JUMPDEST PUSH32 0x4552433732313A20617070726F76616C20746F2063757272656E74206F776E65 PUSH1 0x0 DUP3 ADD MSTORE PUSH32 0x7200000000000000000000000000000000000000000000000000000000000000 PUSH1 0x20 DUP3 ADD MSTORE POP JUMP JUMPDEST PUSH1 0x0 PUSH2 0x3BDE PUSH1 0x21 DUP4 PUSH2 0x32F7 JUMP JUMPDEST SWAP2 POP PUSH2 0x3BE9 DUP3 PUSH2 0x3B82 JUMP JUMPDEST PUSH1 0x40 DUP3 ADD SWAP1 POP SWAP2 SWAP1 POP JUMP JUMPDEST PUSH1 0x0 PUSH1 0x20 DUP3 ADD SWAP1 POP DUP2 DUP2 SUB PUSH1 0x0 DUP4 ADD MSTORE PUSH2 0x3C0D DUP2 PUSH2 0x3BD1 JUMP JUMPDEST SWAP1 POP SWAP2 SWAP1 POP JUMP JUMPDEST PUSH32 0x4552433732313A20617070726F76652063616C6C6572206973206E6F74206F77 PUSH1 0x0 DUP3 ADD MSTORE PUSH32 0x6E6572206E6F7220617070726F76656420666F7220616C6C0000000000000000 PUSH1 0x20 DUP3 ADD MSTORE POP JUMP JUMPDEST PUSH1 0x0 PUSH2 0x3C70 PUSH1 0x38 DUP4 PUSH2 0x32F7 JUMP JUMPDEST SWAP2 POP PUSH2 0x3C7B DUP3 PUSH2 0x3C14 JUMP JUMPDEST PUSH1 0x40 DUP3 ADD SWAP1 POP SWAP2 SWAP1 POP JUMP JUMPDEST PUSH1 0x0 PUSH1 0x20 DUP3 ADD SWAP1 POP DUP2 DUP2 SUB PUSH1 0x0 DUP4 ADD MSTORE PUSH2 0x3C9F DUP2 PUSH2 0x3C63 JUMP JUMPDEST SWAP1 POP SWAP2 SWAP1 POP JUMP JUMPDEST PUSH32 0x4552433732313A207472616E736665722063616C6C6572206973206E6F74206F PUSH1 0x0 DUP3 ADD MSTORE PUSH32 0x776E6572206E6F7220617070726F766564000000000000000000000000000000 PUSH1 0x20 DUP3 ADD MSTORE POP JUMP JUMPDEST PUSH1 0x0 PUSH2 0x3D02 PUSH1 0x31 DUP4 PUSH2 0x32F7 JUMP JUMPDEST SWAP2 POP PUSH2 0x3D0D DUP3 PUSH2 0x3CA6 JUMP JUMPDEST PUSH1 0x40 DUP3 ADD SWAP1 POP SWAP2 SWAP1 POP JUMP JUMPDEST PUSH1 0x0 PUSH1 0x20 DUP3 ADD SWAP1 POP DUP2 DUP2 SUB PUSH1 0x0 DUP4 ADD MSTORE PUSH2 0x3D31 DUP2 PUSH2 0x3CF5 JUMP JUMPDEST SWAP1 POP SWAP2 SWAP1 POP JUMP JUMPDEST PUSH32 0x416363657373436F6E74726F6C3A2063616E206F6E6C792072656E6F756E6365 PUSH1 0x0 DUP3 ADD MSTORE PUSH32 0x20726F6C657320666F722073656C660000000000000000000000000000000000 PUSH1 0x20 DUP3 ADD MSTORE POP JUMP JUMPDEST PUSH1 0x0 PUSH2 0x3D94 PUSH1 0x2F DUP4 PUSH2 0x32F7 JUMP JUMPDEST SWAP2 POP PUSH2 0x3D9F DUP3 PUSH2 0x3D38 JUMP JUMPDEST PUSH1 0x40 DUP3 ADD SWAP1 POP SWAP2 SWAP1 POP JUMP JUMPDEST PUSH1 0x0 PUSH1 0x20 DUP3 ADD SWAP1 POP DUP2 DUP2 SUB PUSH1 0x0 DUP4 ADD MSTORE PUSH2 0x3DC3 DUP2 PUSH2 0x3D87 JUMP JUMPDEST SWAP1 POP SWAP2 SWAP1 POP JUMP JUMPDEST PUSH32 0x4552433732313A206F776E657220717565727920666F72206E6F6E6578697374 PUSH1 0x0 DUP3 ADD MSTORE PUSH32 0x656E7420746F6B656E0000000000000000000000000000000000000000000000 PUSH1 0x20 DUP3 ADD MSTORE POP JUMP JUMPDEST PUSH1 0x0 PUSH2 0x3E26 PUSH1 0x29 DUP4 PUSH2 0x32F7 JUMP JUMPDEST SWAP2 POP PUSH2 0x3E31 DUP3 PUSH2 0x3DCA JUMP JUMPDEST PUSH1 0x40 DUP3 ADD SWAP1 POP SWAP2 SWAP1 POP JUMP JUMPDEST PUSH1 0x0 PUSH1 0x20 DUP3 ADD SWAP1 POP DUP2 DUP2 SUB PUSH1 0x0 DUP4 ADD MSTORE PUSH2 0x3E55 DUP2 PUSH2 0x3E19 JUMP JUMPDEST SWAP1 POP SWAP2 SWAP1 POP JUMP JUMPDEST PUSH32 0x4552433732313A2062616C616E636520717565727920666F7220746865207A65 PUSH1 0x0 DUP3 ADD MSTORE PUSH32 0x726F206164647265737300000000000000000000000000000000000000000000 PUSH1 0x20 DUP3 ADD MSTORE POP JUMP JUMPDEST PUSH1 0x0 PUSH2 0x3EB8 PUSH1 0x2A DUP4 PUSH2 0x32F7 JUMP JUMPDEST SWAP2 POP PUSH2 0x3EC3 DUP3 PUSH2 0x3E5C JUMP JUMPDEST PUSH1 0x40 DUP3 ADD SWAP1 POP SWAP2 SWAP1 POP JUMP JUMPDEST PUSH1 0x0 PUSH1 0x20 DUP3 ADD SWAP1 POP DUP2 DUP2 SUB PUSH1 0x0 DUP4 ADD MSTORE PUSH2 0x3EE7 DUP2 PUSH2 0x3EAB JUMP JUMPDEST SWAP1 POP SWAP2 SWAP1 POP JUMP JUMPDEST PUSH32 0x4D454E543A20496E76616C696420696D61676544657363726970746F72000000 PUSH1 0x0 DUP3 ADD MSTORE POP JUMP JUMPDEST PUSH1 0x0 PUSH2 0x3F24 PUSH1 0x1D DUP4 PUSH2 0x32F7 JUMP JUMPDEST SWAP2 POP PUSH2 0x3F2F DUP3 PUSH2 0x3EEE JUMP JUMPDEST PUSH1 0x20 DUP3 ADD SWAP1 POP SWAP2 SWAP1 POP JUMP JUMPDEST PUSH1 0x0 PUSH1 0x20 DUP3 ADD SWAP1 POP DUP2 DUP2 SUB PUSH1 0x0 DUP4 ADD MSTORE PUSH2 0x3F53 DUP2 PUSH2 0x3F17 JUMP JUMPDEST SWAP1 POP SWAP2 SWAP1 POP JUMP JUMPDEST PUSH1 0x0 DUP2 SWAP1 POP SWAP3 SWAP2 POP POP JUMP JUMPDEST PUSH1 0x0 DUP2 SWAP1 POP DUP2 PUSH1 0x0 MSTORE PUSH1 0x20 PUSH1 0x0 KECCAK256 SWAP1 POP SWAP2 SWAP1 POP JUMP JUMPDEST PUSH1 0x0 DUP2 SLOAD PUSH2 0x3F87 DUP2 PUSH2 0x3ABE JUMP JUMPDEST PUSH2 0x3F91 DUP2 DUP7 PUSH2 0x3F5A JUMP JUMPDEST SWAP5 POP PUSH1 0x1 DUP3 AND PUSH1 0x0 DUP2 EQ PUSH2 0x3FAC JUMPI PUSH1 0x1 DUP2 EQ PUSH2 0x3FBD JUMPI PUSH2 0x3FF0 JUMP JUMPDEST PUSH1 0xFF NOT DUP4 AND DUP7 MSTORE DUP2 DUP7 ADD SWAP4 POP PUSH2 0x3FF0 JUMP JUMPDEST PUSH2 0x3FC6 DUP6 PUSH2 0x3F65 JUMP JUMPDEST PUSH1 0x0 JUMPDEST DUP4 DUP2 LT ISZERO PUSH2 0x3FE8 JUMPI DUP2 SLOAD DUP2 DUP10 ADD MSTORE PUSH1 0x1 DUP3 ADD SWAP2 POP PUSH1 0x20 DUP2 ADD SWAP1 POP PUSH2 0x3FC9 JUMP JUMPDEST DUP4 DUP9 ADD SWAP6 POP POP POP JUMPDEST POP POP POP SWAP3 SWAP2 POP POP JUMP JUMPDEST PUSH1 0x0 PUSH2 0x4005 DUP3 DUP5 PUSH2 0x3F7A JUMP JUMPDEST SWAP2 POP DUP2 SWAP1 POP SWAP3 SWAP2 POP POP JUMP JUMPDEST PUSH32 0x4D454E543A204E6F6E6578697374616E7420526F6C6500000000000000000000 PUSH1 0x0 DUP3 ADD MSTORE POP JUMP JUMPDEST PUSH1 0x0 PUSH2 0x4046 PUSH1 0x16 DUP4 PUSH2 0x32F7 JUMP JUMPDEST SWAP2 POP PUSH2 0x4051 DUP3 PUSH2 0x4010 JUMP JUMPDEST PUSH1 0x20 DUP3 ADD SWAP1 POP SWAP2 SWAP1 POP JUMP JUMPDEST PUSH1 0x0 PUSH1 0x20 DUP3 ADD SWAP1 POP DUP2 DUP2 SUB PUSH1 0x0 DUP4 ADD MSTORE PUSH2 0x4075 DUP2 PUSH2 0x4039 JUMP JUMPDEST SWAP1 POP SWAP2 SWAP1 POP JUMP JUMPDEST PUSH32 0x4E487B7100000000000000000000000000000000000000000000000000000000 PUSH1 0x0 MSTORE PUSH1 0x11 PUSH1 0x4 MSTORE PUSH1 0x24 PUSH1 0x0 REVERT JUMPDEST PUSH1 0x0 PUSH2 0x40B6 DUP3 PUSH2 0x33A7 JUMP JUMPDEST SWAP2 POP PUSH32 0xFFFFFFFFFFFFFFFFFFFFFFFFFFFFFFFFFFFFFFFFFFFFFFFFFFFFFFFFFFFFFFFF DUP3 EQ ISZERO PUSH2 0x40E9 JUMPI PUSH2 0x40E8 PUSH2 0x407C JUMP JUMPDEST JUMPDEST PUSH1 0x1 DUP3 ADD SWAP1 POP SWAP2 SWAP1 POP JUMP JUMPDEST PUSH32 0x4D454E543A204E6F6E6578697374656E7420746F6B656E000000000000000000 PUSH1 0x0 DUP3 ADD MSTORE POP JUMP JUMPDEST PUSH1 0x0 PUSH2 0x412A PUSH1 0x17 DUP4 PUSH2 0x32F7 JUMP JUMPDEST SWAP2 POP PUSH2 0x4135 DUP3 PUSH2 0x40F4 JUMP JUMPDEST PUSH1 0x20 DUP3 ADD SWAP1 POP SWAP2 SWAP1 POP JUMP JUMPDEST PUSH1 0x0 PUSH1 0x20 DUP3 ADD SWAP1 POP DUP2 DUP2 SUB PUSH1 0x0 DUP4 ADD MSTORE PUSH2 0x4159 DUP2 PUSH2 0x411D JUMP JUMPDEST SWAP1 POP SWAP2 SWAP1 POP JUMP JUMPDEST PUSH1 0x0 PUSH1 0xA0 DUP3 ADD SWAP1 POP PUSH2 0x4175 PUSH1 0x0 DUP4 ADD DUP9 PUSH2 0x3512 JUMP JUMPDEST PUSH2 0x4182 PUSH1 0x20 DUP4 ADD DUP8 PUSH2 0x3512 JUMP JUMPDEST DUP2 DUP2 SUB PUSH1 0x40 DUP4 ADD MSTORE PUSH2 0x4194 DUP2 DUP7 PUSH2 0x334C JUMP JUMPDEST SWAP1 POP DUP2 DUP2 SUB PUSH1 0x60 DUP4 ADD MSTORE PUSH2 0x41A8 DUP2 DUP6 PUSH2 0x334C JUMP JUMPDEST SWAP1 POP DUP2 DUP2 SUB PUSH1 0x80 DUP4 ADD MSTORE PUSH2 0x41BC DUP2 DUP5 PUSH2 0x334C JUMP JUMPDEST SWAP1 POP SWAP7 SWAP6 POP POP POP POP POP POP JUMP JUMPDEST PUSH1 0x0 DUP2 MLOAD SWAP1 POP SWAP2 SWAP1 POP JUMP JUMPDEST PUSH1 0x0 DUP3 DUP3 MSTORE PUSH1 0x20 DUP3 ADD SWAP1 POP SWAP3 SWAP2 POP POP JUMP JUMPDEST PUSH1 0x0 PUSH2 0x41EF DUP3 PUSH2 0x41C8 JUMP JUMPDEST PUSH2 0x41F9 DUP2 DUP6 PUSH2 0x41D3 JUMP JUMPDEST SWAP4 POP PUSH2 0x4209 DUP2 DUP6 PUSH1 0x20 DUP7 ADD PUSH2 0x3308 JUMP JUMPDEST PUSH2 0x4212 DUP2 PUSH2 0x333B JUMP JUMPDEST DUP5 ADD SWAP2 POP POP SWAP3 SWAP2 POP POP JUMP JUMPDEST PUSH1 0x0 PUSH1 0x20 DUP3 ADD SWAP1 POP DUP2 DUP2 SUB PUSH1 0x0 DUP4 ADD MSTORE PUSH2 0x4237 DUP2 DUP5 PUSH2 0x41E4 JUMP JUMPDEST SWAP1 POP SWAP3 SWAP2 POP POP JUMP JUMPDEST PUSH1 0x0 DUP2 MLOAD SWAP1 POP PUSH2 0x424E DUP2 PUSH2 0x3830 JUMP JUMPDEST SWAP3 SWAP2 POP POP JUMP JUMPDEST PUSH1 0x0 PUSH8 0xFFFFFFFFFFFFFFFF DUP3 GT ISZERO PUSH2 0x426F JUMPI PUSH2 0x426E PUSH2 0x38A1 JUMP JUMPDEST JUMPDEST PUSH2 0x4278 DUP3 PUSH2 0x333B JUMP JUMPDEST SWAP1 POP PUSH1 0x20 DUP2 ADD SWAP1 POP SWAP2 SWAP1 POP JUMP JUMPDEST PUSH1 0x0 PUSH2 0x4298 PUSH2 0x4293 DUP5 PUSH2 0x4254 JUMP JUMPDEST PUSH2 0x3901 JUMP JUMPDEST SWAP1 POP DUP3 DUP2 MSTORE PUSH1 0x20 DUP2 ADD DUP5 DUP5 DUP5 ADD GT ISZERO PUSH2 0x42B4 JUMPI PUSH2 0x42B3 PUSH2 0x389C JUMP JUMPDEST JUMPDEST PUSH2 0x42BF DUP5 DUP3 DUP6 PUSH2 0x3308 JUMP JUMPDEST POP SWAP4 SWAP3 POP POP POP JUMP JUMPDEST PUSH1 0x0 DUP3 PUSH1 0x1F DUP4 ADD SLT PUSH2 0x42DC JUMPI PUSH2 0x42DB PUSH2 0x365C JUMP JUMPDEST JUMPDEST DUP2 MLOAD PUSH2 0x42EC DUP5 DUP3 PUSH1 0x20 DUP7 ADD PUSH2 0x4285 JUMP JUMPDEST SWAP2 POP POP SWAP3 SWAP2 POP POP JUMP JUMPDEST PUSH1 0x0 DUP1 PUSH1 0x40 DUP4 DUP6 SUB SLT ISZERO PUSH2 0x430C JUMPI PUSH2 0x430B PUSH2 0x3227 JUMP JUMPDEST JUMPDEST PUSH1 0x0 PUSH2 0x431A DUP6 DUP3 DUP7 ADD PUSH2 0x423F JUMP JUMPDEST SWAP3 POP POP PUSH1 0x20 DUP4 ADD MLOAD PUSH8 0xFFFFFFFFFFFFFFFF DUP2 GT ISZERO PUSH2 0x433B JUMPI PUSH2 0x433A PUSH2 0x322C JUMP JUMPDEST JUMPDEST PUSH2 0x4347 DUP6 DUP3 DUP7 ADD PUSH2 0x42C7 JUMP JUMPDEST SWAP2 POP POP SWAP3 POP SWAP3 SWAP1 POP JUMP JUMPDEST PUSH32 0x4E487B7100000000000000000000000000000000000000000000000000000000 PUSH1 0x0 MSTORE PUSH1 0x32 PUSH1 0x4 MSTORE PUSH1 0x24 PUSH1 0x0 REVERT JUMPDEST PUSH1 0x0 DUP2 SWAP1 POP SWAP3 SWAP2 POP POP JUMP JUMPDEST PUSH32 0x227D2C7B2274726169745F74797065223A224F74686572222C2276616C756522 PUSH1 0x0 DUP3 ADD MSTORE PUSH32 0x3A22000000000000000000000000000000000000000000000000000000000000 PUSH1 0x20 DUP3 ADD MSTORE POP JUMP JUMPDEST PUSH1 0x0 PUSH2 0x43E7 PUSH1 0x22 DUP4 PUSH2 0x4380 JUMP JUMPDEST SWAP2 POP PUSH2 0x43F2 DUP3 PUSH2 0x438B JUMP JUMPDEST PUSH1 0x22 DUP3 ADD SWAP1 POP SWAP2 SWAP1 POP JUMP JUMPDEST PUSH1 0x0 PUSH2 0x4408 DUP3 PUSH2 0x32EC JUMP JUMPDEST PUSH2 0x4412 DUP2 DUP6 PUSH2 0x4380 JUMP JUMPDEST SWAP4 POP PUSH2 0x4422 DUP2 DUP6 PUSH1 0x20 DUP7 ADD PUSH2 0x3308 JUMP JUMPDEST DUP1 DUP5 ADD SWAP2 POP POP SWAP3 SWAP2 POP POP JUMP JUMPDEST PUSH32 0x227D5D7D00000000000000000000000000000000000000000000000000000000 PUSH1 0x0 DUP3 ADD MSTORE POP JUMP JUMPDEST PUSH1 0x0 PUSH2 0x4464 PUSH1 0x4 DUP4 PUSH2 0x4380 JUMP JUMPDEST SWAP2 POP PUSH2 0x446F DUP3 PUSH2 0x442E JUMP JUMPDEST PUSH1 0x4 DUP3 ADD SWAP1 POP SWAP2 SWAP1 POP JUMP JUMPDEST PUSH1 0x0 PUSH2 0x4485 DUP3 PUSH2 0x43DA JUMP JUMPDEST SWAP2 POP PUSH2 0x4491 DUP3 DUP5 PUSH2 0x43FD JUMP JUMPDEST SWAP2 POP PUSH2 0x449C DUP3 PUSH2 0x4457 JUMP JUMPDEST SWAP2 POP DUP2 SWAP1 POP SWAP3 SWAP2 POP POP JUMP JUMPDEST PUSH1 0x0 PUSH2 0x44B3 DUP3 DUP12 PUSH2 0x43FD JUMP JUMPDEST SWAP2 POP PUSH2 0x44BF DUP3 DUP11 PUSH2 0x43FD JUMP JUMPDEST SWAP2 POP PUSH2 0x44CB DUP3 DUP10 PUSH2 0x43FD JUMP JUMPDEST SWAP2 POP PUSH2 0x44D7 DUP3 DUP9 PUSH2 0x43FD JUMP JUMPDEST SWAP2 POP PUSH2 0x44E3 DUP3 DUP8 PUSH2 0x43FD JUMP JUMPDEST SWAP2 POP PUSH2 0x44EF DUP3 DUP7 PUSH2 0x43FD JUMP JUMPDEST SWAP2 POP PUSH2 0x44FB DUP3 DUP6 PUSH2 0x43FD JUMP JUMPDEST SWAP2 POP PUSH2 0x4507 DUP3 DUP5 PUSH2 0x43FD JUMP JUMPDEST SWAP2 POP DUP2 SWAP1 POP SWAP10 SWAP9 POP POP POP POP POP POP POP POP POP JUMP JUMPDEST PUSH1 0x0 PUSH2 0x4525 DUP3 DUP13 PUSH2 0x43FD JUMP JUMPDEST SWAP2 POP PUSH2 0x4531 DUP3 DUP12 PUSH2 0x43FD JUMP JUMPDEST SWAP2 POP PUSH2 0x453D DUP3 DUP11 PUSH2 0x43FD JUMP JUMPDEST SWAP2 POP PUSH2 0x4549 DUP3 DUP10 PUSH2 0x43FD JUMP JUMPDEST SWAP2 POP PUSH2 0x4555 DUP3 DUP9 PUSH2 0x43FD JUMP JUMPDEST SWAP2 POP PUSH2 0x4561 DUP3 DUP8 PUSH2 0x43FD JUMP JUMPDEST SWAP2 POP PUSH2 0x456D DUP3 DUP7 PUSH2 0x43FD JUMP JUMPDEST SWAP2 POP PUSH2 0x4579 DUP3 DUP6 PUSH2 0x43FD JUMP JUMPDEST SWAP2 POP PUSH2 0x4585 DUP3 DUP5 PUSH2 0x43FD JUMP JUMPDEST SWAP2 POP DUP2 SWAP1 POP SWAP11 SWAP10 POP POP POP POP POP POP POP POP POP POP JUMP JUMPDEST PUSH32 0x646174613A6170706C69636174696F6E2F6A736F6E3B6261736536342C000000 PUSH1 0x0 DUP3 ADD MSTORE POP JUMP JUMPDEST PUSH1 0x0 PUSH2 0x45CE PUSH1 0x1D DUP4 PUSH2 0x4380 JUMP JUMPDEST SWAP2 POP PUSH2 0x45D9 DUP3 PUSH2 0x4598 JUMP JUMPDEST PUSH1 0x1D DUP3 ADD SWAP1 POP SWAP2 SWAP1 POP JUMP JUMPDEST PUSH1 0x0 PUSH2 0x45EF DUP3 PUSH2 0x45C1 JUMP JUMPDEST SWAP2 POP PUSH2 0x45FB DUP3 DUP5 PUSH2 0x43FD JUMP JUMPDEST SWAP2 POP DUP2 SWAP1 POP SWAP3 SWAP2 POP POP JUMP JUMPDEST PUSH32 0x416363657373436F6E74726F6C3A206163636F756E7420000000000000000000 PUSH1 0x0 DUP3 ADD MSTORE POP JUMP JUMPDEST PUSH1 0x0 PUSH2 0x463C PUSH1 0x17 DUP4 PUSH2 0x4380 JUMP JUMPDEST SWAP2 POP PUSH2 0x4647 DUP3 PUSH2 0x4606 JUMP JUMPDEST PUSH1 0x17 DUP3 ADD SWAP1 POP SWAP2 SWAP1 POP JUMP JUMPDEST PUSH32 0x206973206D697373696E6720726F6C6520000000000000000000000000000000 PUSH1 0x0 DUP3 ADD MSTORE POP JUMP JUMPDEST PUSH1 0x0 PUSH2 0x4688 PUSH1 0x11 DUP4 PUSH2 0x4380 JUMP JUMPDEST SWAP2 POP PUSH2 0x4693 DUP3 PUSH2 0x4652 JUMP JUMPDEST PUSH1 0x11 DUP3 ADD SWAP1 POP SWAP2 SWAP1 POP JUMP JUMPDEST PUSH1 0x0 PUSH2 0x46A9 DUP3 PUSH2 0x462F JUMP JUMPDEST SWAP2 POP PUSH2 0x46B5 DUP3 DUP6 PUSH2 0x43FD JUMP JUMPDEST SWAP2 POP PUSH2 0x46C0 DUP3 PUSH2 0x467B JUMP JUMPDEST SWAP2 POP PUSH2 0x46CC DUP3 DUP5 PUSH2 0x43FD JUMP JUMPDEST SWAP2 POP DUP2 SWAP1 POP SWAP4 SWAP3 POP POP POP JUMP JUMPDEST PUSH32 0x4552433732313A206F70657261746F7220717565727920666F72206E6F6E6578 PUSH1 0x0 DUP3 ADD MSTORE PUSH32 0x697374656E7420746F6B656E0000000000000000000000000000000000000000 PUSH1 0x20 DUP3 ADD MSTORE POP JUMP JUMPDEST PUSH1 0x0 PUSH2 0x4734 PUSH1 0x2C DUP4 PUSH2 0x32F7 JUMP JUMPDEST SWAP2 POP PUSH2 0x473F DUP3 PUSH2 0x46D8 JUMP JUMPDEST PUSH1 0x40 DUP3 ADD SWAP1 POP SWAP2 SWAP1 POP JUMP JUMPDEST PUSH1 0x0 PUSH1 0x20 DUP3 ADD SWAP1 POP DUP2 DUP2 SUB PUSH1 0x0 DUP4 ADD MSTORE PUSH2 0x4763 DUP2 PUSH2 0x4727 JUMP JUMPDEST SWAP1 POP SWAP2 SWAP1 POP JUMP JUMPDEST PUSH32 0x4552433732313A207472616E736665722066726F6D20696E636F727265637420 PUSH1 0x0 DUP3 ADD MSTORE PUSH32 0x6F776E6572000000000000000000000000000000000000000000000000000000 PUSH1 0x20 DUP3 ADD MSTORE POP JUMP JUMPDEST PUSH1 0x0 PUSH2 0x47C6 PUSH1 0x25 DUP4 PUSH2 0x32F7 JUMP JUMPDEST SWAP2 POP PUSH2 0x47D1 DUP3 PUSH2 0x476A JUMP JUMPDEST PUSH1 0x40 DUP3 ADD SWAP1 POP SWAP2 SWAP1 POP JUMP JUMPDEST PUSH1 0x0 PUSH1 0x20 DUP3 ADD SWAP1 POP DUP2 DUP2 SUB PUSH1 0x0 DUP4 ADD MSTORE PUSH2 0x47F5 DUP2 PUSH2 0x47B9 JUMP JUMPDEST SWAP1 POP SWAP2 SWAP1 POP JUMP JUMPDEST PUSH32 0x4552433732313A207472616E7366657220746F20746865207A65726F20616464 PUSH1 0x0 DUP3 ADD MSTORE PUSH32 0x7265737300000000000000000000000000000000000000000000000000000000 PUSH1 0x20 DUP3 ADD MSTORE POP JUMP JUMPDEST PUSH1 0x0 PUSH2 0x4858 PUSH1 0x24 DUP4 PUSH2 0x32F7 JUMP JUMPDEST SWAP2 POP PUSH2 0x4863 DUP3 PUSH2 0x47FC JUMP JUMPDEST PUSH1 0x40 DUP3 ADD SWAP1 POP SWAP2 SWAP1 POP JUMP JUMPDEST PUSH1 0x0 PUSH1 0x20 DUP3 ADD SWAP1 POP DUP2 DUP2 SUB PUSH1 0x0 DUP4 ADD MSTORE PUSH2 0x4887 DUP2 PUSH2 0x484B JUMP JUMPDEST SWAP1 POP SWAP2 SWAP1 POP JUMP JUMPDEST PUSH1 0x0 PUSH2 0x4899 DUP3 PUSH2 0x33A7 JUMP JUMPDEST SWAP2 POP PUSH2 0x48A4 DUP4 PUSH2 0x33A7 JUMP JUMPDEST SWAP3 POP DUP3 DUP3 LT ISZERO PUSH2 0x48B7 JUMPI PUSH2 0x48B6 PUSH2 0x407C JUMP JUMPDEST JUMPDEST DUP3 DUP3 SUB SWAP1 POP SWAP3 SWAP2 POP POP JUMP JUMPDEST PUSH1 0x0 PUSH2 0x48CD DUP3 PUSH2 0x33A7 JUMP JUMPDEST SWAP2 POP PUSH2 0x48D8 DUP4 PUSH2 0x33A7 JUMP JUMPDEST SWAP3 POP DUP3 PUSH32 0xFFFFFFFFFFFFFFFFFFFFFFFFFFFFFFFFFFFFFFFFFFFFFFFFFFFFFFFFFFFFFFFF SUB DUP3 GT ISZERO PUSH2 0x490D JUMPI PUSH2 0x490C PUSH2 0x407C JUMP JUMPDEST JUMPDEST DUP3 DUP3 ADD SWAP1 POP SWAP3 SWAP2 POP POP JUMP JUMPDEST PUSH32 0x4552433732313A20617070726F766520746F2063616C6C657200000000000000 PUSH1 0x0 DUP3 ADD MSTORE POP JUMP JUMPDEST PUSH1 0x0 PUSH2 0x494E PUSH1 0x19 DUP4 PUSH2 0x32F7 JUMP JUMPDEST SWAP2 POP PUSH2 0x4959 DUP3 PUSH2 0x4918 JUMP JUMPDEST PUSH1 0x20 DUP3 ADD SWAP1 POP SWAP2 SWAP1 POP JUMP JUMPDEST PUSH1 0x0 PUSH1 0x20 DUP3 ADD SWAP1 POP DUP2 DUP2 SUB PUSH1 0x0 DUP4 ADD MSTORE PUSH2 0x497D DUP2 PUSH2 0x4941 JUMP JUMPDEST SWAP1 POP SWAP2 SWAP1 POP JUMP JUMPDEST PUSH32 0x4552433732313A207472616E7366657220746F206E6F6E204552433732315265 PUSH1 0x0 DUP3 ADD MSTORE PUSH32 0x63656976657220696D706C656D656E7465720000000000000000000000000000 PUSH1 0x20 DUP3 ADD MSTORE POP JUMP JUMPDEST PUSH1 0x0 PUSH2 0x49E0 PUSH1 0x32 DUP4 PUSH2 0x32F7 JUMP JUMPDEST SWAP2 POP PUSH2 0x49EB DUP3 PUSH2 0x4984 JUMP JUMPDEST PUSH1 0x40 DUP3 ADD SWAP1 POP SWAP2 SWAP1 POP JUMP JUMPDEST PUSH1 0x0 PUSH1 0x20 DUP3 ADD SWAP1 POP DUP2 DUP2 SUB PUSH1 0x0 DUP4 ADD MSTORE PUSH2 0x4A0F DUP2 PUSH2 0x49D3 JUMP JUMPDEST SWAP1 POP SWAP2 SWAP1 POP JUMP JUMPDEST PUSH32 0x4E487B7100000000000000000000000000000000000000000000000000000000 PUSH1 0x0 MSTORE PUSH1 0x12 PUSH1 0x4 MSTORE PUSH1 0x24 PUSH1 0x0 REVERT JUMPDEST PUSH1 0x0 PUSH2 0x4A50 DUP3 PUSH2 0x33A7 JUMP JUMPDEST SWAP2 POP PUSH2 0x4A5B DUP4 PUSH2 0x33A7 JUMP JUMPDEST SWAP3 POP DUP3 PUSH2 0x4A6B JUMPI PUSH2 0x4A6A PUSH2 0x4A16 JUMP JUMPDEST JUMPDEST DUP3 DUP3 DIV SWAP1 POP SWAP3 SWAP2 POP POP JUMP JUMPDEST PUSH1 0x0 PUSH2 0x4A81 DUP3 PUSH2 0x33A7 JUMP JUMPDEST SWAP2 POP PUSH2 0x4A8C DUP4 PUSH2 0x33A7 JUMP JUMPDEST SWAP3 POP DUP3 PUSH2 0x4A9C JUMPI PUSH2 0x4A9B PUSH2 0x4A16 JUMP JUMPDEST JUMPDEST DUP3 DUP3 MOD SWAP1 POP SWAP3 SWAP2 POP POP JUMP JUMPDEST PUSH1 0x0 PUSH2 0x4AB2 DUP3 PUSH2 0x33A7 JUMP JUMPDEST SWAP2 POP PUSH2 0x4ABD DUP4 PUSH2 0x33A7 JUMP JUMPDEST SWAP3 POP DUP2 PUSH32 0xFFFFFFFFFFFFFFFFFFFFFFFFFFFFFFFFFFFFFFFFFFFFFFFFFFFFFFFFFFFFFFFF DIV DUP4 GT DUP3 ISZERO ISZERO AND ISZERO PUSH2 0x4AF6 JUMPI PUSH2 0x4AF5 PUSH2 0x407C JUMP JUMPDEST JUMPDEST DUP3 DUP3 MUL SWAP1 POP SWAP3 SWAP2 POP POP JUMP JUMPDEST PUSH1 0x0 PUSH2 0x4B0C DUP3 PUSH2 0x33A7 JUMP JUMPDEST SWAP2 POP PUSH1 0x0 DUP3 EQ ISZERO PUSH2 0x4B20 JUMPI PUSH2 0x4B1F PUSH2 0x407C JUMP JUMPDEST JUMPDEST PUSH1 0x1 DUP3 SUB SWAP1 POP SWAP2 SWAP1 POP JUMP JUMPDEST PUSH32 0x537472696E67733A20686578206C656E67746820696E73756666696369656E74 PUSH1 0x0 DUP3 ADD MSTORE POP JUMP JUMPDEST PUSH1 0x0 PUSH2 0x4B61 PUSH1 0x20 DUP4 PUSH2 0x32F7 JUMP JUMPDEST SWAP2 POP PUSH2 0x4B6C DUP3 PUSH2 0x4B2B JUMP JUMPDEST PUSH1 0x20 DUP3 ADD SWAP1 POP SWAP2 SWAP1 POP JUMP JUMPDEST PUSH1 0x0 PUSH1 0x20 DUP3 ADD SWAP1 POP DUP2 DUP2 SUB PUSH1 0x0 DUP4 ADD MSTORE PUSH2 0x4B90 DUP2 PUSH2 0x4B54 JUMP JUMPDEST SWAP1 POP SWAP2 SWAP1 POP JUMP JUMPDEST PUSH1 0x0 PUSH1 0x80 DUP3 ADD SWAP1 POP PUSH2 0x4BAC PUSH1 0x0 DUP4 ADD DUP8 PUSH2 0x343C JUMP JUMPDEST PUSH2 0x4BB9 PUSH1 0x20 DUP4 ADD DUP7 PUSH2 0x343C JUMP JUMPDEST PUSH2 0x4BC6 PUSH1 0x40 DUP4 ADD DUP6 PUSH2 0x3512 JUMP JUMPDEST DUP2 DUP2 SUB PUSH1 0x60 DUP4 ADD MSTORE PUSH2 0x4BD8 DUP2 DUP5 PUSH2 0x41E4 JUMP JUMPDEST SWAP1 POP SWAP6 SWAP5 POP POP POP POP POP JUMP JUMPDEST PUSH1 0x0 DUP2 MLOAD SWAP1 POP PUSH2 0x4BF2 DUP2 PUSH2 0x325D JUMP JUMPDEST SWAP3 SWAP2 POP POP JUMP JUMPDEST PUSH1 0x0 PUSH1 0x20 DUP3 DUP5 SUB SLT ISZERO PUSH2 0x4C0E JUMPI PUSH2 0x4C0D PUSH2 0x3227 JUMP JUMPDEST JUMPDEST PUSH1 0x0 PUSH2 0x4C1C DUP5 DUP3 DUP6 ADD PUSH2 0x4BE3 JUMP JUMPDEST SWAP2 POP POP SWAP3 SWAP2 POP POP JUMP JUMPDEST PUSH32 0x4552433732313A206D696E7420746F20746865207A65726F2061646472657373 PUSH1 0x0 DUP3 ADD MSTORE POP JUMP JUMPDEST PUSH1 0x0 PUSH2 0x4C5B PUSH1 0x20 DUP4 PUSH2 0x32F7 JUMP JUMPDEST SWAP2 POP PUSH2 0x4C66 DUP3 PUSH2 0x4C25 JUMP JUMPDEST PUSH1 0x20 DUP3 ADD SWAP1 POP SWAP2 SWAP1 POP JUMP JUMPDEST PUSH1 0x0 PUSH1 0x20 DUP3 ADD SWAP1 POP DUP2 DUP2 SUB PUSH1 0x0 DUP4 ADD MSTORE PUSH2 0x4C8A DUP2 PUSH2 0x4C4E JUMP JUMPDEST SWAP1 POP SWAP2 SWAP1 POP JUMP JUMPDEST PUSH32 0x4552433732313A20746F6B656E20616C7265616479206D696E74656400000000 PUSH1 0x0 DUP3 ADD MSTORE POP JUMP JUMPDEST PUSH1 0x0 PUSH2 0x4CC7 PUSH1 0x1C DUP4 PUSH2 0x32F7 JUMP JUMPDEST SWAP2 POP PUSH2 0x4CD2 DUP3 PUSH2 0x4C91 JUMP JUMPDEST PUSH1 0x20 DUP3 ADD SWAP1 POP SWAP2 SWAP1 POP JUMP JUMPDEST PUSH1 0x0 PUSH1 0x20 DUP3 ADD SWAP1 POP DUP2 DUP2 SUB PUSH1 0x0 DUP4 ADD MSTORE PUSH2 0x4CF6 DUP2 PUSH2 0x4CBA JUMP JUMPDEST SWAP1 POP SWAP2 SWAP1 POP JUMP INVALID PUSH28 0x226465736372697074696F6E223A20224D656E746F72736869702050 PUSH19 0x6F6772616D6D65204E465473222C22696D6167 PUSH6 0x414243444546 SELFBALANCE BASEFEE 0x49 0x4A 0x4B 0x4C 0x4D 0x4E 0x4F POP MLOAD MSTORE MSTORE8 SLOAD SSTORE JUMP JUMPI PC MSIZE GAS PUSH2 0x6263 PUSH5 0x6566676869 PUSH11 0x6B6C6D6E6F707172737475 PUSH23 0x7778797A303132333435363738392B2F227D2C7B227472 PUSH2 0x6974 0x5F PUSH21 0x797065223A2248616E646C65222C2276616C756522 GASPRICE 0x22 0x22 PUSH30 0x2C7B2274726169745F74797065223A22536561736F6E222C2276616C7565 0x22 GASPRICE 0x22 0x22 0x2C KECCAK256 0x22 PUSH2 0x7474 PUSH19 0x696275746573223A5B7B2274726169745F7479 PUSH17 0x65223A2259656172222C2276616C756522 GASPRICE 0x22 0x22 PUSH30 0x2C7B2274726169745F74797065223A22526F6C65222C2276616C7565223A 0x22 LOG2 PUSH5 0x6970667358 0x22 SLT KECCAK256 SWAP13 0xC5 EXTCODESIZE 0xC1 0xAC SWAP8 0x1F EXP SWAP5 GAS PUSH23 0xE3A68844B39859111C5458E7249987A05404677856473 PUSH16 0x6C634300080B00330000000000000000 "},"methodIdentifiers":{"DEFAULT_ADMIN_ROLE()":"a217fddf","MINTER_ROLE()":"d5391393","approve(address,uint256)":"095ea7b3","balanceOf(address)":"70a08231","burn(uint256)":"42966c68","getApproved(uint256)":"081812fc","getRoleAdmin(bytes32)":"248a9ca3","grantRole(bytes32,address)":"2f2ff15d","handle(uint256)":"54d840b4","hasRole(bytes32,address)":"91d14854","imageDescriptor(uint256)":"6b2f8bfa","isApprovedForAll(address,address)":"e985e9c5","mint(address,uint256,uint256,uint256,uint256,string,string)":"790494be","name()":"06fdde03","other(uint256)":"369984d6","ownerOf(uint256)":"6352211e","renounceRole(bytes32,address)":"36568abe","revokeRole(bytes32,address)":"d547741f","role(uint256)":"21d0a2a0","roles(uint256)":"bfda4a49","safeTransferFrom(address,address,uint256)":"42842e0e","safeTransferFrom(address,address,uint256,bytes)":"b88d4fde","season(uint256)":"8371b1c5","setApprovalForAll(address,bool)":"a22cb465","setImageDescriptor(uint256,address)":"173f1e36","setRoles(uint256,string)":"57af7c45","supportsInterface(bytes4)":"01ffc9a7","symbol()":"95d89b41","tokenImageDescriptor(uint256)":"c2459c89","tokenURI(uint256)":"c87b56dd","totalSupply()":"18160ddd","transferFrom(address,address,uint256)":"23b872dd","year(uint256)":"eb50637a"}}}}}