{"contracts/S1ImageDescriptor.sol":{"S1ImageDescriptor":{"abi":[{"inputs":[{"internalType":"bytes","name":"data","type":"bytes"}],"name":"image","outputs":[{"internalType":"bool","name":"isRawSVG","type":"bool"},{"internalType":"string","name":"","type":"string"}],"stateMutability":"pure","type":"function"}],"evm":{"bytecode":{"linkReferences":{},"object":"608060405234801561001057600080fd5b5061101e806100206000396000f3fe608060405234801561001057600080fd5b506004361061002b5760003560e01c80636548bc1014610030575b600080fd5b61004a60048036038101906100459190610179565b610061565b60405161005892919061027a565b60405180910390f35b6000606060008085858101906100779190610410565b50935093505050600160405180610a2001604052806109f881526020016105f16109f89139836040518060a001604052806066815260200161056760669139846040518060600160405280602481526020016105cd602491396040516020016100e495949392919061051b565b6040516020818303038152906040529350935050509250929050565b6000604051905090565b600080fd5b600080fd5b600080fd5b600080fd5b600080fd5b60008083601f84011261013957610138610114565b5b8235905067ffffffffffffffff81111561015657610155610119565b5b6020830191508360018202830111156101725761017161011e565b5b9250929050565b600080602083850312156101905761018f61010a565b5b600083013567ffffffffffffffff8111156101ae576101ad61010f565b5b6101ba85828601610123565b92509250509250929050565b60008115159050919050565b6101db816101c6565b82525050565b600081519050919050565b600082825260208201905092915050565b60005b8381101561021b578082015181840152602081019050610200565b8381111561022a576000848401525b50505050565b6000601f19601f8301169050919050565b600061024c826101e1565b61025681856101ec565b93506102668185602086016101fd565b61026f81610230565b840191505092915050565b600060408201905061028f60008301856101d2565b81810360208301526102a18184610241565b90509392505050565b6000819050919050565b6102bd816102aa565b81146102c857600080fd5b50565b6000813590506102da816102b4565b92915050565b600080fd5b7f4e487b7100000000000000000000000000000000000000000000000000000000600052604160045260246000fd5b61031d82610230565b810181811067ffffffffffffffff8211171561033c5761033b6102e5565b5b80604052505050565b600061034f610100565b905061035b8282610314565b919050565b600067ffffffffffffffff82111561037b5761037a6102e5565b5b61038482610230565b9050602081019050919050565b82818337600083830152505050565b60006103b36103ae84610360565b610345565b9050828152602081018484840111156103cf576103ce6102e0565b5b6103da848285610391565b509392505050565b600082601f8301126103f7576103f6610114565b5b81356104078482602086016103a0565b91505092915050565b600080600080600060a0868803121561042c5761042b61010a565b5b600061043a888289016102cb565b955050602061044b888289016102cb565b945050604086013567ffffffffffffffff81111561046c5761046b61010f565b5b610478888289016103e2565b935050606086013567ffffffffffffffff8111156104995761049861010f565b5b6104a5888289016103e2565b925050608086013567ffffffffffffffff8111156104c6576104c561010f565b5b6104d2888289016103e2565b9150509295509295909350565b600081905092915050565b60006104f5826101e1565b6104ff81856104df565b935061050f8185602086016101fd565b80840191505092915050565b600061052782886104ea565b915061053382876104ea565b915061053f82866104ea565b915061054b82856104ea565b915061055782846104ea565b9150819050969550505050505056fe3c2f74657874506174683e3c2f746578743e3c7465787420783d273230302720793d27333035272064783d273230272066696c6c3d27626c61636b2720666f6e742d73697a653d273234273e3c746578745061746820786c696e6b3a687265663d272361273e3c2f74657874506174683e3c2f746578743e3c2f673e3c2f673e3c2f673e3c2f7376673e3c7376672077696474683d2733353027206865696768743d27333530272076696577426f783d2730203020343030203430302720786d6c6e733d27687474703a2f2f7777772e77332e6f72672f323030302f7376672720786d6c6e733a786c696e6b3d27687474703a2f2f7777772e77332e6f72672f313939392f786c696e6b2720666f6e742d66616d696c793d2773616e732d7365726966273e3c646566733e203c7061746820643d274d36302c323030613134302c313430203020312c30203238302c30272069643d276127202f3e3c7061746820643d274d32302c323030613138302c313830203020312c30203336302c30272069643d276227202f3e3c7061746820643d274d35302c323030613135302c313530203020312c31203330302c30272069643d276327202f3e3c7061746820643d274d37352c323030613132352c313235203020312c31203235302c30272069643d276627202f3e3c72616469616c4772616469656e742069643d2769272066783d272e38272066793d272e34273e3c73746f702073746f702d636f6c6f723d27233532643927206f66667365743d273027202f3e3c73746f702073746f702d636f6c6f723d27233532643627206f66667365743d272e3527202f3e3c73746f702073746f702d636f6c6f723d27233532643027206f66667365743d273127202f3e3c2f72616469616c4772616469656e743e3c72616469616c4772616469656e742069643d276a272066783d272e34272066793d272e38273e3c73746f702073746f702d636f6c6f723d27236433663827206f66667365743d273027202f3e3c73746f702073746f702d636f6c6f723d27236433663427206f66667365743d272e3527202f3e3c73746f702073746f702d636f6c6f723d27236433663027206f66667365743d273127202f3e3c2f72616469616c4772616469656e743e3c6c696e6561724772616469656e742069643d276b272078313d272e33272079313d272e31272078323d272e37272079323d2731273e3c73746f702073746f702d636f6c6f723d272366666627206f66667365743d272e323127202f3e3c73746f702073746f702d636f6c6f723d272330303027206f66667365743d272e343127202f3e3c73746f702073746f702d636f6c6f723d272366666627206f66667365743d272e343927202f3e3c73746f702073746f702d636f6c6f723d272330303027206f66667365743d272e3527202f3e3c73746f702073746f702d636f6c6f723d272366666627206f66667365743d272e353127202f3e3c73746f702073746f702d636f6c6f723d272330303027206f66667365743d272e383127202f3e3c2f6c696e6561724772616469656e743e3c66696c7465722069643d2773273e3c666544726f70536861646f772064783d272d2e35272064793d27302720737464446576696174696f6e3d27302720666c6f6f642d636f6c6f723d272337656627202f3e3c666544726f70536861646f772064783d272e35272064793d27302720737464446576696174696f6e3d27302720666c6f6f642d636f6c6f723d272364336627202f3e3c2f66696c7465723e3c66696c7465722069643d2774273e3c666544726f70536861646f772064783d2730272064793d27302720737464446576696174696f6e3d27312720666c6f6f642d636f6c6f723d272364336627202f3e3c2f66696c7465723e3c66696c7465722069643d2775273e3c666544726f70536861646f772064783d2730272064793d27302720737464446576696174696f6e3d27312720666c6f6f642d636f6c6f723d272330303027202f3e3c2f66696c7465723e3c66696c7465722069643d2776273e3c666544726f70536861646f772064783d2730272064793d27302720737464446576696174696f6e3d27312720666c6f6f642d636f6c6f723d272366666627202f3e3c2f66696c7465723e3c2f646566733e3c636972636c652063783d27323030272063793d273230302720723d27323030272066696c6c3d272330303027202f3e3c636972636c652063783d27323030272063793d273230302720723d2731393027207374726f6b652d77696474683d27312e3527207374726f6b653d2723666666272f3e3c656c6c697073652063783d27323130272063793d27323330272072783d273935272072793d27313830272066696c6c3d2775726c2823692927202f3e3c656c6c697073652063783d27313930272063793d27323130272072783d27313630272072793d273735272066696c6c3d2775726c28236a2927202f3e3c706174682066696c6c3d27236237642720643d274d3230203230307131342d312031352d31357131203134203135203135712d313420312d3135203135712d312d31342d31352d3135272066696c7465723d2775726c2823742927202f3e3c706174682066696c6c3d27236237642720643d274d333530203230307131342d312031352d31357131203134203135203135712d313420312d3135203135712d312d31342d31352d3135272066696c7465723d2775726c2823742927202f3e3c6720746578742d616e63686f723d276d6964646c65272066696c6c3d27236666662720666f6e742d73697a653d273236273e3c7465787420783d273238352720793d27302720666f6e742d66616d696c793d274261736b657276696c6c652720666f6e742d73697a653d2732322720746578744c656e6774683d2733383027203e3c746578745061746820786c696e6b3a687265663d272362273e4255494c44494e472057454233202d204d4d58584949202d2053313c2f74657874506174683e3c2f746578743e3c6720666f6e742d7765696768743d27393030273e3c6720666f6e742d73697a653d27313030272066696c7465723d2775726c28237529273e3c7465787420783d273133382720793d27323335272066696c6c3d2775726c28236b29273e443c2f746578743e3c7465787420783d273139382720793d27323330272066696c6c3d2775726c28236b292720666f6e742d7765696768743d27313030273e5f3c2f746578743e3c7465787420783d273236332720793d27323335272066696c6c3d2775726c28236b29273e443c2f746578743e3c2f673e3c672066696c7465723d2775726c28237329272066696c6c3d2723353264273e3c7465787420783d273233352720793d273330302720666f6e742d73697a653d273430273e3c746578745061746820786c696e6b3a687265663d272363273e4d454e544f52534849503c2f74657874506174683e3c2f746578743e3c7465787420783d273233352720793d27333030272064783d273234272066696c6c3d27626c61636b273e3c616e696d617465206475723d2736732720726570656174436f756e743d27696e646566696e69746527206174747269627574654e616d653d276478272076616c7565733d2732323b2d3130353b323227202f3e3c746578745061746820786c696e6b3a687265663d272366273ea26469706673582212204761a22cdef8f1dbf50086d12bc3ac930fe6a77667c2814d8b0b360b90b752ec64736f6c634300080b0033","opcodes":"PUSH1 0x80 PUSH1 0x40 MSTORE CALLVALUE DUP1 ISZERO PUSH2 0x10 JUMPI PUSH1 0x0 DUP1 REVERT JUMPDEST POP PUSH2 0x101E DUP1 PUSH2 0x20 PUSH1 0x0 CODECOPY PUSH1 0x0 RETURN INVALID PUSH1 0x80 PUSH1 0x40 MSTORE CALLVALUE DUP1 ISZERO PUSH2 0x10 JUMPI PUSH1 0x0 DUP1 REVERT JUMPDEST POP PUSH1 0x4 CALLDATASIZE LT PUSH2 0x2B JUMPI PUSH1 0x0 CALLDATALOAD PUSH1 0xE0 SHR DUP1 PUSH4 0x6548BC10 EQ PUSH2 0x30 JUMPI JUMPDEST PUSH1 0x0 DUP1 REVERT JUMPDEST PUSH2 0x4A PUSH1 0x4 DUP1 CALLDATASIZE SUB DUP2 ADD SWAP1 PUSH2 0x45 SWAP2 SWAP1 PUSH2 0x179 JUMP JUMPDEST PUSH2 0x61 JUMP JUMPDEST PUSH1 0x40 MLOAD PUSH2 0x58 SWAP3 SWAP2 SWAP1 PUSH2 0x27A JUMP JUMPDEST PUSH1 0x40 MLOAD DUP1 SWAP2 SUB SWAP1 RETURN JUMPDEST PUSH1 0x0 PUSH1 0x60 PUSH1 0x0 DUP1 DUP6 DUP6 DUP2 ADD SWAP1 PUSH2 0x77 SWAP2 SWAP1 PUSH2 0x410 JUMP JUMPDEST POP SWAP4 POP SWAP4 POP POP POP PUSH1 0x1 PUSH1 0x40 MLOAD DUP1 PUSH2 0xA20 ADD PUSH1 0x40 MSTORE DUP1 PUSH2 0x9F8 DUP2 MSTORE PUSH1 0x20 ADD PUSH2 0x5F1 PUSH2 0x9F8 SWAP2 CODECOPY DUP4 PUSH1 0x40 MLOAD DUP1 PUSH1 0xA0 ADD PUSH1 0x40 MSTORE DUP1 PUSH1 0x66 DUP2 MSTORE PUSH1 0x20 ADD PUSH2 0x567 PUSH1 0x66 SWAP2 CODECOPY DUP5 PUSH1 0x40 MLOAD DUP1 PUSH1 0x60 ADD PUSH1 0x40 MSTORE DUP1 PUSH1 0x24 DUP2 MSTORE PUSH1 0x20 ADD PUSH2 0x5CD PUSH1 0x24 SWAP2 CODECOPY PUSH1 0x40 MLOAD PUSH1 0x20 ADD PUSH2 0xE4 SWAP6 SWAP5 SWAP4 SWAP3 SWAP2 SWAP1 PUSH2 0x51B JUMP JUMPDEST PUSH1 0x40 MLOAD PUSH1 0x20 DUP2 DUP4 SUB SUB DUP2 MSTORE SWAP1 PUSH1 0x40 MSTORE SWAP4 POP SWAP4 POP POP POP SWAP3 POP SWAP3 SWAP1 POP JUMP JUMPDEST PUSH1 0x0 PUSH1 0x40 MLOAD SWAP1 POP SWAP1 JUMP JUMPDEST PUSH1 0x0 DUP1 REVERT JUMPDEST PUSH1 0x0 DUP1 REVERT JUMPDEST PUSH1 0x0 DUP1 REVERT JUMPDEST PUSH1 0x0 DUP1 REVERT JUMPDEST PUSH1 0x0 DUP1 REVERT JUMPDEST PUSH1 0x0 DUP1 DUP4 PUSH1 0x1F DUP5 ADD SLT PUSH2 0x139 JUMPI PUSH2 0x138 PUSH2 0x114 JUMP JUMPDEST JUMPDEST DUP3 CALLDATALOAD SWAP1 POP PUSH8 0xFFFFFFFFFFFFFFFF DUP2 GT ISZERO PUSH2 0x156 JUMPI PUSH2 0x155 PUSH2 0x119 JUMP JUMPDEST JUMPDEST PUSH1 0x20 DUP4 ADD SWAP2 POP DUP4 PUSH1 0x1 DUP3 MUL DUP4 ADD GT ISZERO PUSH2 0x172 JUMPI PUSH2 0x171 PUSH2 0x11E JUMP JUMPDEST JUMPDEST SWAP3 POP SWAP3 SWAP1 POP JUMP JUMPDEST PUSH1 0x0 DUP1 PUSH1 0x20 DUP4 DUP6 SUB SLT ISZERO PUSH2 0x190 JUMPI PUSH2 0x18F PUSH2 0x10A JUMP JUMPDEST JUMPDEST PUSH1 0x0 DUP4 ADD CALLDATALOAD PUSH8 0xFFFFFFFFFFFFFFFF DUP2 GT ISZERO PUSH2 0x1AE JUMPI PUSH2 0x1AD PUSH2 0x10F JUMP JUMPDEST JUMPDEST PUSH2 0x1BA DUP6 DUP3 DUP7 ADD PUSH2 0x123 JUMP JUMPDEST SWAP3 POP SWAP3 POP POP SWAP3 POP SWAP3 SWAP1 POP JUMP JUMPDEST PUSH1 0x0 DUP2 ISZERO ISZERO SWAP1 POP SWAP2 SWAP1 POP JUMP JUMPDEST PUSH2 0x1DB DUP2 PUSH2 0x1C6 JUMP JUMPDEST DUP3 MSTORE POP POP JUMP JUMPDEST PUSH1 0x0 DUP2 MLOAD SWAP1 POP SWAP2 SWAP1 POP JUMP JUMPDEST PUSH1 0x0 DUP3 DUP3 MSTORE PUSH1 0x20 DUP3 ADD SWAP1 POP SWAP3 SWAP2 POP POP JUMP JUMPDEST PUSH1 0x0 JUMPDEST DUP4 DUP2 LT ISZERO PUSH2 0x21B JUMPI DUP1 DUP3 ADD MLOAD DUP2 DUP5 ADD MSTORE PUSH1 0x20 DUP2 ADD SWAP1 POP PUSH2 0x200 JUMP JUMPDEST DUP4 DUP2 GT ISZERO PUSH2 0x22A JUMPI PUSH1 0x0 DUP5 DUP5 ADD MSTORE JUMPDEST POP POP POP POP JUMP JUMPDEST PUSH1 0x0 PUSH1 0x1F NOT PUSH1 0x1F DUP4 ADD AND SWAP1 POP SWAP2 SWAP1 POP JUMP JUMPDEST PUSH1 0x0 PUSH2 0x24C DUP3 PUSH2 0x1E1 JUMP JUMPDEST PUSH2 0x256 DUP2 DUP6 PUSH2 0x1EC JUMP JUMPDEST SWAP4 POP PUSH2 0x266 DUP2 DUP6 PUSH1 0x20 DUP7 ADD PUSH2 0x1FD JUMP JUMPDEST PUSH2 0x26F DUP2 PUSH2 0x230 JUMP JUMPDEST DUP5 ADD SWAP2 POP POP SWAP3 SWAP2 POP POP JUMP JUMPDEST PUSH1 0x0 PUSH1 0x40 DUP3 ADD SWAP1 POP PUSH2 0x28F PUSH1 0x0 DUP4 ADD DUP6 PUSH2 0x1D2 JUMP JUMPDEST DUP2 DUP2 SUB PUSH1 0x20 DUP4 ADD MSTORE PUSH2 0x2A1 DUP2 DUP5 PUSH2 0x241 JUMP JUMPDEST SWAP1 POP SWAP4 SWAP3 POP POP POP JUMP JUMPDEST PUSH1 0x0 DUP2 SWAP1 POP SWAP2 SWAP1 POP JUMP JUMPDEST PUSH2 0x2BD DUP2 PUSH2 0x2AA JUMP JUMPDEST DUP2 EQ PUSH2 0x2C8 JUMPI PUSH1 0x0 DUP1 REVERT JUMPDEST POP JUMP JUMPDEST PUSH1 0x0 DUP2 CALLDATALOAD SWAP1 POP PUSH2 0x2DA DUP2 PUSH2 0x2B4 JUMP JUMPDEST SWAP3 SWAP2 POP POP JUMP JUMPDEST PUSH1 0x0 DUP1 REVERT JUMPDEST PUSH32 0x4E487B7100000000000000000000000000000000000000000000000000000000 PUSH1 0x0 MSTORE PUSH1 0x41 PUSH1 0x4 MSTORE PUSH1 0x24 PUSH1 0x0 REVERT JUMPDEST PUSH2 0x31D DUP3 PUSH2 0x230 JUMP JUMPDEST DUP2 ADD DUP2 DUP2 LT PUSH8 0xFFFFFFFFFFFFFFFF DUP3 GT OR ISZERO PUSH2 0x33C JUMPI PUSH2 0x33B PUSH2 0x2E5 JUMP JUMPDEST JUMPDEST DUP1 PUSH1 0x40 MSTORE POP POP POP JUMP JUMPDEST PUSH1 0x0 PUSH2 0x34F PUSH2 0x100 JUMP JUMPDEST SWAP1 POP PUSH2 0x35B DUP3 DUP3 PUSH2 0x314 JUMP JUMPDEST SWAP2 SWAP1 POP JUMP JUMPDEST PUSH1 0x0 PUSH8 0xFFFFFFFFFFFFFFFF DUP3 GT ISZERO PUSH2 0x37B JUMPI PUSH2 0x37A PUSH2 0x2E5 JUMP JUMPDEST JUMPDEST PUSH2 0x384 DUP3 PUSH2 0x230 JUMP JUMPDEST SWAP1 POP PUSH1 0x20 DUP2 ADD SWAP1 POP SWAP2 SWAP1 POP JUMP JUMPDEST DUP3 DUP2 DUP4 CALLDATACOPY PUSH1 0x0 DUP4 DUP4 ADD MSTORE POP POP POP JUMP JUMPDEST PUSH1 0x0 PUSH2 0x3B3 PUSH2 0x3AE DUP5 PUSH2 0x360 JUMP JUMPDEST PUSH2 0x345 JUMP JUMPDEST SWAP1 POP DUP3 DUP2 MSTORE PUSH1 0x20 DUP2 ADD DUP5 DUP5 DUP5 ADD GT ISZERO PUSH2 0x3CF JUMPI PUSH2 0x3CE PUSH2 0x2E0 JUMP JUMPDEST JUMPDEST PUSH2 0x3DA DUP5 DUP3 DUP6 PUSH2 0x391 JUMP JUMPDEST POP SWAP4 SWAP3 POP POP POP JUMP JUMPDEST PUSH1 0x0 DUP3 PUSH1 0x1F DUP4 ADD SLT PUSH2 0x3F7 JUMPI PUSH2 0x3F6 PUSH2 0x114 JUMP JUMPDEST JUMPDEST DUP2 CALLDATALOAD PUSH2 0x407 DUP5 DUP3 PUSH1 0x20 DUP7 ADD PUSH2 0x3A0 JUMP JUMPDEST SWAP2 POP POP SWAP3 SWAP2 POP POP JUMP JUMPDEST PUSH1 0x0 DUP1 PUSH1 0x0 DUP1 PUSH1 0x0 PUSH1 0xA0 DUP7 DUP9 SUB SLT ISZERO PUSH2 0x42C JUMPI PUSH2 0x42B PUSH2 0x10A JUMP JUMPDEST JUMPDEST PUSH1 0x0 PUSH2 0x43A DUP9 DUP3 DUP10 ADD PUSH2 0x2CB JUMP JUMPDEST SWAP6 POP POP PUSH1 0x20 PUSH2 0x44B DUP9 DUP3 DUP10 ADD PUSH2 0x2CB JUMP JUMPDEST SWAP5 POP POP PUSH1 0x40 DUP7 ADD CALLDATALOAD PUSH8 0xFFFFFFFFFFFFFFFF DUP2 GT ISZERO PUSH2 0x46C JUMPI PUSH2 0x46B PUSH2 0x10F JUMP JUMPDEST JUMPDEST PUSH2 0x478 DUP9 DUP3 DUP10 ADD PUSH2 0x3E2 JUMP JUMPDEST SWAP4 POP POP PUSH1 0x60 DUP7 ADD CALLDATALOAD PUSH8 0xFFFFFFFFFFFFFFFF DUP2 GT ISZERO PUSH2 0x499 JUMPI PUSH2 0x498 PUSH2 0x10F JUMP JUMPDEST JUMPDEST PUSH2 0x4A5 DUP9 DUP3 DUP10 ADD PUSH2 0x3E2 JUMP JUMPDEST SWAP3 POP POP PUSH1 0x80 DUP7 ADD CALLDATALOAD PUSH8 0xFFFFFFFFFFFFFFFF DUP2 GT ISZERO PUSH2 0x4C6 JUMPI PUSH2 0x4C5 PUSH2 0x10F JUMP JUMPDEST JUMPDEST PUSH2 0x4D2 DUP9 DUP3 DUP10 ADD PUSH2 0x3E2 JUMP JUMPDEST SWAP2 POP POP SWAP3 SWAP6 POP SWAP3 SWAP6 SWAP1 SWAP4 POP JUMP JUMPDEST PUSH1 0x0 DUP2 SWAP1 POP SWAP3 SWAP2 POP POP JUMP JUMPDEST PUSH1 0x0 PUSH2 0x4F5 DUP3 PUSH2 0x1E1 JUMP JUMPDEST PUSH2 0x4FF DUP2 DUP6 PUSH2 0x4DF JUMP JUMPDEST SWAP4 POP PUSH2 0x50F DUP2 DUP6 PUSH1 0x20 DUP7 ADD PUSH2 0x1FD JUMP JUMPDEST DUP1 DUP5 ADD SWAP2 POP POP SWAP3 SWAP2 POP POP JUMP JUMPDEST PUSH1 0x0 PUSH2 0x527 DUP3 DUP9 PUSH2 0x4EA JUMP JUMPDEST SWAP2 POP PUSH2 0x533 DUP3 DUP8 PUSH2 0x4EA JUMP JUMPDEST SWAP2 POP PUSH2 0x53F DUP3 DUP7 PUSH2 0x4EA JUMP JUMPDEST SWAP2 POP PUSH2 0x54B DUP3 DUP6 PUSH2 0x4EA JUMP JUMPDEST SWAP2 POP PUSH2 0x557 DUP3 DUP5 PUSH2 0x4EA JUMP JUMPDEST SWAP2 POP DUP2 SWAP1 POP SWAP7 SWAP6 POP POP POP POP POP POP JUMP INVALID EXTCODECOPY 0x2F PUSH21 0x657874506174683E3C2F746578743E3C7465787420 PUSH25 0x3D273230302720793D27333035272064783D27323027206669 PUSH13 0x6C3D27626C61636B2720666F6E PUSH21 0x2D73697A653D273234273E3C746578745061746820 PUSH25 0x6C696E6B3A687265663D272361273E3C2F7465787450617468 RETURNDATACOPY EXTCODECOPY 0x2F PUSH21 0x6578743E3C2F673E3C2F673E3C2F673E3C2F737667 RETURNDATACOPY EXTCODECOPY PUSH20 0x76672077696474683D2733353027206865696768 PUSH21 0x3D27333530272076696577426F783D273020302034 ADDRESS ADDRESS KECCAK256 CALLVALUE ADDRESS ADDRESS 0x27 KECCAK256 PUSH25 0x6D6C6E733D27687474703A2F2F7777772E77332E6F72672F32 ADDRESS ADDRESS ADDRESS 0x2F PUSH20 0x76672720786D6C6E733A786C696E6B3D27687474 PUSH17 0x3A2F2F7777772E77332E6F72672F313939 CODECOPY 0x2F PUSH25 0x6C696E6B2720666F6E742D66616D696C793D2773616E732D73 PUSH6 0x726966273E3C PUSH5 0x6566733E20 EXTCODECOPY PUSH17 0x61746820643D274D36302C323030613134 ADDRESS 0x2C BALANCE CALLVALUE ADDRESS KECCAK256 ADDRESS KECCAK256 BALANCE 0x2C ADDRESS KECCAK256 ORIGIN CODESIZE ADDRESS 0x2C ADDRESS 0x27 KECCAK256 PUSH10 0x643D276127202F3E3C70 PUSH2 0x7468 KECCAK256 PUSH5 0x3D274D3230 0x2C ORIGIN ADDRESS ADDRESS PUSH2 0x3138 ADDRESS 0x2C BALANCE CODESIZE ADDRESS KECCAK256 ADDRESS KECCAK256 BALANCE 0x2C ADDRESS KECCAK256 CALLER CALLDATASIZE ADDRESS 0x2C ADDRESS 0x27 KECCAK256 PUSH10 0x643D276227202F3E3C70 PUSH2 0x7468 KECCAK256 PUSH5 0x3D274D3530 0x2C ORIGIN ADDRESS ADDRESS PUSH2 0x3135 ADDRESS 0x2C BALANCE CALLDATALOAD ADDRESS KECCAK256 ADDRESS KECCAK256 BALANCE 0x2C BALANCE KECCAK256 CALLER ADDRESS ADDRESS 0x2C ADDRESS 0x27 KECCAK256 PUSH10 0x643D276327202F3E3C70 PUSH2 0x7468 KECCAK256 PUSH5 0x3D274D3735 0x2C ORIGIN ADDRESS ADDRESS PUSH2 0x3132 CALLDATALOAD 0x2C BALANCE ORIGIN CALLDATALOAD KECCAK256 ADDRESS KECCAK256 BALANCE 0x2C BALANCE KECCAK256 ORIGIN CALLDATALOAD ADDRESS 0x2C ADDRESS 0x27 KECCAK256 PUSH10 0x643D276627202F3E3C72 PUSH2 0x6469 PUSH2 0x6C47 PUSH19 0x616469656E742069643D2769272066783D272E CODESIZE 0x27 KECCAK256 PUSH7 0x793D272E34273E EXTCODECOPY PUSH20 0x746F702073746F702D636F6C6F723D2723353264 CODECOPY 0x27 KECCAK256 PUSH16 0x66667365743D273027202F3E3C73746F PUSH17 0x2073746F702D636F6C6F723D2723353264 CALLDATASIZE 0x27 KECCAK256 PUSH16 0x66667365743D272E3527202F3E3C7374 PUSH16 0x702073746F702D636F6C6F723D272335 ORIGIN PUSH5 0x3027206F66 PUSH7 0x7365743D273127 KECCAK256 0x2F RETURNDATACOPY EXTCODECOPY 0x2F PUSH19 0x616469616C4772616469656E743E3C72616469 PUSH2 0x6C47 PUSH19 0x616469656E742069643D276A272066783D272E CALLVALUE 0x27 KECCAK256 PUSH7 0x793D272E38273E EXTCODECOPY PUSH20 0x746F702073746F702D636F6C6F723D2723643366 CODESIZE 0x27 KECCAK256 PUSH16 0x66667365743D273027202F3E3C73746F PUSH17 0x2073746F702D636F6C6F723D2723643366 CALLVALUE 0x27 KECCAK256 PUSH16 0x66667365743D272E3527202F3E3C7374 PUSH16 0x702073746F702D636F6C6F723D272364 CALLER PUSH7 0x3027206F666673 PUSH6 0x743D27312720 0x2F RETURNDATACOPY EXTCODECOPY 0x2F PUSH19 0x616469616C4772616469656E743E3C6C696E65 PUSH2 0x7247 PUSH19 0x616469656E742069643D276B272078313D272E CALLER 0x27 KECCAK256 PUSH26 0x313D272E31272078323D272E37272079323D2731273E3C73746F PUSH17 0x2073746F702D636F6C6F723D2723666666 0x27 KECCAK256 PUSH16 0x66667365743D272E323127202F3E3C73 PUSH21 0x6F702073746F702D636F6C6F723D27233030302720 PUSH16 0x66667365743D272E343127202F3E3C73 PUSH21 0x6F702073746F702D636F6C6F723D27236666662720 PUSH16 0x66667365743D272E343927202F3E3C73 PUSH21 0x6F702073746F702D636F6C6F723D27233030302720 PUSH16 0x66667365743D272E3527202F3E3C7374 PUSH16 0x702073746F702D636F6C6F723D272366 PUSH7 0x6627206F666673 PUSH6 0x743D272E3531 0x27 KECCAK256 0x2F RETURNDATACOPY EXTCODECOPY PUSH20 0x746F702073746F702D636F6C6F723D2723303030 0x27 KECCAK256 PUSH16 0x66667365743D272E383127202F3E3C2F PUSH13 0x696E6561724772616469656E74 RETURNDATACOPY EXTCODECOPY PUSH7 0x696C7465722069 PUSH5 0x3D2773273E EXTCODECOPY PUSH7 0x6544726F705368 PUSH2 0x646F PUSH24 0x2064783D272D2E35272064793D2730272073746444657669 PUSH2 0x7469 PUSH16 0x6E3D27302720666C6F6F642D636F6C6F PUSH19 0x3D272337656627202F3E3C666544726F705368 PUSH2 0x646F PUSH24 0x2064783D272E35272064793D273027207374644465766961 PUSH21 0x696F6E3D27302720666C6F6F642D636F6C6F723D27 0x23 PUSH5 0x336627202F RETURNDATACOPY EXTCODECOPY 0x2F PUSH7 0x696C7465723E3C PUSH7 0x696C7465722069 PUSH5 0x3D2774273E EXTCODECOPY PUSH7 0x6544726F705368 PUSH2 0x646F PUSH24 0x2064783D2730272064793D27302720737464446576696174 PUSH10 0x6F6E3D27312720666C6F PUSH16 0x642D636F6C6F723D272364336627202F RETURNDATACOPY EXTCODECOPY 0x2F PUSH7 0x696C7465723E3C PUSH7 0x696C7465722069 PUSH5 0x3D2775273E EXTCODECOPY PUSH7 0x6544726F705368 PUSH2 0x646F PUSH24 0x2064783D2730272064793D27302720737464446576696174 PUSH10 0x6F6E3D27312720666C6F PUSH16 0x642D636F6C6F723D272330303027202F RETURNDATACOPY EXTCODECOPY 0x2F PUSH7 0x696C7465723E3C PUSH7 0x696C7465722069 PUSH5 0x3D2776273E EXTCODECOPY PUSH7 0x6544726F705368 PUSH2 0x646F PUSH24 0x2064783D2730272064793D27302720737464446576696174 PUSH10 0x6F6E3D27312720666C6F PUSH16 0x642D636F6C6F723D272366666627202F RETURNDATACOPY EXTCODECOPY 0x2F PUSH7 0x696C7465723E3C 0x2F PUSH5 0x6566733E3C PUSH4 0x6972636C PUSH6 0x2063783D2732 ADDRESS ADDRESS 0x27 KECCAK256 PUSH4 0x793D2732 ADDRESS ADDRESS 0x27 KECCAK256 PUSH19 0x3D27323030272066696C6C3D27233030302720 0x2F RETURNDATACOPY EXTCODECOPY PUSH4 0x6972636C PUSH6 0x2063783D2732 ADDRESS ADDRESS 0x27 KECCAK256 PUSH4 0x793D2732 ADDRESS ADDRESS 0x27 KECCAK256 PUSH19 0x3D2731393027207374726F6B652D7769647468 RETURNDATASIZE 0x27 BALANCE 0x2E CALLDATALOAD 0x27 KECCAK256 PUSH20 0x74726F6B653D2723666666272F3E3C656C6C6970 PUSH20 0x652063783D27323130272063793D273233302720 PUSH19 0x783D273935272072793D27313830272066696C PUSH13 0x3D2775726C2823692927202F3E EXTCODECOPY PUSH6 0x6C6C69707365 KECCAK256 PUSH4 0x783D2731 CODECOPY ADDRESS 0x27 KECCAK256 PUSH4 0x793D2732 BALANCE ADDRESS 0x27 KECCAK256 PUSH19 0x783D27313630272072793D273735272066696C PUSH13 0x3D2775726C28236A2927202F3E EXTCODECOPY PUSH17 0x6174682066696C6C3D2723623764272064 RETURNDATASIZE 0x27 0x4D ORIGIN ADDRESS KECCAK256 ORIGIN ADDRESS ADDRESS PUSH18 0x31342D312031352D31357131203134203135 KECCAK256 BALANCE CALLDATALOAD PUSH18 0x2D313420312D3135203135712D312D31342D BALANCE CALLDATALOAD 0x2D BALANCE CALLDATALOAD 0x27 KECCAK256 PUSH7 0x696C7465723D27 PUSH22 0x726C2823742927202F3E3C706174682066696C6C3D27 0x23 PUSH3 0x376427 KECCAK256 PUSH5 0x3D274D3335 ADDRESS KECCAK256 ORIGIN ADDRESS ADDRESS PUSH18 0x31342D312031352D31357131203134203135 KECCAK256 BALANCE CALLDATALOAD PUSH18 0x2D313420312D3135203135712D312D31342D BALANCE CALLDATALOAD 0x2D BALANCE CALLDATALOAD 0x27 KECCAK256 PUSH7 0x696C7465723D27 PUSH22 0x726C2823742927202F3E3C6720746578742D616E6368 PUSH16 0x723D276D6964646C65272066696C6C3D 0x27 0x23 PUSH7 0x66662720666F6E PUSH21 0x2D73697A653D273236273E3C7465787420783D2732 CODESIZE CALLDATALOAD 0x27 KECCAK256 PUSH26 0x3D27302720666F6E742D66616D696C793D274261736B65727669 PUSH13 0x6C652720666F6E742D73697A65 RETURNDATASIZE 0x27 ORIGIN ORIGIN 0x27 KECCAK256 PUSH21 0x6578744C656E6774683D2733383027203E3C746578 PUSH21 0x5061746820786C696E6B3A687265663D272362273E TIMESTAMP SSTORE 0x49 0x4C DIFFICULTY 0x49 0x4E SELFBALANCE KECCAK256 JUMPI GASLIMIT TIMESTAMP CALLER KECCAK256 0x2D KECCAK256 0x4D 0x4D PC PC 0x49 0x49 KECCAK256 0x2D KECCAK256 MSTORE8 BALANCE EXTCODECOPY 0x2F PUSH21 0x657874506174683E3C2F746578743E3C6720666F6E PUSH21 0x2D7765696768743D27393030273E3C6720666F6E74 0x2D PUSH20 0x697A653D27313030272066696C7465723D277572 PUSH13 0x28237529273E3C746578742078 RETURNDATASIZE 0x27 BALANCE CALLER CODESIZE 0x27 KECCAK256 PUSH26 0x3D27323335272066696C6C3D2775726C28236B29273E443C2F74 PUSH6 0x78743E3C7465 PUSH25 0x7420783D273139382720793D27323330272066696C6C3D2775 PUSH19 0x6C28236B292720666F6E742D7765696768743D 0x27 BALANCE ADDRESS ADDRESS 0x27 RETURNDATACOPY 0x5F EXTCODECOPY 0x2F PUSH21 0x6578743E3C7465787420783D273236332720793D27 ORIGIN CALLER CALLDATALOAD 0x27 KECCAK256 PUSH7 0x696C6C3D277572 PUSH13 0x28236B29273E443C2F74657874 RETURNDATACOPY EXTCODECOPY 0x2F PUSH8 0x3E3C672066696C74 PUSH6 0x723D2775726C 0x28 0x23 PUSH20 0x29272066696C6C3D2723353264273E3C74657874 KECCAK256 PUSH25 0x3D273233352720793D273330302720666F6E742D73697A653D 0x27 CALLVALUE ADDRESS 0x27 RETURNDATACOPY EXTCODECOPY PUSH21 0x6578745061746820786C696E6B3A687265663D2723 PUSH4 0x273E4D45 0x4E SLOAD 0x4F MSTORE MSTORE8 BASEFEE 0x49 POP EXTCODECOPY 0x2F PUSH21 0x657874506174683E3C2F746578743E3C7465787420 PUSH25 0x3D273233352720793D27333030272064783D27323427206669 PUSH13 0x6C3D27626C61636B273E3C616E PUSH10 0x6D617465206475723D27 CALLDATASIZE PUSH20 0x2720726570656174436F756E743D27696E646566 PUSH10 0x6E697465272061747472 PUSH10 0x627574654E616D653D27 PUSH5 0x7827207661 PUSH13 0x7565733D2732323B2D3130353B ORIGIN ORIGIN 0x27 KECCAK256 0x2F RETURNDATACOPY EXTCODECOPY PUSH21 0x6578745061746820786C696E6B3A687265663D2723 PUSH7 0x273EA264697066 PUSH20 0x582212204761A22CDEF8F1DBF50086D12BC3AC93 0xF 0xE6 0xA7 PUSH23 0x67C2814D8B0B360B90B752EC64736F6C634300080B0033 "},"methodIdentifiers":{"image(bytes)":"6548bc10"}}}}}